:020000040000fa
:080000000002040000000000f2
:020000040000fa
:0400080018030000d9
:020000040000fa
:04000c00f0320000ce
:020000040000fa
:0400100008330000b1
:020000040000fa
:04001400f8320000be
:020000040000fa
:0400180010330000a1
:020000040000fa
:04001c0018030000c5
:020000040000fa
:0400200018030000c1
:020000040000fa
:0400240018030000bd
:020000040000fa
:0400280018030000b9
:020000040000fa
:04002c0018030000b5
:020000040000fa
:0400300018030000b1
:020000040000fa
:0400340018030000ad
:020000040000fa
:0400380018030000a9
:020000040000fa
:04003c0018030000a5
:020000040000fa
:0400400018030000a1
:020000040000fa
:04004400180300009d
:020000040000fa
:040048001803000099
:020000040000fa
:04004c001803000095
:020000040000fa
:040050001803000091
:020000040000fa
:04005400180300008d
:020000040000fa
:040058001803000089
:020000040000fa
:04005c001803000085
:020000040000fa
:040060001803000081
:020000040000fa
:04006400180300007d
:020000040000fa
:040068001803000079
:020000040000fa
:04006c000830000058
:020000040000fa
:040070001803000071
:020000040000fa
:04007400180300006d
:020000040000fa
:040078001803000069
:020000040000fa
:04007c001803000065
:020000040000fa
:040080001803000061
:020000040000fa
:04008400180300005d
:020000040000fa
:040088001803000059
:020000040000fa
:04008c001803000055
:020000040000fa
:040090001803000051
:020000040000fa
:04009400180300004d
:020000040000fa
:040098001803000049
:020000040000fa
:04009c001803000045
:020000040000fa
:0400a0001803000041
:020000040000fa
:0400a400180300003d
:020000040000fa
:0400a8001803000039
:020000040000fa
:0400ac001803000035
:020000040000fa
:0400b0001803000031
:020000040000fa
:0400b400180300002d
:020000040000fa
:0400b8001803000029
:020000040000fa
:0400bc001803000025
:020000040000fa
:0400c0001803000021
:020000040000fa
:0400c400180300001d
:020000040000fa
:0400c8001803000019
:020000040000fa
:0400cc001803000015
:020000040000fa
:0400d0001803000011
:020000040000fa
:0400d400180300000d
:020000040000fa
:0400d8001803000009
:020000040000fa
:0400dc001803000005
:020000040000fa
:0400e0001803000001
:020000040000fa
:0400e40018030000fd
:020000040000fa
:0400e80018030000f9
:020000040000fa
:0400ec0018030000f5
:020000040000fa
:0400f00018030000f1
:020000040000fa
:0400f40018030000ed
:020000040000fa
:0400f80018030000e9
:020000040000fa
:0400fc0018030000e5
:020000040000fa
:0401000018030000e0
:020000040000fa
:0401040018030000dc
:020000040000fa
:0401080018030000d8
:020000040000fa
:04010c0018030000d4
:020000040000fa
:0401100018030000d0
:020000040000fa
:0401140018030000cc
:020000040000fa
:0401180018030000c8
:020000040000fa
:04011c0018030000c4
:020000040000fa
:0401200018030000c0
:020000040000fa
:0401240018030000bc
:020000040000fa
:0401280018030000b8
:020000040000fa
:04012c0018030000b4
:020000040000fa
:0401300018030000b0
:020000040000fa
:0401340018030000ac
:020000040000fa
:0401380018030000a8
:020000040000fa
:04013c0018030000a4
:020000040000fa
:0401400018030000a0
:020000040000fa
:04014400180300009c
:020000040000fa
:040148001803000098
:020000040000fa
:04014c001803000094
:020000040000fa
:040150001803000090
:020000040000fa
:04015400180300008c
:020000040000fa
:040158001803000088
:020000040000fa
:04015c001803000084
:020000040000fa
:040160001803000080
:020000040000fa
:04016400180300007c
:020000040000fa
:040168001803000078
:020000040000fa
:04016c001803000074
:020000040000fa
:040170001803000070
:020000040000fa
:04017400180300006c
:020000040000fa
:040178001803000068
:020000040000fa
:04017c001803000064
:020000040000fa
:040180001803000060
:020000040000fa
:04018400180300005c
:020000040000fa
:040188001803000058
:020000040000fa
:04018c001803000054
:020000040000fa
:040190001803000050
:020000040000fa
:04019400180300004c
:020000040000fa
:040198001803000048
:020000040000fa
:04019c001803000044
:020000040000fa
:0401a0001803000040
:020000040000fa
:0401a400180300003c
:020000040000fa
:0401a8001803000038
:020000040000fa
:0401ac001803000034
:020000040000fa
:0401b0001803000030
:020000040000fa
:0401b400180300002c
:020000040000fa
:0401b8001803000028
:020000040000fa
:0401bc001803000024
:020000040000fa
:0401c0001803000020
:020000040000fa
:0401c400180300001c
:020000040000fa
:0401c8001803000018
:020000040000fa
:0401cc001803000014
:020000040000fa
:0401d0001803000010
:020000040000fa
:0401d400180300000c
:020000040000fa
:0401d8001803000008
:020000040000fa
:0401dc001803000004
:020000040000fa
:0401e0001803000000
:020000040000fa
:0401e40018030000fc
:020000040000fa
:0401e80018030000f8
:020000040000fa
:0401ec0018030000f4
:020000040000fa
:0401f00018030000f0
:020000040000fa
:0401f40018030000ec
:020000040000fa
:0401f80018030000e8
:020000040000fa
:0401fc0018030000e4
:020000040000fa
:0402080018030000d7
:020000040000fa
:04020c0018030000d3
:020000040000fa
:0402100018030000cf
:020000040000fa
:0402140018030000cb
:020000040000fa
:0402180018030000c7
:020000040000fa
:04021c0018030000c3
:020000040000fa
:0402200018030000bf
:020000040000fa
:0402240018030000bb
:020000040000fa
:0402280018030000b7
:020000040000fa
:04022c0018030000b3
:020000040000fa
:0402300018030000af
:020000040000fa
:0402340018030000ab
:020000040000fa
:0402380018030000a7
:020000040000fa
:04023c0018030000a3
:020000040000fa
:04024000180300009f
:020000040000fa
:04024400180300009b
:020000040000fa
:040248001803000097
:020000040000fa
:04024c001803000093
:020000040000fa
:04025000180300008f
:020000040000fa
:04025400180300008b
:020000040000fa
:040258001803000087
:020000040000fa
:04025c001803000083
:020000040000fa
:04026000180300007f
:020000040000fa
:04026400180300007b
:020000040000fa
:040268001803000077
:020000040000fa
:04026c001803000073
:020000040000fa
:04027000180300006f
:020000040000fa
:04027400180300006b
:020000040000fa
:040278001803000067
:020000040000fa
:04027c001803000063
:020000040000fa
:04028000180300005f
:020000040000fa
:04028400180300005b
:020000040000fa
:040288001803000057
:020000040000fa
:04028c001803000053
:020000040000fa
:04029000180300004f
:020000040000fa
:04029400180300004b
:020000040000fa
:040298001803000047
:020000040000fa
:04029c001803000043
:020000040000fa
:0402a000180300003f
:020000040000fa
:0402a400180300003b
:020000040000fa
:0402a8001803000037
:020000040000fa
:0402ac001803000033
:020000040000fa
:0402b000180300002f
:020000040000fa
:0402b400180300002b
:020000040000fa
:0402b8001803000027
:020000040000fa
:0402bc001803000023
:020000040000fa
:0402c000180300001f
:020000040000fa
:0402c400180300001b
:020000040000fa
:0402c8001803000017
:020000040000fa
:0402cc001803000013
:020000040000fa
:0402d000180300000f
:020000040000fa
:0402d400180300000b
:020000040000fa
:0402d8001803000007
:020000040000fa
:0402dc001803000003
:020000040000fa
:0402e00018030000ff
:020000040000fa
:0402e40018030000fb
:020000040000fa
:0402e80018030000f7
:020000040000fa
:0402ec0018030000f3
:020000040000fa
:0402f00018030000ef
:020000040000fa
:0402f40018030000eb
:020000040000fa
:0402f80018030000e7
:020000040000fa
:0402fc0018030000e3
:020000040000fa
:0403000018030000de
:020000040000fa
:0403040018030000da
:020000040000fa
:0403080018030000d6
:020000040000fa
:04030c0018030000d2
:020000040000fa
:0403100018030000ce
:020000040000fa
:0403140018030000ca
:020000040000fa
:0403180018030000c6
:020000040000fa
:04031c0018030000c2
:020000040000fa
:0403200018030000be
:020000040000fa
:0403240018030000ba
:020000040000fa
:0403280018030000b6
:020000040000fa
:04032c0018030000b2
:020000040000fa
:0403300018030000ae
:020000040000fa
:0403340018030000aa
:020000040000fa
:0403380018030000a6
:020000040000fa
:04033c0018030000a2
:020000040000fa
:04034000180300009e
:020000040000fa
:04034400180300009a
:020000040000fa
:040348001803000096
:020000040000fa
:04034c001803000092
:020000040000fa
:04035000180300008e
:020000040000fa
:04035400180300008a
:020000040000fa
:040358001803000086
:020000040000fa
:04035c001803000082
:020000040000fa
:04036000180300007e
:020000040000fa
:04036400180300007a
:020000040000fa
:040368001803000076
:020000040000fa
:04036c001803000072
:020000040000fa
:04037000180300006e
:020000040000fa
:04037400180300006a
:020000040000fa
:040378001803000066
:020000040000fa
:04037c001803000062
:020000040000fa
:04038000180300005e
:020000040000fa
:04038400180300005a
:020000040000fa
:040388001803000056
:020000040000fa
:04038c001803000052
:020000040000fa
:04039000180300004e
:020000040000fa
:04039400180300004a
:020000040000fa
:040398001803000046
:020000040000fa
:04039c001803000042
:020000040000fa
:0403a000180300003e
:020000040000fa
:0403a400180300003a
:020000040000fa
:0403a8001803000036
:020000040000fa
:0403ac001803000032
:020000040000fa
:0403b000180300002e
:020000040000fa
:0403b400180300002a
:020000040000fa
:0403b8001803000026
:020000040000fa
:0403bc001803000022
:020000040000fa
:0403c000180300001e
:020000040000fa
:0403c400180300001a
:020000040000fa
:0403c8001803000016
:020000040000fa
:0403cc001803000012
:020000040000fa
:0403d000180300000e
:020000040000fa
:0403d400180300000a
:020000040000fa
:0403d8001803000006
:020000040000fa
:0403dc001803000002
:020000040000fa
:0403e00018030000fe
:020000040000fa
:0403e40018030000fa
:020000040000fa
:0403e80018030000f6
:020000040000fa
:0403ec0018030000f2
:020000040000fa
:0403f00018030000ee
:020000040000fa
:0403f40018030000ea
:020000040000fa
:0403f80018030000e6
:020000040000fa
:0403fc0018030000e2
:020000040000fa
:100400002fcf20000e7f22000e0188000000000088
:10041000000020000000e000020032000001200087
:100420002002880014000700830007000000e0009d
:1004300003003a002097220001002000020037004c
:100440000000200001002000810f70000100320038
:1004500014000700000020000000e000020032004d
:100460000000020000000000c22f02000000000097
:100470000040da000000fe004440a90020272000d0
:100480000000e000030032000020200090018800fe
:100490004440a800000006008a1f78008b1f7800e7
:1004a00000000600a1028800800478000000eb0034
:1004b0001f003700e284440054a0b4009905ba003c
:1004c000e284440054a0b4009906ba00e2844400d7
:1004d00054a0b4000006eb00476fde00fd07b20039
:1004e000ae018800636ce10003003a00eaff0700f8
:1004f0000000eb000e003700606ce10008003a00dd
:10050000004deb000a05e800020039003420ec0041
:100510000af0a0008b05e900f9ff3e000400370057
:100520006168e100010032000086eb000b0007006b
:1005300019c7ba001905ba000e04e00003003a001a
:100540000a00e000dbff3a0000000600fe07b200f0
:10055000ae0288008a047800f5ff37000cd0a300b3
:10056000e20f4d001c00390089027800354dba00b9
:100570000a05e800020039003420ec000af0a0006f
:100580008b05e9000f003200254dba000a05e8008e
:10059000020039003420ec000af0a0008b05e900cd
:1005a000080032000c00e0000600320015cdba0051
:1005b0000a05e800020039003420ec000af0a0002f
:1005c0008b05e9008984e80054a0b4000b00e0002a
:1005d000e2ff3a00000006009902ba00055d7800cb
:1005e0008b05e900f7ff3200c82ade00055d7800c0
:1005f0008b05e900f3ff32000c00e000f1ff320050
:1006000019ddba00eeff3700bc2e04000000000028
:100610001a2e040000000000762d040000000000e7
:10062000d82c04000000000080040400000000003a
:100630000040da000000fe000000050003f0a20008
:10064000889fbe008a9fbe008c1f78007f00070035
:10065000860033006450e1004f0032006420e10066
:100660005200320003826c0007003b000905d000f5
:100670000306d000820f54000c065d000200390012
:100680000200320089017800030678008582550057
:1006900004003d000003fd008103fd008502ea0027
:1006a0008b854200840f720002003b006000100046
:1006b000e08018006011b8000005eb007a28e10026
:1006c0000a00390006007800c75ddd00f707b200b8
:1006d000878075002d003700828171000a01780043
:1006e000610560008180d1000080d3008502e900af
:1006f000f9ff3b00060440008784480002003b00ed
:1007000060041400e0841c000988a3000700320084
:100710008a81710082817100610164008904d100c5
:100720000884d3008b05e800170037000978a30080
:1007300013003a000b00e000130034008b05e900c1
:100740000804440089844c000a4474000978a3001a
:100750000d003a000b00e000070034008b05e900b3
:100760000804440089844c0001003a000b0020007a
:100770000978a300f7ff32000001eb000200370008
:10078000828171000a0178000a0007000cf0a700be
:1007900001f0a0003e0037006420e10002003a00b2
:1007a000838f6c003e0033000801be000200be00d3
:1007b0003700370081002000618055000b003d00ac
:1007c0000b00200061fe2f000100e1001d0034003d
:1007d00082817100610164008904d1000884d30022
:1007e0000000e800faff3a00710020006100640098
:1007f0000300700002006000090032006104440040
:10080000e0844c000988a500050032008b05e80053
:100810006808e10002003a008904d1000884d3008e
:10082000f20f20000258e10005003d00c75ddd0029
:10083000f907b20089807500080078000000060002
:100840000bf827008b007800000005000004be00b4
:10085000160007000003be000405be000200be0033
:1008600012000700844f7500000006000200be0061
:100870006450e100050036006420e100020036000b
:100880000968a30001003a000800be000160a00052
:100890004f0678004f05be004f04be000000060062
:1008a000f0ff2f00f1ff2700f9ff3700c70ade0035
:1008b000f107b200f50fb20008003200e1cf4200ac
:1008c000020032000170a00024000500810f7000ba
:1008d000010032000408050044000500810f70008b
:1008e00002003a00140005008502e9000000400003
:1008f00081c04800fcff3b000170a00024000500ff
:10090000881f780002047800080178005b04070063
:10091000080040004f047800000006000000fa00c4
:10092000881f780000047800ea8157003fb99700db
:100930008800780000482000070007000000e00061
:10094000020035008040eb00017478004f0478000d
:100950000080fa00000006006200fa00889fbe00d6
:100960008a1f78000005780081047800020478006e
:100970008300780080f92f000f0040006706070011
:100980009a979f00a9979f000000eb00b09f9f00df
:100990001885fb008a04fb000a05ea004f55de00bb
:1009a00050022000808f54000d003200e10f5500ee
:1009b0000b003a000a017800880078002f90970019
:1009c0009f91970003000100a0979f000000e000a6
:1009d0008e0032003f9897000000e800b09f9f0013
:1009e0000a04440050022000808f540004003200aa
:1009f0000900e000e6ff3a003f98970084003700c6
:100a00000000eb00909f9f00809f9f00f0979f0049
:100a1000e0979f00d0979f00c0979f000700370086
:100a200081cc20000100500000004000c1cb20001c
:100a300061007800df98970001007000d09f9f0050
:100a40008804780009047800384578008a00fb00a3
:100a500080cc2000100407000000e000f0ff3a0006
:100a6000a1c2b300814f55000e003a00cf88970015
:100a70000180e900c08f9f0010007800c09f9f0098
:100a80000000e00005003d000000ea00c09f9f005c
:100a90005f9897000020a000d09f9f000904e80005
:100aa0000f003700c09f9f000000eb0005003700db
:100ab000f2ff2700820f5000020032006a01b900e5
:100ac000028040000904780088047800b900fb0027
:100ad0000103b100e98f5000f5ff3600c09f9f0071
:100ae000e0c2b300984f1000020032000080eb001b
:100af00019003700a0c2b300d84f100007003a0019
:100b0000cf8897000180e900c08f9f001000780017
:100b1000a09f9f000804e800100037000000eb00d1
:100b2000a09f9f008800780005003700f3ff270092
:100b3000830f5000020032006a02b9000400410035
:100b400001047800880078003101fb000203b10045
:100b5000e90f5100f5ff3600a09f9f0098447800f0
:100b60008900fb0040cb2000cb0307000000e00021
:100b7000020032000804e800010037008044eb0066
:100b8000c97f9f0080c6b30080cf540004003a00a4
:100b900098cf14000a003a00664050000600370063
:100ba000c0c6b30080cf540005003a0098cf1400af
:100bb00003003a0065404000c07f9f000804e80041
:100bc0001801fb00e3fb2f008f81410081f92f000a
:100bd0008f804000a0f92f000f0040001000070098
:100be0000000e00009003a00e1fb2f008f80400088
:100bf000a0f92f000f0040000c0507000000e000e6
:100c0000020035000804e80061ff37000080eb00b7
:100c10004f0578004f04be000080fa000000060077
:100c2000889fbe008a1f7800000478008244780004
:100c30000305780070c6b30080cf54001a003c0052
:100c400000c0e90080cf5400c5003d006d40500059
:100c500080cf5400740032000b003c007140500003
:100c600080cf54002d013c0000c0e90080cf54002b
:100c7000bb003d0050c2b30080cf540024013200bd
:100c80007c4040000500370030c6b30080cf5400e0
:100c90001a0032001e003c0000c0e90080cf540062
:100ca0001e013a00ae003700f0c6b30080cf5400fa
:100cb0005d00320007003c006640500080cf5400c9
:100cc000130032006540400080cf540013013a0009
:100cd000cc00370050c7b30080cf54005200320020
:100ce0006340400080cf54004f00320002c7b30081
:100cf00082cf540009013a00f70037001181e90062
:100d00008208780078009000127578000901370099
:100d100028609000c2c6b300824f500007003a001e
:100d20001101780064005100800878001000be00b6
:100d30004f89de00820178001100370012c7b3002e
:100d4000824f500003003200a2c6b300824f500011
:100d500006003a0011017800680051008008780010
:100d60005001be004000be00050037001180e900c0
:100d70008008780010007800cf80de006109b9009b
:100d8000009cbe000294be002862900085c6b3009d
:100d9000854f52000d00320025c6b300854f52002a
:100da00004003a000000fb00cf80de006109b900ba
:100db0000800370045c7b300854f520003003200da
:100dc000e6c24200854f520004003a00cf80de00a8
:100dd0006109b900009cbe000294be003802be004a
:100de0002803be0078009000d1c2b300e00f52008b
:100df000e08f5a00e00f5b00e08f5b0008003500d9
:100e0000881090000118a30002003200b1c2b300a4
:100e1000030037000108a3004c00320001c2b300f8
:100e2000017578004700370028609000c2c6b30003
:100e3000824f500006003a00110178006400510012
:100e4000800878001000be006011b8001100370063
:100e500012c7b300824f500003003200a2c6b30095
:100e6000824f500006003a001101780068005100de
:100e7000800878005001be004000be000500370029
:100e80001180e90080087800100078008000eb00f5
:100e90006011b800009cbe000294be002862900061
:100ea00085c6b300854f52000d00320025c6b30041
:100eb000854f520004003a000080fb008000eb00e8
:100ec0006011b8000800370045c7b300854f5200d5
:100ed00003003200e6c24200854f520004003a008f
:100ee0008000eb006011b800009cbe000294be00c0
:100ef000081090000038a300140032003800be0033
:100f00002801be00e00f5000e08f5800e00f5900ac
:100f1000e08f59000d00320080c7b30080cf54002d
:100f20000300320080c5b30080cf540007003a00b0
:100f30007800900001c3b300017578000000e8005c
:100f4000097578000000e8007004980078009000af
:100f5000000545006a049800894078006900370060
:100f600028619000c0c4b300804f510006003a00d1
:100f70001101780068005100800878005001be001f
:100f80004000be00050037001101780064005100e8
:100f9000800878001000be00e6050700009cbe0037
:100fa0000294be00b8009000780090000100e000bc
:100fb00002003d00d1c2b300080037008810900045
:100fc0000118a30002003200b1c2b30003003700d1
:100fd0000108a3000400320001c2b30001757800cb
:100fe0000000e800700498007800900000054500bb
:100ff0006a0498008900fb0008007800530007008d
:101000004e00370028619000c3c6b3001180e9008c
:10101000834f5100240032000a003c00e4c151001b
:10102000834f51002700320083c1e800834f5100f5
:101030001500320020c6b300804f510020003a0056
:101040000a00370043c7b300834f51001d00320030
:10105000e6c14100834f51001a00320010c7b300af
:10106000804f510016003a00060037001180e90059
:101070008008780010007800485c900008487800ec
:101080002e0037001180e9008008780010007800f9
:10109000680a9000cfa2de00612bb9000498be0060
:1010a0000690be0025003700800878001000780008
:1010b00068099000cf91de000288be001f00370053
:1010c0001180e9008008780010007800680c90001a
:1010d00008087800190037001181e90082087800bb
:1010e00012027800cfa2de00612bb900049cbe0082
:1010f0000694be00f8009000010545006a049800bf
:101100008040780008007800990207000b00370043
:10111000780090000975780006003700780090008c
:10112000000545000904e00001003a0059c2b3007f
:10113000094d78000000e800700498000000eb0002
:101140004f0578004f04be00000006002f04b000d9
:10115000889fbe008a9fbe008c9fbe008e1f7800b5
:101160000007780081f79f003e04be002e05be00f8
:101170005e0890000000e00002003d0060002000da
:10118000500f98008e00780020fb2f000f004000c9
:101190004d020700e20f50000a003a003000200024
:1011a000100f9800b1c9b3000ff0970081404000c4
:1011b000e0c12000e1cf50000d003e00a0c12000a2
:1011c0000b0037000000e0000f003400300020006a
:1011d000100f9800b1c9b3000ff197008140410092
:1011e00060c22000e1cf500001003e0020c220007c
:1011f000ee009000b0487800b068780010407800a9
:1012000090409800f30037000000e00005003a002d
:1012100022fb2f000f014100001978008001eb0034
:10122000e70037006022b8006033b8000800be0055
:101230000a01be00870407000000e00001003d0035
:101240000bf0a200705927009f9897000088b90002
:10125000026a280013002000e20407006406500020
:101260009c9f9f0013003b0063061600c0ff2f00e9
:10127000000666008c01ea00939f9f00adc220002b
:101280000800be000a01be00070037000c08a300da
:10129000030032003d02be002d03be0073050700af
:1012a0000c86d100e88646000c00e000f7ff3c0009
:1012b000180037000c00e00018003200c0ff2f00bb
:1012c000000666009c9f9f00adc220006000b80031
:1012d0000200200003ff2300070037000c08a300d2
:1012e000030032003d02be002d03be005f05070073
:1012f0000c86d100e88646000c00e000f7ff3c00b9
:101300000002be000203be000800be000a01be00cb
:101310005a0407000004be000205be00de0890006b
:1013200060c6b3000ff29700804f520004003200f5
:101330006000200062c4b300824f520002003a00f5
:101340009f9a97006a80420081004000f1b79f0099
:1013500001037800f30f530002003400370120002e
:10136000f7b79f0000c3b300c0779f0056fb2f0064
:101370000f0343000e007800a0b79f000607780017
:101380003d0037000800be000a01be000805070046
:101390000006be007fb1970068015100f2b79f00c0
:1013a0004240a9000c0034002d0507000002be00d9
:1013b0000203be000800be000a01be00a00507002f
:1013c0006022b80046782d00771924002705070011
:1013d0000004be000205be00e80047008e002000a9
:1013e0000802be000a03be00b4b79f00c5b79f0045
:1013f000d6b79f00e7b79f000c01be00010478003c
:101400000c003700a400200005002000c0fd2f00c4
:101410000f004000840107006fa89700ffa8970005
:101420000fb197009fb1970005c3b3000564410059
:101430000001be00e00f5100e08f590003003400ae
:101440000e07e900e10f4700eeff3a008800780040
:101450003fb49700cfb497005fb59700efb5970002
:101460000200370000c3b300806078000e07e90077
:10147000fcff3b00688740007fb397000600e00058
:10148000070034006022b8006033b8000800be00d6
:101490000a01be00f40307000000e000b9ff3c00b1
:1014a0000e0378002fb7970051fb2f008f8040006c
:1014b000010353009f9b970067804300909f9f000c
:1014c000020037000603e9000000e900010178008e
:1014d0008200780003c3b300b1cf1100f9ff3200de
:1014e000909f9f00de09900061c6b3000ff2970045
:1014f000814f52000300320061c4b300814f52009b
:1015000002003a000000e8000a0037001000200046
:1015100051c6b3008ff2970081cf52000500320010
:101520000540780050c4b2000080fb000000e900d4
:101530004f00de0083014000868f5100010034001f
:10154000860178000300e0001d00350000c3b300f1
:10155000868f510006003d0062c27900694040005c
:1015600041c3b300814f520001003c00694050006c
:101570008300e90081004100010037008401780008
:101580000302e90001037800a142780080cf5200f5
:10159000faff320091c3b300814f500001003a00be
:1015a000054be8000400e00005003d000201e900f1
:1015b0008301e8001f9b97000603e800969f9f00a9
:1015c0008ff397008700fb001f9a97000e007800aa
:1015d000060007004f0778004f06be004f05be000b
:1015e0004f04be002f04b10000000600f087470042
:1015f000889fbe008a9fbe008c9fbe008e1f780011
:1016000000047800814478000205be0004067800da
:101610000b00e00002003c001b0020000acf20006d
:1016200060c6b30080cf54000e00320060c4b30027
:1016300080cf54000b00320070c6b30080cf54003e
:101640000300320070c4b30080cf540081003a0020
:10165000e40f46007f00350058089000800f5600c8
:101660007c003d000c06e80060c6b30080cf54004b
:101670001000320060c4b30080cf54000d0032006f
:10168000081090000038a30004003a0058089000a9
:10169000808f550001003d005b0c980058089000b9
:1016a0000c005000500c980002003b000000eb00c2
:1016b000500c980018089000e80090000c00e00022
:1016c00026003c0002c3b300827078000000e800ee
:1016d000100c9800d80890000100e00003003c00c6
:1016e000881090000138a30005003200e800900047
:1016f000e2c2b300827078000000e800100c98008d
:10170000580890008c00ea00810f500001003d0055
:101710000006ea008c00ea00210c98000006460052
:101720005c0c98008b0f5600010034000b0678000b
:101730003c0c9800e80090001808900000804000e1
:101740000c0178008a007800cc000700580890004f
:101750000c0650004c0c9800900037008c8f550000
:1017600018003d00008040000b0178008a007800de
:10177000c20007001808900000804500100c980077
:101780008b0556002b0c9800d80890000100e00053
:1017900003003c00881090000138a30006003200ce
:1017a000e8009000e2c2b300827078003808900030
:1017b0000000e800300c980058089000400c980099
:1017c00076003700008040000c0178008a00780025
:1017d000aa0007001808900000004600100c9800ae
:1017e0008c855500d80890000100e00003003c0003
:1017f000881090000138a30005003200e800900036
:10180000e2c2b300827078000000e800100c98007b
:1018100058089000808f5500010034008005780042
:10182000e800900018089000008040008c004500ff
:101830000b01780091000700180890000b00400091
:10184000100c9800580890008b0550002b0c980045
:101850005200370018089000e80090009a70780055
:101860000000e800100c9800d80890000100e0008b
:1018700003003c00881090000138a30005003200ee
:10188000e8009000e2c2b300827078000000e80037
:10189000100c9800580890000000e0001000340080
:1018a0008b05e900808f5500010034008005780029
:1018b000e800900018089000008040008a00e800ce
:1018c0000b0178006d000700180890000b00400025
:1018d000100c9800580890008b0550002b0c9800b5
:1018e000e800900018089000008040000958780037
:1018f0000007e8000c00e00004003500b1c2b300ae
:10190000014878008e04780004003700d1c2b3008b
:10191000014878008e0478000c06ea007d855700a7
:101920008006eb0009003700a20020008c00780040
:1019300072805700310007007fb097008fb8970082
:10194000016d7800000678008d06e8000c00e000cc
:10195000f5ff3c000d00e00009003a008e0478001d
:1019600000c3b300805c7800050037008d06e900f5
:10197000fc80570061c07e0002c3b300825c40005f
:101980000d00e000f9ff3c00e8009000180890000e
:101990000080400080845400390c980008109000aa
:1019a00074006000f00f50000e003a00980890009c
:1019b0007800900000804000a808900001004000de
:1019c000b808900001004000c808900001004000e5
:1019d000f8089000810f500002003d000080500088
:1019e000000c98004f0778004f06be004f05be0060
:1019f0004f04be000f01b100000006008002780015
:101a000001037800110009000203d800800178006a
:101a1000830a78000299b9000201530092029800eb
:101a20000500780000000600881f78008a9fbe002d
:101a30008c9fbe00000478000205be000406be00b4
:101a40000401be000a00be00e6020700008cbe00d2
:101a50000c01be000f0407000005550081855d00e4
:101a60002a0498003b049800080078004f06be0046
:101a70004f05be004f04780000000600800178008a
:101a800002003700b15978000201e9000200e000cd
:101a9000fcff3a0000000600020037000304e000eb
:101aa000060032000001780002007800b0417800a2
:101ab00081cf5100f9ff3a00010037000001eb002f
:101ac0000200780000000600889fbe000004780035
:101ad000e68440001900d0004500de00f27f2000bf
:101ae000820f500010003a00000ceb0099047800bf
:101af0006f816400200020001b003a00210190004b
:101b00000200e00018003a00110190000200e0001d
:101b100015003a00100020001100e0001200320011
:101b200020002000100037000000e00004003a0010
:101b300001007800fb0107000000e00008003c0005
:101b4000f20028001901610001fe2300810c7100e0
:101b500021c02f00010c40000080eb000200370084
:101b6000000ceb000000eb004f04be00000006007c
:101b7000fc874700889fbe008a9fbe008c9fbe00e6
:101b80008e1f78000006780080c5b30080cf50001b
:101b90000a0032007740400080cf50000a00320037
:101ba0006940400080cf50000b00320030c8200058
:101bb00080bf9f00ae0020000a00370022c720002f
:101bc00082bf9f000600370033c8200083bf9f00fc
:101bd0008e0020000300370034c8200084bf9f001f
:101be0000e0120003c02be002c03be000605be0014
:101bf0000404be0040c6b30080cf50000300320092
:101c00006540400080cf50000b003a00e00f5200ca
:101c1000e08f5a00e00f5b00e08f5b0006003d00a4
:101c20006000b8006011b8000404500085845800ba
:101c30000605590087855900e80f57000400320057
:101c400040002000f00f570038003a000100370034
:101c500030002000e00f5400e08f5c00e00f5d00da
:101c6000e08f5d0004003a00dc0890008d01200048
:101c70000100e000060032008e00e900888060006c
:101c80008fba9700e5c07800f1ef9f007d0120003a
:101c9000800078008100e900050033008b05d10049
:101ca0000a85d3008984d3000884d300f9ff370064
:101cb000089ebe000a96be00120037008d06e9009d
:101cc0008e00e900848060000fb99700e2c17800bf
:101cd00082fd2f000f01410003f17e00800078009b
:101ce0008100e900050033008783d1000683d3001b
:101cf0008582d3000482d300f9ff3700049ebe0022
:101d00000696be003c02be002c03be00e00f52004f
:101d1000e08f5a00e00f5b00e08f5b008b00340027
:101d20000d00e000e5ff3c00880037002c609000cb
:101d300081c6b300814f50000b00320006003c000a
:101d40000004e00008003200e6c05000814f50005f
:101d50004e003a0004003700c1c6b300814f500066
:101d60004a003a00210037000800e00004003a0071
:101d70005c0890008d0120000000e00006003200a9
:101d8000110009000e84d8000fb99700e2c0780056
:101d9000f1ef9f007d012000110009000e84d800a2
:101da0000a003700110009000e04d8008d06e90072
:101db0000e81b900020454008fb8970061417c0085
:101dc00081fd2f008f80400082f07e0000047800ab
:101dd0000800e000020032000d00e000f1ff3c00ce
:101de000cfc4de00614db90025003700e00f54007c
:101df000e08f5c0004003a005c0890008d01200038
:101e00000000e000070032006171b9000800be0068
:101e10001d0307008fb99700e3417800f3ef9f009f
:101e20007d0120006171b9000800be0006030700b3
:101e30000b0037006171b9000800be00e90107001e
:101e40008d06e90000f1b900020454000fba9700b2
:101e5000e4427c0084fd2f000f02420005f27e0068
:101e60000004be00e00f5000e08f58000200320076
:101e70000d00e000efff3c004fcdde008a0578004a
:101e8000089ebe000a96be0030003700e00f5400e6
:101e9000e08f5c00e00f5d00e08f5d0004003a0021
:101ea0005c0890008d0120000000e0000900320075
:101eb0006172b900612bb9000800be000a01be00c2
:101ec0009a0307000fba970064427800f4ef9f006e
:101ed0007d0120006172b900612bb9000800be00cd
:101ee0000a01be008a0307000d0037006172b900c5
:101ef000612bb9000800be000a01be008f03070075
:101f00008d06e90000f2b900040454008fba97006e
:101f100065427c0085fd2f008f82420084f27e00a6
:101f2000009ebe000296be003c04be002c05be0012
:101f3000e00f5400e08f5c00e00f5d00e08f5d007b
:101f4000020034000d00e000e8ff3c00e80f5700fd
:101f500010003a000c1090000038a3000d00320071
:101f6000f78f560006003e0085fd2f008f8242004d
:101f7000e5c07e0000c3b30080cf500005003200f2
:101f80008d06e90002c3b30081fd2f008f80400061
:101f900082f07e0078811600120e98006c0090008e
:101fa00083fd2f008f8141008d804100b3fe07002b
:101fb0001c089000dc089000810f500006003d00d6
:101fc00000805000000e98000c1090000040a1000e
:101fd000001698000f0037000100e0000d003d00e2
:101fe0008c109000f4806000f08f500009003a00df
:101ff0007c099000fc009000810051000c099000c9
:1020000082805000008050004240a900010034004e
:10201000000e98004f0778004f06be004f05be0027
:102020004f04be00cf01b100000006000400fa001a
:10203000889fbe008a9fbe008c1f78000004780035
:1020400001067800f80d900078009000808555001a
:10205000080890008085550018089000808555007c
:10206000280890008085550038089000808555002c
:1020700048089000808555000002220090bf9f0014
:1020800000032300a0bf9f00081090000028a300b9
:1020900015003a000b00e000130034000b05780037
:1020a0008a047800e20f5500010036002900200064
:1020b000c801900009017800ee8057005800900098
:1020c00003000100500498000000e0008c00320082
:1020d0006808900009004000600c98000905550050
:1020e0004240a900eeff3c00780190000200e000b1
:1020f0000c003400c80190008c007800580090005b
:1021000003000100500498008080eb000000e00014
:102110007c003200e80890007800900000804000c9
:10212000600c9800880c90000900e0001100340059
:1021300009057800e28f5400010036002a002000d3
:10214000c80190000a017800ec8057005800900008
:1021500003000100500498000000e0006800320015
:10216000680890000a004000600c98008a845400bf
:10217000edff3700180990000200e0000c00340069
:10218000c8019000e8009000580090000300010092
:10219000500498008080eb000000e00059003200fd
:1021a000e80890001808900000804000600c98003b
:1021b000a80c90000900e000110034000905780027
:1021c000e28f5400010036002a002000c801900070
:1021d0000a017800ec8057005800900003000100cd
:1021e000500498000000e0004500320068089000ac
:1021f0000a004000600c98008a845400edff37000c
:10220000380990000200e0000e003400e800900061
:102210001808900080804000c8019000580090008d
:1022200003000100500498008080eb000000e000f3
:1022300034003200e8089000380890000080400028
:10224000600c9800c80c90000900e00011003400f8
:1022500009057800e28f5400010036002a002000b2
:10226000c80190000a017800ec80570058009000e7
:1022700003000100500498000000e000200032003c
:10228000680890000a004000600c98008a8454009e
:10229000edff3700081090008000eb000028a3003d
:1022a000180032000b00e000160034008b047800a8
:1022b00009057800e28f5400010036002a00200052
:1022c000c80190000a017800ee8057005800900085
:1022d00003000100500498000000e00008003200f4
:1022e000680890000a004000600c98008a8454003e
:1022f0004240a900eeff3c008000eb0001003700e7
:102300008080eb00010078004f0678004f05be008a
:102310004f04be000080fa000000060001087800ab
:1023200000000600e60040001101780005002800ca
:10233000850261006f0161008208780002003200ae
:102340001200200011003700a001900012002000b0
:102350000300e0000d003a00900190000300e0004f
:102360000a003a001000e00008003a00360037008a
:10237000640340009608780080017800530b7800d1
:10238000900978000408780070015100110278006b
:102390000400e000f6ff3200130037006402400042
:1023a000140378004f33de008381410083087300fb
:1023b00080017800d3037800cf3bde00140378005f
:1023c00006034300068a73001302780004024200e9
:1023d000100378004f33de00860972009001780008
:1023e000038841000201e90091017800ef8f51005c
:1023f000eaff3600100037008001780053037800b0
:102400004f33dd001002d100040873006402400065
:1024100094037800cf3bdd001303d100868973005d
:10242000110378004f33dd009401d100030a7300db
:102430009108d1000201e80091017800ff8f51005e
:10244000edff3e00ef886100918872000200780085
:10245000000006008f1fd100130307008f87e900db
:102460000000e00000000600809feb000e03070064
:102470008f87e9000000e000000006002800fa0055
:10248000889fbe008a9fbe008c9fbe0003866b00a3
:102490008f0007006400e100440032006408e1009e
:1024a0004a0032006100e100460032006108e100ac
:1024b00049003200ec0647006000b8003d02be0053
:1024c0003d03be00f48657006011b8003d04be0015
:1024d0003d05be007d0320000b0037000000a0007a
:1024e0008d06e900130032000402420085824a0092
:1024f00006034b0087834b000000400081804800aa
:1025000002014900838149000802520089825a0071
:102510000a035b008b835b00f0ff3b000802420074
:1025200089824a000a034b008b834b008d06e90029
:10253000edff3a008482720086827200f707b200d3
:102540008782720001003200150020001e049000f6
:102550003e0b900006035400e63fb0000368a30062
:10256000070032000000a7000500a0008301d10091
:102570000281d3008180d3000080d3000603e800ed
:102580008301d1000281d3008180d3000080d30079
:102590000002eb000482d2002100070003f0a1003a
:1025a0000cf0a70003f0a0005d00370064024700b4
:1025b0006408e100570032003400be003401be0060
:1025c000f6ff37006108e100520032006011b800e8
:1025d0006000b800f1ff370003ff27000200200071
:1025e000fbff3700839f68000100e00002003d0010
:1025f00060001000e08018000300e00002003d00d1
:1026000060011100e08119000f0107004f00e00098
:1026100002003b0060001000e0801800000006008f
:102620001800200057002000080453000d003d0052
:102630000600200097fc2f000740e1001e00340038
:1026400084827200610260008301d1000281d300a4
:102650008180d3000080d3000804e800f8ff3a002e
:102660004700200061046000050474000404640055
:102670000d00320061004000e08048006001490028
:10268000e081490003b8a500070032000603e80016
:102690006538e10004003a008301d1000281d300d3
:1026a0008180d3000080d300f87f20000830e10053
:1026b00003003500080378006000b8006011b8001e
:1026c0004433dd00f300b200830173000000060014
:1026d000680447000294be000094be00fc0447005a
:1026e0008694be008494be0009007800b7020700fb
:1026f00008007800b502070099007800814f70004b
:102700000b003b000800be00900207004f00b10024
:1027100003003700f3ff2700f2ff2f006110b9001c
:102720004f06be004f05be004f04be000080fa00f9
:1027300000000600810378005cf807000001be007d
:102740006000b8000478a30013003a006220e100a2
:1027500015003e000d0039008301d1000281d30035
:102760008180d3008301d1000281d3008180d30016
:102770008301d1000281d3008180d3000538b000ed
:10278000c42add00f300b2008381720007f0a700c5
:1027900003f0a00000000600f3ff2700f2ff2f0067
:1027a0006110b900fbff370003ff2700f7ff370078
:1027b0001400fa00889fbe008a9fbe008c9fbe0056
:1027c0000004be000205be00680047000a90be007b
:1027d0000890be007d0207000070a7000bf0a1006a
:1027e000304320009e02900080825200b0fe2f00f5
:1027f0000028e10011003d00b0fc2f000028e1009e
:10280000150034001e0990008e0890007e00900094
:102810000501b0000201d1008180d3000080d30007
:102820008502e800fbff3a000b00e000bcff3b0024
:1028300060001000e0801800b9ff3700f0ff2f00a3
:10284000f1ff27000b00e000b5ff3b00010028006e
:1028500000002000b2ff37006000b800b0ff370072
:102860004f89de00820178007f0237002800fa00dd
:10287000889fbe008a9fbe008c9fbe0003866b00af
:1028800093ff07000028a30064003a000128a3007a
:1028900067003a000008a30062003a000108a300a4
:1028a00065003a001e009000be08900081064000be
:1028b000ed3fb100f4805700ee019000111ab8000e
:1028c0008e099000311bb8009e099000311cb800a1
:1028d000511db800f485570046000700fe01900026
:1028e0003a0007008b85e8003e0007008e09900043
:1028f00040000700ee019000340007008b85e800df
:10290000380007008e099000400007009e099000e3
:102910001b18b800890440000a854800fe01900099
:10292000340007008b85e80038000700ee019000b6
:10293000300007008e0990001b18b8008904400081
:102940000a8548000a98a30008003a0004024200e1
:1029500085824a0006034b0087834b0008044c0025
:1029600089844c000a054d008d06e90084827200be
:10297000850273004c3add008502720001003200ce
:1029800015002000443ade001400b2004538de0095
:10299000cb45dd000b007000c540de00cb4ddd00f7
:1029a0008b8070004549de00cb55dd000b017100c6
:1029b000c551de000d03780019ff070003f0a100e8
:1029c0000cf0a70003f0a00055ff37001b18b8005b
:1029d0008502400006834800e0834b0060044c0001
:1029e000070037001b18b800060340008783480023
:1029f000faff37001b18b80087034000088448001e
:102a0000e0844c0060054d00000006001b18b80073
:102a10000804400089844800faff37000108a30039
:102a20003cff3a005800be005801be00e3ff3700eb
:102a30000008a30037ff3a0009047800f9ff3700c7
:102a400007f0a2001b0137006022b8000602200038
:102a50000000d0008180d2000482d2008582d200a2
:102a60000000a0000202520083825a0003003100dd
:102a70000202420083824a000000a1000603e9002e
:102a8000f3ff3a0000000600efff07000400be005d
:102a900000000600020ab900001bb9000200b800dd
:102aa000810042008100430000000600889fbe00b4
:102ab0008a9fbe0030044200b0844a0030054b00bb
:102ac00090854b006000b1000898be000a90be00df
:102ad0000440e10005c8e10006d0e10007d8e100ac
:102ae00002003100680040001008e8004f05be00f9
:102af0004f04be0000000600889fbe008a9fbe00f3
:102b00003004be002005be000418540005985c0087
:102b100006185d0007985d00110020000440e100e8
:102b200005c8e10006d0e10007d8e1000100390046
:102b30008000eb00108810004f05be004f04be005f
:102b4000000006001200fa00889fbe008a9fbe00a7
:102b50008c9fbe00e0b79f00f1b79f0082bf9f002f
:102b600093bf9f000605be000404be000000eb00fa
:102b7000d0b79f00c0b79f00b0b79f00a0b79f001d
:102b800090b79f000006eb005fb19700cfb09700b1
:102b9000820141003fb097000200e00004003d00c8
:102ba000370007007e805700c0ff07000300370092
:102bb000330007007e805700cfff0700dfb6970085
:102bc0000d00e0000c0035006fb29700ffb29700d7
:102bd0000fbb97009fbb9700100020000100200052
:102be0006011b8000002720081827200020373005b
:102bf000838373001b0007000c06e800010420001b
:102c0000810f5600e0ff3a000d00e00004003d0097
:102c10000802be000a03be007e805700a3ff070023
:102c20005fa897000000e00005003a001fb297007f
:102c3000afb297003fb39700cfb3970009000700ea
:102c40006fb09700ffb097000fb997009fb997003a
:102c50004f06be004f05be004f04be000080fa00c4
:102c6000000006000100070000000600a4b79f0056
:102c7000b5b79f00c6b79f00d7b79f0000000600fa
:102c80004f09de0082817100b3b79f004f01de0063
:102c90008180400082807000a1b79f008fb09700b4
:102ca0004f09de00000040000200700090b79f0056
:102cb0007fa897004f01de00818040008280700075
:102cc00081b79f000d0007004f3ade000000400072
:102cd00004007000f0af9f000800070004024200eb
:102ce00085824a0006034b0087834b00dfff070005
:102cf0000802be000a03be00000006002fb29700c3
:102d0000bfb297004fb39700dfb3970000000600f3
:102d1000881f780018002000881f780089ff0700ae
:102d20008f87e9004f04780000000600801feb0049
:102d300084ff07008f87e90000000600889fbe001f
:102d40008a9fbe00e00f5000e08f5800e00f59004e
:102d5000e08f59000c003d006044b8006055b80099
:102d60000000540081805c0002015d0083815d00f1
:102d7000180020001500070008003d00180007009b
:102d80000004eb00050037000004eb000f00070013
:102d900002003d001200070018002000dcff0700c1
:102da0000800e000060032006022b8006033b8007e
:102db0000000520081805a0002015b0083815b00a9
:102dc0004f05be004f04be0000000600e00f520099
:102dd000e08f5a00e00f5b00e08f5b000000060010
:102de0006044b8006055b8000402540085825c005d
:102df00006035d0087835d0000000600889fbe001b
:102e00008a9fbe008c1f7800e00f5000e08f5800b2
:102e1000e00f5900e08f59000d003d006044b800fc
:102e20006055b8000000540081805c0002015d0024
:102e300083815d001c0020000820e10009a8e1005a
:102e40000ab0e1000bb8e1000d003d0008003700ba
:102e50000006eb00e00f5200e08f5a00e00f5b002d
:102e6000e08f5b0006003d006044b8006055b8008c
:102e70000402540085825c0006035d0087835d00c8
:102e8000aaff07000c00e000060032006022b80034
:102e90006033b8000000520081805a0002015b00dc
:102ea00083815b004f0678004f05be004f04be00d3
:102eb000000006002800fa00889fbe008a9fbe001e
:102ec0008c9fbe0007067800878669000c003b00d7
:102ed000030478008704780008f0a10009f0a1003d
:102ee000840f5000858f5800860f5900890f5c00b1
:102ef000030033000cf0a20001003a000cf0a10026
:102f0000f3fd07006400e1005f0032007801470034
:102f10006408e100610032006c01470074855700cd
:102f20003200be001201be003a04be001a05be0007
:102f30001e039000be0a90008503530006003d006a
:102f40000004fd008104fd000205fd008305fd0075
:102f50008703ea00050378000df8a300040032009f
:102f600060041400e0841c0060051d00e0851d0065
:102f70006022b8007d0320000d38e1008006eb00e0
:102f80000b0039004433dd00f300b200830173000d
:102f900039003700848272000d027800e106640077
:102fa0008b85d1000a85d3008984d3000884d3009f
:102fb0008703e900f7ff3b000800400089804800d4
:102fc0000a0149008b81490004003b0060001000a9
:102fd000e080180060011900e08119000358a30087
:102fe000090032008d8272008482720061026000ea
:102ff0008301d1000281d3008180d3000080d300ff
:103000000603e8001b0037000348a30017003a003e
:103010000600e000170034000603e9000d00a300dd
:103020000000480081804800020149008381490076
:103030000348a3000f003a000600e0000900340036
:103040000603e900000040008180480002014900b9
:103050008381490001003a000003eb000348a3000c
:10306000f5ff32006022b80002003700848272004f
:10307000618266006afd070003f0a1000cf0a70062
:1030800003f0a000a6fd3700640147006408e100da
:1030900002003a000df8a3009efd3a003200be0087
:1030a0001201be009efd3700889fbe008a9fbe00b1
:1030b0008c9fbe000404be000605be00809fbe00bb
:1030c000829fbe002f000700040678000800be00a3
:1030d0000a01be002b000700840678004f03be00e3
:1030e0004f02be008d4f76007fb097001300330073
:1030f000f0ff2f008b8f6b0006003b000d06660073
:103100000c00a7000a00370007f0a60010002000fe
:103110000a003700880f5200898f5a008a0f5b001f
:103120008b8f5b00030039001000200001003e007f
:103130000000200007f0a7000000ea004f06be00d4
:103140004f05be004f04be0000000600e4824000b0
:103150001078a30007003200640240001178a30039
:103160003400be001401be00040032000330a7008a
:10317000000006003500be001501be000330a000af
:103180000000060005ff27000582610007003200ed
:103190000428e100010032002400050006000700b9
:1031a00001003a0044000500040805000200070081
:1031b000f9ff3a00140005006f826100810270007f
:1031c0008502710085027200000006008000780010
:1031d0005002be005003be004439de00f700b200ca
:1031e000f37f200003016100090032000218e100b2
:1031f00016003a0085017200830173008381730019
:103200000008200015003a0040002000130037009d
:1032100085017200830173008381730005003a0009
:1032200004a8be0006a8be00100020000b00370056
:103230000201e9000402420085824a0006034b00b5
:1032400087834b000748a300f9ff32000740a00026
:1032500004a8be0006a8be00200020008000980040
:103260009200980000000600881f78000304780090
:103270000300e00007003d0060001000e08018003f
:1032800060011900e081190002003b0001f02d00ef
:10329000030037000400070008f0a70003f0a000b7
:1032a0004f04780000000600889fbe000082700076
:1032b00004027100048271002400320036432000b1
:1032c000c50020008383cf000a0039000541b1000a
:1032d0008283cf00070039000541b1008183cf0010
:1032e000040039000541b1008083cf00010039009e
:1032f0000541b10085c353006022b80012003200be
:103300000a003b0084827200610260008301d100e8
:103310000281d3008180d3000080d3000603e8003f
:103320008743e800f7ff3a0007003700000040003d
:103330008180480002014900838149000603e900b9
:103340008743e900f9ff3a00b5fc07004f04be00cf
:043350000000060073
:020000040000fa
:1033540025640000002500002e32000066000000f5
:10336400000000000000000000000000005f0000fa
:10337400000000000003000000030000001400002f
:103384003e1400003e140000242a00007f2a00009e
:103394001243000033080000666100003649000053
:1033a400552200005000000005030000000000004a
:1033b400001c000022410000000000004122000027
:1033c4001c000000140800003e080000140800005f
:1033d400083e000008080000005000003000000013
:1033e4000008000008080000080800000060000051
:1033f400600000000020000010080000040200002b
:103404003e510000494500003e040000027f0000d8
:103414000000000042610000514900004622000003
:10342400414900004936000018140000127f0000d2
:103434001027000045450000453900003e490000c2
:103444004949000032010000017100000907000031
:103454003649000049490000362600004949000069
:10346400493e000000360000360000000000000065
:10347400563600000000000008140000224100003d
:103484000014000014140000141400000041000093
:103494002214000008020000015100000906000087
:1034a4003e410000595500005e7e000009090000fd
:1034b400097e00007f49000049490000363e0000b3
:1034c40041410000412200007f41000041410000d1
:1034d4003e7f000049490000494100007f09000087
:1034e40009090000013e000041410000493a000082
:1034f4007f080000080800007f000000417f0000f2
:103504004100000030400000404000003f7f0000c8
:1035140008140000224100007f40000040400000e9
:10352400407f0000020c0000027f00007f020000c8
:10353400040800007f3e000041410000413e0000bd
:103544007f09000009090000061e00002121000077
:10355400215e00007f0900000909000076260000b2
:103564004949000049320000010100007f010000c8
:10357400013f000040400000403f00001f200000c9
:10358400402000001f7f000020100000207f00006a
:10359400412200001c2200004107000008700000c6
:1035a4000807000061510000494500004300000085
:1035b4007f41000000000000020400000810000029
:1035c400200400000201000002040000404000004a
:1035d4004040000040000000010200000400000020
:1035e4002054000054540000787f0000444400003c
:1035f40044380000384400004444000044380000cb
:1036040044440000447f0000385400005454000037
:1036140018040000047e00000505000008540000a2
:10362400545400003c7f00000804000004780000ab
:10363400004400007d4000000020000040440000e1
:103644003d0000007f10000028440000000000003e
:10365400417f0000400000007c040000780400006a
:10366400787c00000804000004780000384400005e
:1036740044440000387c00001414000014080000c6
:1036840008140000141400007c0000007c080000f2
:1036940004040000485400005454000020040000b6
:1036a400043f0000444400003c400000402000006f
:1036b4007c1c000020400000201c00003c40000056
:1036c400304000003c440000281000002844000062
:1036d4000c500000505000003c44000064540000b2
:1036e4004c44000000080000364100004100000086
:1036f400007f000000000000414100003608000087
:1037040000020000010200000402000000000000aa
:10371400000000000000000001030000070f00008b
:103724001f3f00007f00000080c00000e0f00000a8
:10373400f8fc0000fe0000004f70000074690000f7
:103744006f6e000020310000004f00007074000014
:10375400696f00006e200000320000004f7000000e
:10376400746900006f6e000020330000004f0000f9
:1037740070740000696f00006e20000034000000c7
:103784004e7500006d620000657200007300000059
:1037940043690000726300006c6500000052000081
:1037a40065630000746100006e6700006c650000d2
:1037b40000530000637200006f6c00006c20000076
:1037c4005269000067680000740000005363000041
:1037d400726f00006c6c0000204c000065660000f5
:1037e4007400000053630000726f00006c6c0000f2
:1037f4002044000069610000672000004c6500005f
:103804006674000000530000637200006f6c0000d7
:103814006c20000044690000616700002052000031
:1038240069670000687400000054000065780000b7
:04383400740000001c
:020000040000fa
:10383800004178008000eb0080c7b300ca0437005d
:10384800e0cab300faff070050cdb300f8ff070045
:1038580000c8b300f6ff070080cab300f4ff0700f2
:10386800f0c3b300f2ff070030cdb300f0ff07004c
:103878000040eb00eeff070000c4b300ecff0700b8
:10388800d0c8b300eaff0700f0cab300e8ff07009a
:1038980000c2b300e6ff07000040eb00e4ff0700aa
:1038a80010cab300e2ff070080ccb300e0ff0700b6
:1038b800a0cdb300deff070020c1b300dcff070086
:1038c80010c8b300daff0700f0c8b300d8ff07003c
:1038d80090cdb300d6ff070010cfb300d4ff070088
:1038e800b0cdb300d2ff070000c4b300d0ff07007b
:1038f80040cab300ceff070060cab300ccff070080
:10390800f0cab300caff3700f3072000830f500046
:1039180020003e000100e0001e003500f3032000f7
:10392800838f50001b003c00e10f51001a00320049
:103938000c0031004389de004711dd000000410022
:10394800a2812000e7806000130020008118dd00bc
:1039580081c0ea00e241780081c06100017178000d
:1039680000000600e20f51000a003a004389de0019
:103978004711dd0000004100a2812000e7806000bf
:10398800130020008118dd00e241780081c0690041
:103998000171780000000600c389de00c719dd0048
:1039a80000804100a3812000e78060000111dd0054
:1039b800e340780002c170008271780000000600c0
:1039c800889fbe008a9fbe008c9fbe0010c2b300b5
:1039d80097ff07000040eb0095ff0700f0c7b30012
:1039e80093ff070020c2b30091ff07000040eb00df
:1039f8008fff070070c0b3008dff07000085eb0044
:103a0800ad8120000c0820000d064600fb3f200079
:103a18002b040700e002a800e002ab00feff3a001a
:103a28008620a90080c7b3003f04070000c4b30084
:103a38003d0407000a8446008a044600584078007e
:103a480039040700888f5400fcff3a00e042a800c0
:103a5800e042ab00feff3a008620a9000a08b00049
:103a68008b0f5500eaff3a004f06be004f05be0017
:103a78004f04be0000000600a0812000ff030900db
:103a88000058eb00000006000f02b000889fbe003f
:103a98008a9fbe008c9fbe008e1f7800b0b79f0023
:103aa800c1b79f00f2af9f0003047800c4df9f00f6
:103ab8006540b9000001780092b79f006740b900df
:103ac80000017800d2b79f000200e80080b79f008d
:103ad8008040eb00c1e79f0092fd2f000281470064
:103ae80082bf9f008800e8004240dd00008040005f
:103af800d0af9f004fe197000280fb00ffa897001e
:103b0800614078000004e0005b00320021c5b3008a
:103b1800814f50005e003c000000fb006500b900ca
:103b2800229129000000410041fd2f0081804700bb
:103b380004000900b05878005000b1003fb1970068
:103b48001fb0970080004100f0072000808f5000d0
:103b580006003400cfb097000fb197008280400074
:103b6800c1b79f000000eb00b0b79f0041fd2f00d8
:103b780081804700e1b79f00bfb597004fd99700f4
:103b88000206fb000000eb000041eb00e2ef9f00a3
:103b9800dfb097000100e000230034006fb1970008
:103ba8009280fb008088de000108a3001600320026
:103bb8000800e000140034000880b9004fb19700f5
:103bc800000741000005eb008046eb000e054500ac
:103bd8000000eb008044eb000b0040000c01780073
:103be8008a00780048ff07008944e8000980fb0044
:103bf800800f5400f8ff3c008d46e8000d85fb005f
:103c08008a0f5400f1ff3c006fe897000040e8007d
:103c1800e0ef9f00804078000180fb005fb19700d3
:103c2800800f5100ddff3c00888545006fb097008c
:103c38000000e800e0b79f008fb89700810f5000a0
:103c4800d0ff3a004fe197000241e800c2e79f0029
:103c58003fb09700dfa8970001004000b0b79f0071
:103c68004fe197000280fb00ffa8970061407800b1
:103c78000004e000a5ff3a004f0778004f06be0099
:103c88004f05be004f04be000f02b1000000060041
:103c9800f1c7b300814f500018003200f1c9b300da
:103ca80081404000f9cf50000a003e000000fb00b0
:103cb8006500b900d29029000000410042fd2f00a4
:103cc8000281470004000900305978005000b10013
:103cd8009aff37000000fb006500b9002291290017
:103ce8000000410041fd2f008180470004000900c9
:103cf800b05878005000b10090ff370042fd2f0007
:103d080002814700209b29000400090030597800ef
:103d18008aff3700ea874700889fbe008a9fbe0057
:103d28008c9fbe008e1f78008085fb000287fb00f9
:103d38000b0757000ef0a7000e07ea008186fb006c
:103d48000385fb000d0555000af0a7000a05ea00e7
:103d58008084eb00804f51000100390019002000d9
:103d68000084eb0081cf51000100390018002000c9
:103d78008a0f5700240035000a004500d0b79f007d
:103d88000e0650000402fb00f4b79f000e05550014
:103d98000a054500eab79f008b8544000005eb0043
:103da800098055007fb197008d007800d6fe070086
:103db8000c00e0000d0035006fb0970000064600cb
:103dc800888646000a05e800898545008a0f57005d
:103dd800f3ff3d004f0778004f06be004f05be00b9
:103de8004f04be00af00b100000006005fb09700ae
:103df800000646000a05e800898545008a0f570035
:103e0800e7ff3d00f3ff37000e004700e0b79f00d3
:103e18008a0150000402fb00f4b79f000a0757000c
:103e28000e0747008d0644000006eb008880560008
:103e38007fb197000b00780083bf9f00b2fe070098
:103e48008fb997000300e0000e0035008e81410015
:103e5800898545000c06e800888646008c0f5500c9
:103e6800dcff3500888056007fb197000b00780092
:103e780083bf9f00a4fe07008fb997000300e000ee
:103e8800f2ff3d006fb09700808141000c06e8000a
:103e9800888646008c0f5500f2ff3d00cdff3700a5
:103ea800ee874700889fbe008a9fbe008c9fbe0099
:103eb8008e1f7800d0b79f0001067800e3e79f00c7
:103ec80084ef9f00e1051100820478000004eb00f4
:103ed800044078000005fb002fe89700f0e79f00fa
:103ee8006fe097000004e000380032008842780054
:103ef8007fe09700004344008cc144008843500091
:103f08000fea970006417800834078000740780060
:103f180085bf9f00f6b79f00e7b79f007dff0700aa
:103f2800894156000fea97007fb397000641780051
:103f380083407800efb397000740780075ff0700cb
:103f48007fe0970000c344008fba97008541460080
:103f5800894650000fea97000641780083407800b0
:103f68000d407800f6b79f006aff07008fba9700e8
:103f7800854156000fea97007fb397000641780005
:103f8800834078000d40780062ff07000b00e000d6
:103f980040003500e5854500090054000000400058
:103fa800808545000804e8008904e900890f540069
:103fb800cbff34004f0778004f06be004f05be0008
:103fc8004f04be00ef00b100000006008c864400dc
:103fd8005fb09700000244000a0178008d00780065
:103fe80004007800f4b79f0047fe07000c07440060
:103ff8005fb09700808144000a0178008e00780045
:1040080003007800e3b79f003ffe07005fb097000a
:10401800880250000a0178008d00780005007800b9
:1040280085bf9f0038fe07005fb0970089065000e3
:104038000a0178008e0078000d00780032fe070033
:10404800080756000a0178008e0078006fb09700c4
:104058002dfe0700890156000a01780083007800c8
:104068007fb09700e3b79f0027fe07000a0178009a
:10407800efb097000fb8970023fe07000a017800f9
:104088008e0078000d0078001ffe07000b00e0008e
:10409800c0ff3d00e3854500080044008b05400053
:1040a8000804e800890f54008dff3400c1ff370071
:1040b800889fbe008a9fbe008c9fbe008044780007
:1040c80081467800024478000345780085457800e9
:1040d8000404e0001c0032008acf56000f003100b3
:1040e8000a4678000d4578000b4278008a4178002e
:1040f800084178008a4078000940780005ff0700e9
:104108000a45e8008c4f5500f7ff36004f06be0001
:104118004f05be004f04be00000006000d467800a3
:104128000b4278008a417800084178008a4078007c
:1041380009407800f7fe07000a45e8008c4f550053
:10414800e9ff3600f1ff37000b4278008d41780017
:10415800084178008d40780009407800edfe07009e
:104168000b4278008a417800084178008a4078003c
:1041780009407800e7fe07000b4278008a41780082
:10418800094178008d40780002407800e1fe070080
:104198000b4278008a417800084178008d40780009
:1041a80002407800dbfe07004f06be004f05be0048
:1041b8004f04be0000000600d8ff3700889fbe00ed
:1041c8008a1f78000044780081447800040578004c
:1041d800054278000504e00005003200e1cf5200f6
:1041e800130032004f0578004f04be00000006009f
:1041f80015c0b3008940780008407800acff07007c
:104208008980fb00e88040000880fb0065004000d2
:1042180014c0b300130020000a0178001afe07003a
:104228004f0578004f04be0000000600f0ff37007d
:1042380089407800084078009dff07008980fb00ce
:10424800e88040000880fb00650040000042eb0069
:10425800130020000a0178000bfe07004f057800c4
:104268004f04be0000000600e1ff37001400fa000a
:10427800889fbe008a1f7800004478008144780037
:10428800034578000281fb00821f7800a09a29006c
:10429800801f78007e8057009ef107008980fb0010
:1042a8000880fb0014c0b3008a81fb007e815700a0
:1042b800f5fd0700e48757004f0578004f04be005e
:1042c8000080fa00000006001400fa00889fbe0073
:1042d8008a1f7800004478008144780004457800fb
:1042e800829fbe00d09a2900801f780000fe2f0010
:1042f8000f00400087f107008980fb000880fb0061
:1043080014c0b3008a81fb0002fe2f000f01410098
:10431800ddfd0700e68757004f0578004f04be0013
:104328000080fa00000006000004e00002003a00e5
:1043380060cab3003efd370070cab3003cfd3700c9
:10434800889fbe00004478008144780060c2b300b2
:1043580037fd07000040eb0035fd070008407800f6
:1043680033fd07000040eb0031fd070009407800ed
:104378002ffd07000040eb002dfd070000c0eb00fb
:104388002bfd0700f0c2b30029fd07004f04be0053
:1043980000000600889fbe00004478008144780031
:1043a80070c2b30022fd07000040eb0020fd0700ab
:1043b800084078001efd07000040eb001cfd0700c8
:1043c800094078001afd07000040eb0018fd0700bf
:1043d80000c0eb0016fd0700f0c2b30014fd070093
:1043e8004f04be0000000600889fbe00004478000d
:1043f8008144780030cab3000dfd07000040eb008f
:104408000bfd070000c4b30009fd070090c2b3000c
:1044180007fd07000040eb0005fd07000840780095
:1044280003fd07000040eb0001fd0700094078008c
:10443800fffc070010c0b300fdfc0700f0c2b3008a
:10444800fbfc07004f04be0000000600889fbe006a
:10445800004478008144780030cab300f4fc0700b7
:104468000040eb00f2fc070000c4b300f0fc0700ba
:10447800a0c2b300eefc07000040eb00ecfc070014
:1044880008407800eafc07000040eb00e8fc070061
:1044980009407800e6fc070010c0b300e4fc070000
:1044a800f0c2b300e2fc07004f04be0000000600a3
:1044b800e0c2b300defc3700881f7800f8ccb300f8
:1044c8000004e00006003a0010c8b300d8fc07005a
:1044d80008407800d6fc07004f047800000006006a
:1044e8000044eb0010c8b300d1fc07000840780076
:1044f800cffc07004f04780000000600f8ff3700e3
:10450800f4032000848f50001b003e000000e000f0
:10451800210035008002410004082000848f5200e9
:1045280001003400000152000200e00012003400d3
:10453800438ade004722dd00a581200005024200f3
:1045480000004200e7806000140020008120dd00a8
:10455800848f51001700320008003900e28f5100a3
:1045680005003a000201400010c868000000e80099
:10457800820f5000fcff3a000000060081c0ea00ec
:104588000201400010c860000000e800820f5000df
:10459800fcff3a0000000600000141000000eb00ab
:1045a8008002410004082000848f5200deff34009e
:1045b800dcff37000201400010c870000000e8006e
:1045c800820f5000fcff3a0000000600f4032000b0
:1045d800848f50001b003e000000e00021003500e1
:1045e8008002410004082000848f5200010034003a
:1045f800000152000200e00012003400438ade008d
:104608004722dd00a581200005024200000042008b
:10461800e7806000140020008120dd00848f5100b5
:104628001700320008003900e28f510005003a00f7
:104638000201400010c868000000e800820f500026
:10464800fcff3a000000060081c0ea0002014000b9
:1046580010c860000000e800820f5000fcff3a001c
:1046680000000600000141000000eb00800241004c
:1046780004082000848f5200deff3400dcff37007e
:104688000201400010c870000000e800820f5000ce
:10469800fcff3a0000000600f4072000840f5000d9
:1046a8004b003e000100e0004a0035008102410055
:1046b80004042000848f52000100340001015200dc
:1046c8000200e000420034000182fb004322de00c9
:1046d8004722dd00a58120000502420000004200bb
:1046e800e7c060001500320084c0b300814052006a
:1046f8008182fb0054b9290064c27a00814f5100bd
:10470800050031000283fb0086825200f60f20006c
:1047180085b2de0005426200e18f510034003200ac
:104728003700310004c2ea0010486200814f51008e
:1047380027003900014151000008b000e74f51003f
:1047480015003600e28f5100310032000042eb00c4
:10475800e18f51003f003200684151000283fb00a5
:104768004333de000508200080824200c730dd00a8
:104778008182420080007800844878000108b000f7
:10478800858f5000fcff3a000603e8004733dd0040
:1047980006004000674161000204e0000c0032009e
:1047a80067016100d1b82900e1407900e18f51002b
:1047b800110032000300310081c0ea0010c8600017
:1047c80000000600e28f510001003a0010c868009e
:1047d80000000600010141008000eb008102410059
:1047e80004042000848f5200b5ff3400b3ff370063
:1047f80010487200cdff370010c870000000060096
:10480800e28f5100c9ff3a0010486a00c7ff37001d
:10481800684151008282fb00c32ade0004082000a0
:1048280000024200c728dd00010242008000780033
:1048380091c8ea000108b000848f5000fcff3a00dc
:104848008502e800c72add000500400067416100d5
:10485800d1ff370000c2eb00684151000283fb0022
:104868004333de000508200080824200c730dd00a7
:104878008182420080007800bfff3700f4072000e3
:10488800840f50004b003e000100e0004a00350054
:104898008102410004042000848f5200010034008a
:1048a800010152000200e000420034000182fb00d6
:1048b8004322de004722dd00a581200005024200d8
:1048c80000004200e7c060001500320084c0b30059
:1048d800814052008182fb0054b9290064c27a00e9
:1048e800814f5100050031000283fb00868252008f
:1048f800f60f200085b2de0005426200e18f51000c
:10490800340032003700310004c2ea001048620067
:10491800814f510027003900014151000008b000c3
:10492800e74f510015003600e28f51003100320088
:104938000042eb00e18f51003f0032006841510016
:104948000283fb004333de0005082000808242001a
:10495800c730dd00818242008000780084487800fa
:104968000108b000858f5000fcff3a000603e800fc
:104978004733dd0006004000674161000204e000a3
:104988000c00320067016100d1b82900e1407900cc
:10499800e18f5100110032000300310081c0ea00ac
:1049a80010c8600000000600e28f510001003a00c4
:1049b80010c8680000000600010141008000eb00fb
:1049c8008102410004042000848f5200b5ff3400a6
:1049d800b3ff370010487200cdff370010c87000d1
:1049e80000000600e28f5100c9ff3a0010486a0033
:1049f800c7ff3700684151008282fb00c32ade00ee
:104a08000408200000024200c728dd00010242001d
:104a18008000780091c8ea000108b000848f500037
:104a2800fcff3a008502e800c72add0005004000c7
:104a380067416100d1ff370000c2eb0068415100b7
:104a48000283fb004333de00050820008082420019
:104a5800c730dd008182420080007800bfff370048
:104a6800e062a800e062ab00feff3a00e4c2a900e1
:104a7800d016800000000600d0082000f01688003c
:104a8800e422ef00e1a2a900e182a900e142a90025
:104a9800e122a900e102a900e0e2a900e0c2a90020
:104aa800e0a2a900e082a900e062a900e042a90012
:104ab800e022a900e002a900e1e2a8000000060047
:104ac80002002400e4e2ab0001003200e4e2a900a5
:104ad800011780000040eb00e042ab0002003a0002
:104ae800618060000004a200e062ab0001003200b7
:104af8000040eb00e022ab00010032000040eb0078
:104b0800e082ab00010032000040eb002317800078
:104b180083006100ebff3a000004e000e9ff320087
:104b280000000000000006000080fb00e01688007e
:104b380000c0eb00e4e2ab00010032000000060018
:104b4800010024002217800002806000fdff3a0067
:104b5800dbff07000040eb00e402e200f7ff3d0046
:104b6800e0cfb30000000600889fbe008a1f7800cf
:104b7800804478000104780002457800d0ff0700df
:104b8800e002a800e002ab00feff3a008620a90080
:104b980009407800e4ff070008407800e2ff0700ba
:104ba8000a407800e0ff0700e042a800e042ab00be
:104bb800feff3a008620a90000e82300010020003b
:104bc800ac0607004f0578004f04be000000060041
:104bd800889fbe008a9fbe00804478000244780007
:104be800030578000804e000070032008185fb0017
:104bf8003a4178008b00780009407800daff070016
:104c08000844e900faff3a004f05be004f04be0011
:104c180000000600889fbe008a1f780000447800c4
:104c280001457800820478004849de008a80fb004c
:104c380008407800ccff07008a40e8008180fb002c
:104c48000941780008407800c7ff07004f05780041
:104c58004f04be0000000600889fbe000044780094
:104c680081047800e002a800e002ab00feff3a00f1
:104c78008620a90008407800abff070009407800ab
:104c8800a9ff0700e022a800e022ab00feff3a00df
:104c98008620a900084078000004a000a2ff0700b1
:104ca800e062a800e062ab00feff3a00e4c2a9009f
:104cb800d0168000e042a800e042ab00feff3a00b8
:104cc8008620a9004f04be0000000600889fbe0091
:104cd8008a9fbe008c1f78000044780082447800c8
:104ce80003457800044678008185fb008b00780036
:104cf80008407800d8ff07008a80fb008984fb0001
:104d08008904e800818454001a0020008150dd00e5
:104d18008100e9008908dd000c86fb008964dd005c
:104d280001c1ea000241600081c0640001417100d4
:104d38008b007800084078008bff07000a40780055
:104d48004f0678004f05be004f04be000000060065
:104d5800889fbe008a9fbe00004478000245780004
:104d6800834578008184fb0089007800084078003a
:104d7800b9ff07000b04e0000b003a000a85fb00ae
:104d8800120020000a11dd0002c1ea0002416000a1
:104d9800890078000840780073ff07004f05be00bf
:104da8004f04be00000006000a85fb001200200028
:104db8000a11dd000241700089007800084078007f
:104dc80069ff07004f05be004f04be000000060043
:104dd800f5ff3700881f7800030478008180fb0006
:104de8009dff0700004ceb004f0478000000060010
:104df800889fbe008a1f78000244780083447800a8
:104e0800040578008180fb0093ff07008984fb007c
:104e18000884fb000804e80009045400110020007d
:104e2800890cdd008904e900884cdd000940600038
:104e38000080fb000884de00084d78000040eb008d
:104e48004f0578004f04be0000000600889fbe0092
:104e58008a9fbe00004478008244780003057800e9
:104e68000904e000070032008185fb008b00780010
:104e78000840780078ff0700004d78008944e90071
:104e8800faff3a004f05be004f04be0000000600be
:104e9800e002a8000017800061006000fdff3a00f2
:104ea80000000600e022a8000017800062006000f1
:104eb800fdff3a0000000600e042a800001780004d
:104ec80064006000fdff3a00000006000080fb005f
:104ed800e01688002017800061006000fdff3a009e
:104ee80000000600010024002217800002806000f4
:104ef800fdff3a000000060004002400251780008a
:104f080085016200fdff3a00e002a800e002ab0064
:104f1800feff3a000080fb00e0168800e402ab00c8
:104f2800feff3a000300240024178000048061007b
:104f3800fdff3a00201780008180fb00e116880001
:104f4800e402ab00feff3a000100240025178000b0
:104f580005806000fdff3a00201780000080ea000d
:104f68004f00de000281fb00e2168800e402ab007d
:104f7800feff3a000200240023178000830061002e
:104f8800fdff3a00e042a800e042ab00feff3a0015
:104f980000000600201780000080ea004f00de00b5
:104fa80000000600e0a2a800e082a8000017800028
:104fb80070006000fdff3a00e0a2a90000000600b2
:104fc800e0a2a900e082a80000178000700060003d
:104fd800fdff3a0000000600e062a80000000000a3
:104fe800e422ab00feff3200d0168000000006006d
:104ff800889fbe008a1f78000144780080047800ea
:105008000a4020000804e0000e003200f2ff07000a
:10501800805c780021178000010065000d003a00cf
:105028000844e900f7ff3200e0a2a900e082a800e6
:10503800e082ab00f3ff3200e082ab00fcff3a00f5
:10504800f0ff37000040eb004f0578004f04be002a
:105058000000060000c0eb004f0578004f04be00ba
:1050680000000600fbff37000304e0002e003200ba
:10507800050024002617800006826200fdff3a0022
:10508800e002a800e002ab00feff3a000082fb004d
:10509800e4168800e402ab00feff3a000500240095
:1050a8002617800006826200fdff3a008180fb001f
:1050b800e1168800e402ab00feff3a000500240078
:1050c8002117800001826200fdff3a00e022a8005b
:1050d800e022ab00feff3a000004a0000080fb00c5
:1050e800e0168800e402ab00feff3a00040024004a
:1050f8002617800006006200fdff3a008340780012
:1051080002007800baff0700e0a2a800e082a80029
:10511800e082ab00feff3a00e0a2a900e042a8004e
:10512800e042ab00feff3a00000005000500240045
:105138002617800006826200fdff3a00e002a80000
:10514800e002ab00feff3a000082fb00e416880094
:10515800e402ab00feff3a00050024002617800099
:1051680006826200fdff3a008180fb00e11688009c
:10517800e402ab00feff3a0005002400211780007e
:1051880001826200fdff3a00e022a800e022ab00a5
:10519800feff3a000004a0000080fb00e016880033
:1051a800e402ab00feff3a0004002400261780004a
:1051b80006006200fdff3a00834078000200780094
:1051c8008bff0700e0a2a800e082a800e082ab0005
