:020000040000fa
:080000000002040000000000f2
:020000040000fa
:0400080014030000dd
:020000040000fa
:04000c00fe3d0000b5
:020000040000fa
:04001000103e00009e
:020000040000fa
:04001400063e0000a4
:020000040000fa
:04001800183e00008e
:020000040000fa
:04001c0014030000c9
:020000040000fa
:0400200014030000c5
:020000040000fa
:0400240014030000c1
:020000040000fa
:0400280014030000bd
:020000040000fa
:04002c0014030000b9
:020000040000fa
:0400300014030000b5
:020000040000fa
:04003400ce3b0000bf
:020000040000fa
:0400380014030000ad
:020000040000fa
:04003c0014030000a9
:020000040000fa
:0400400014030000a5
:020000040000fa
:0400440014030000a1
:020000040000fa
:04004800140300009d
:020000040000fa
:04004c001403000099
:020000040000fa
:040050001403000095
:020000040000fa
:040054001403000091
:020000040000fa
:04005800140300008d
:020000040000fa
:04005c001403000089
:020000040000fa
:040060001403000085
:020000040000fa
:040064001403000081
:020000040000fa
:04006800140300007d
:020000040000fa
:04006c0070370000e9
:020000040000fa
:040070001403000075
:020000040000fa
:040074001403000071
:020000040000fa
:04007800140300006d
:020000040000fa
:04007c001403000069
:020000040000fa
:040080001403000065
:020000040000fa
:040084001403000061
:020000040000fa
:04008800140300005d
:020000040000fa
:04008c001403000059
:020000040000fa
:040090001403000055
:020000040000fa
:040094001403000051
:020000040000fa
:04009800140300004d
:020000040000fa
:04009c001403000049
:020000040000fa
:0400a0001403000045
:020000040000fa
:0400a4001403000041
:020000040000fa
:0400a800140300003d
:020000040000fa
:0400ac001403000039
:020000040000fa
:0400b0001403000035
:020000040000fa
:0400b4001403000031
:020000040000fa
:0400b800140300002d
:020000040000fa
:0400bc001403000029
:020000040000fa
:0400c0001403000025
:020000040000fa
:0400c4001403000021
:020000040000fa
:0400c800140300001d
:020000040000fa
:0400cc001403000019
:020000040000fa
:0400d0001403000015
:020000040000fa
:0400d4001403000011
:020000040000fa
:0400d800140300000d
:020000040000fa
:0400dc001403000009
:020000040000fa
:0400e0001403000005
:020000040000fa
:0400e4001403000001
:020000040000fa
:0400e80014030000fd
:020000040000fa
:0400ec0014030000f9
:020000040000fa
:0400f00014030000f5
:020000040000fa
:0400f40014030000f1
:020000040000fa
:0400f80014030000ed
:020000040000fa
:0400fc0014030000e9
:020000040000fa
:0401000014030000e4
:020000040000fa
:0401040014030000e0
:020000040000fa
:0401080014030000dc
:020000040000fa
:04010c0014030000d8
:020000040000fa
:0401100014030000d4
:020000040000fa
:0401140014030000d0
:020000040000fa
:0401180014030000cc
:020000040000fa
:04011c0014030000c8
:020000040000fa
:0401200014030000c4
:020000040000fa
:0401240014030000c0
:020000040000fa
:0401280014030000bc
:020000040000fa
:04012c0014030000b8
:020000040000fa
:0401300014030000b4
:020000040000fa
:0401340014030000b0
:020000040000fa
:0401380014030000ac
:020000040000fa
:04013c0014030000a8
:020000040000fa
:0401400014030000a4
:020000040000fa
:0401440014030000a0
:020000040000fa
:04014800140300009c
:020000040000fa
:04014c001403000098
:020000040000fa
:040150001403000094
:020000040000fa
:040154001403000090
:020000040000fa
:04015800140300008c
:020000040000fa
:04015c001403000088
:020000040000fa
:040160001403000084
:020000040000fa
:040164001403000080
:020000040000fa
:04016800140300007c
:020000040000fa
:04016c001403000078
:020000040000fa
:040170001403000074
:020000040000fa
:040174001403000070
:020000040000fa
:04017800140300006c
:020000040000fa
:04017c001403000068
:020000040000fa
:040180001403000064
:020000040000fa
:040184001403000060
:020000040000fa
:04018800140300005c
:020000040000fa
:04018c001403000058
:020000040000fa
:040190001403000054
:020000040000fa
:040194001403000050
:020000040000fa
:04019800140300004c
:020000040000fa
:04019c001403000048
:020000040000fa
:0401a0001403000044
:020000040000fa
:0401a4001403000040
:020000040000fa
:0401a800140300003c
:020000040000fa
:0401ac001403000038
:020000040000fa
:0401b0001403000034
:020000040000fa
:0401b4001403000030
:020000040000fa
:0401b800140300002c
:020000040000fa
:0401bc001403000028
:020000040000fa
:0401c0001403000024
:020000040000fa
:0401c4001403000020
:020000040000fa
:0401c800140300001c
:020000040000fa
:0401cc001403000018
:020000040000fa
:0401d0001403000014
:020000040000fa
:0401d4001403000010
:020000040000fa
:0401d800140300000c
:020000040000fa
:0401dc001403000008
:020000040000fa
:0401e0001403000004
:020000040000fa
:0401e4001403000000
:020000040000fa
:0401e80014030000fc
:020000040000fa
:0401ec0014030000f8
:020000040000fa
:0401f00014030000f4
:020000040000fa
:0401f40014030000f0
:020000040000fa
:0401f80014030000ec
:020000040000fa
:0401fc0014030000e8
:020000040000fa
:0402080014030000db
:020000040000fa
:04020c0014030000d7
:020000040000fa
:0402100014030000d3
:020000040000fa
:0402140014030000cf
:020000040000fa
:0402180014030000cb
:020000040000fa
:04021c0014030000c7
:020000040000fa
:0402200014030000c3
:020000040000fa
:0402240014030000bf
:020000040000fa
:0402280014030000bb
:020000040000fa
:04022c0014030000b7
:020000040000fa
:0402300014030000b3
:020000040000fa
:0402340014030000af
:020000040000fa
:0402380014030000ab
:020000040000fa
:04023c0014030000a7
:020000040000fa
:0402400014030000a3
:020000040000fa
:04024400140300009f
:020000040000fa
:04024800140300009b
:020000040000fa
:04024c001403000097
:020000040000fa
:040250001403000093
:020000040000fa
:04025400140300008f
:020000040000fa
:04025800140300008b
:020000040000fa
:04025c001403000087
:020000040000fa
:040260001403000083
:020000040000fa
:04026400140300007f
:020000040000fa
:04026800140300007b
:020000040000fa
:04026c001403000077
:020000040000fa
:040270001403000073
:020000040000fa
:04027400140300006f
:020000040000fa
:04027800140300006b
:020000040000fa
:04027c001403000067
:020000040000fa
:040280001403000063
:020000040000fa
:04028400140300005f
:020000040000fa
:04028800140300005b
:020000040000fa
:04028c001403000057
:020000040000fa
:040290001403000053
:020000040000fa
:04029400140300004f
:020000040000fa
:04029800140300004b
:020000040000fa
:04029c001403000047
:020000040000fa
:0402a0001403000043
:020000040000fa
:0402a400140300003f
:020000040000fa
:0402a800140300003b
:020000040000fa
:0402ac001403000037
:020000040000fa
:0402b0001403000033
:020000040000fa
:0402b400140300002f
:020000040000fa
:0402b800140300002b
:020000040000fa
:0402bc001403000027
:020000040000fa
:0402c0001403000023
:020000040000fa
:0402c400140300001f
:020000040000fa
:0402c800140300001b
:020000040000fa
:0402cc001403000017
:020000040000fa
:0402d0001403000013
:020000040000fa
:0402d400140300000f
:020000040000fa
:0402d800140300000b
:020000040000fa
:0402dc001403000007
:020000040000fa
:0402e0001403000003
:020000040000fa
:0402e40014030000ff
:020000040000fa
:0402e80014030000fb
:020000040000fa
:0402ec0014030000f7
:020000040000fa
:0402f00014030000f3
:020000040000fa
:0402f40014030000ef
:020000040000fa
:0402f80014030000eb
:020000040000fa
:0402fc0014030000e7
:020000040000fa
:0403000014030000e2
:020000040000fa
:0403040014030000de
:020000040000fa
:0403080014030000da
:020000040000fa
:04030c0014030000d6
:020000040000fa
:0403100014030000d2
:020000040000fa
:0403140014030000ce
:020000040000fa
:0403180014030000ca
:020000040000fa
:04031c0014030000c6
:020000040000fa
:0403200014030000c2
:020000040000fa
:0403240014030000be
:020000040000fa
:0403280014030000ba
:020000040000fa
:04032c0014030000b6
:020000040000fa
:0403300014030000b2
:020000040000fa
:0403340014030000ae
:020000040000fa
:0403380014030000aa
:020000040000fa
:04033c0014030000a6
:020000040000fa
:0403400014030000a2
:020000040000fa
:04034400140300009e
:020000040000fa
:04034800140300009a
:020000040000fa
:04034c001403000096
:020000040000fa
:040350001403000092
:020000040000fa
:04035400140300008e
:020000040000fa
:04035800140300008a
:020000040000fa
:04035c001403000086
:020000040000fa
:040360001403000082
:020000040000fa
:04036400140300007e
:020000040000fa
:04036800140300007a
:020000040000fa
:04036c001403000076
:020000040000fa
:040370001403000072
:020000040000fa
:04037400140300006e
:020000040000fa
:04037800140300006a
:020000040000fa
:04037c001403000066
:020000040000fa
:040380001403000062
:020000040000fa
:04038400140300005e
:020000040000fa
:04038800140300005a
:020000040000fa
:04038c001403000056
:020000040000fa
:040390001403000052
:020000040000fa
:04039400140300004e
:020000040000fa
:04039800140300004a
:020000040000fa
:04039c001403000046
:020000040000fa
:0403a0001403000042
:020000040000fa
:0403a400140300003e
:020000040000fa
:0403a800140300003a
:020000040000fa
:0403ac001403000036
:020000040000fa
:0403b0001403000032
:020000040000fa
:0403b400140300002e
:020000040000fa
:0403b800140300002a
:020000040000fa
:0403bc001403000026
:020000040000fa
:0403c0001403000022
:020000040000fa
:0403c400140300001e
:020000040000fa
:0403c800140300001a
:020000040000fa
:0403cc001403000016
:020000040000fa
:0403d0001403000012
:020000040000fa
:0403d400140300000e
:020000040000fa
:0403d800140300000a
:020000040000fa
:0403dc001403000006
:020000040000fa
:0403e0001403000002
:020000040000fa
:0403e40014030000fe
:020000040000fa
:0403e80014030000fa
:020000040000fa
:0403ec0014030000f6
:020000040000fa
:0403f00014030000f2
:020000040000fa
:0403f40014030000ee
:020000040000fa
:0403f80014030000ea
:020000040000fa
:0403fc0014030000e6
:020000040000fa
:10040000cf1522000e7f22000e01880000000000a0
:10041000000020000000e000020032000001200087
:100420002002880014000700810007000000e0009f
:1004300003003a00603b2300010020000200370067
:100440000000200001002000810f70000100320038
:1004500014000700000020000000e000020032004d
:100460000000020000000000823c020000000000ca
:100470000040da000000fe004440a90020232000d4
:100480000000e000030032000020200090018800fe
:100490004440a800000006008a1f78008b1f7800e7
:1004a00000000600a1028800800478000000eb0034
:1004b0001f003700e284440054a0b4009905ba003c
:1004c000e284440054a0b4009906ba00e2844400d7
:1004d00054a0b4000006eb00476fde00fd07b20039
:1004e000ae018800636ce10003003a00eaff0700f8
:1004f0000000eb000e003700606ce10008003a00dd
:10050000004deb000a05e800020039003420ec0041
:100510000af0a0008b05e900f9ff3e000400370057
:100520006168e100010032000086eb000b0007006b
:1005300019c7ba001905ba000e04e00003003a001a
:100540000a00e000dbff3a0000000600fe07b200f0
:10055000ae0288008a047800f5ff37000cd0a300b3
:10056000e20f4d001c00390089027800354dba00b9
:100570000a05e800020039003420ec000af0a0006f
:100580008b05e9000f003200254dba000a05e8008e
:10059000020039003420ec000af0a0008b05e900cd
:1005a000080032000c00e0000600320015cdba0051
:1005b0000a05e800020039003420ec000af0a0002f
:1005c0008b05e9008984e80054a0b4000b00e0002a
:1005d000e2ff3a00000006009902ba00055d7800cb
:1005e0008b05e900f7ff3200c82ade00055d7800c0
:1005f0008b05e900f3ff32000c00e000f1ff320050
:1006000019ddba00eeff3700423c04000000000094
:10061000023c0400000000002c1b0400000000004d
:1006200036030400000000000040da000000fe0075
:10063000000005008001780002003700b159780001
:100640000201e9000200e000fcff3a0000000600a1
:100650008001780002003700815978000201e9002a
:100660000200e000fcff3a0000000600881f78004e
:100670000204780008017800eeff0700080040003f
:100680004f047800000006000000fa00881f780080
:1006900000047800ea8157003fb99700880078008d
:1006a00060332000070007000000e0000200350072
:1006b0008040eb00017478004f0478000080fa005d
:1006c000000006006200fa00889fbe008a1f7800c2
:1006d0000005780081047800020478008300780027
:1006e00080f92f000f004000600607009a979f00d6
:1006f000a9979f000000eb00b09f9f001885fb00aa
:100700008a04fb000a05ea004f55de005002200073
:10071000808f54000d003200e10f55000b003a00ad
:100720000a017800880078002f9097009f91970029
:1007300003000100a0979f000000e0008e0032003f
:100740003f9897000000e800b09f9f000a04440013
:1007500050022000808f5400040032000900e000a5
:10076000e6ff3a003f989700840037000000eb0056
:10077000909f9f00809f9f00f0979f00e0979f00b1
:10078000d0979f00c0979f000700370021142200d8
:100790000100500000004000611322006100780059
:1007a000df98970001007000d09f9f0088047800b8
:1007b00009047800384578008a00fb0020142200e4
:1007c000090407000000e000f0ff3a00a1c2b300f6
:1007d000814f55000e003a00cf8897000180e90054
:1007e000c08f9f0010007800c09f9f000000e000b5
:1007f00005003d000000ea00c09f9f005f98970041
:100800000020a000d09f9f000904e8000f003700df
:10081000c09f9f000000eb0005003700f2ff27009b
:10082000820f5000020032006a01b90002804000cd
:100830000904780088047800b900fb000103b100c6
:10084000e98f5000f5ff3600c09f9f00e0c2b30063
:10085000984f1000020032000080eb0019003700b2
:10086000a0c2b300d84f100007003a00cf8897000d
:100870000180e900c08f9f0010007800a09f9f00ba
:100880000804e800100037000000eb00a09f9f0064
:100890008800780005003700f3ff2700830f500021
:1008a000020032006a02b90004004100010478002d
:1008b000880078003101fb000203b100e90f51000c
:1008c000f5ff3600a09f9f00984478008900fb0048
:1008d000e0122200c40307000000e0000200320022
:1008e0000804e800010037008044eb00c97f9f0046
:1008f00080c6b30080cf540004003a0098cf1400a3
:100900000a003a006640500006003700c0c6b30037
:1009100080cf540005003a0098cf140003003a003d
:1009200065404000c07f9f000804e8001801fb00fc
:10093000e3fb2f008f81410081f92f008f80400061
:10094000a0f92f000f004000100007000000e00099
:1009500009003a00e1fb2f008f804000a0f92f0032
:100960000f004000050507000000e0000200350010
:100970000804e80061ff37000080eb004f057800b5
:100980004f04be000080fa0000000600889fbe00f1
:100990008a1f7800000478008244780003057800fc
:1009a00070c6b30080cf54001a003c0000c0e900bc
:1009b00080cf5400c5003d006d40500080cf5400f2
:1009c000740032000b003c007140500080cf540096
:1009d0002d013c0000c0e90080cf5400bb003d0069
:1009e00050c2b30080cf5400240132007c4040004c
:1009f0000500370030c6b30080cf54001a00320023
:100a00001e003c0000c0e90080cf54001e013a00e7
:100a1000ae003700f0c6b30080cf54005d00320056
:100a200007003c006640500080cf540013003200a5
:100a30006540400080cf540013013a00cc003700dd
:100a400050c7b30080cf54005200320063404000d2
:100a500080cf54004f00320002c7b30082cf540051
:100a600009013a00f70037001181e9008208780097
:100a70007800900012757800090137002860900016
:100a8000c2c6b300824f500007003a00110178003f
:100a900064005100800878001000be004f89de001d
:100aa000820178001100370012c7b300824f500056
:100ab00003003200a2c6b300824f500006003a0085
:100ac0001101780068005100800878005001be00d4
:100ad0004000be00050037001180e9008008780062
:100ae00010007800cf80de006109b900009cbe00d4
:100af0000294be002862900085c6b300854f520064
:100b00000d00320025c6b300854f520004003a00a4
:100b10000000fb00cf80de006109b900080037004b
:100b200045c7b300854f520003003200e6c24200c1
:100b3000854f520004003a00cf80de006109b90001
:100b4000009cbe000294be003802be002803be0016
:100b500078009000d1c2b300e00f5200e08f5a003d
:100b6000e00f5b00e08f5b0008003500881090000c
:100b70000118a30002003200b1c2b3000300370025
:100b80000108a3004c00320001c2b30001757800d7
:100b90004700370028609000c2c6b300824f500063
:100ba00006003a00110178006400510080087800c6
:100bb0001000be006011b8001100370012c7b3006a
:100bc000824f500003003200a2c6b300824f500093
:100bd00006003a0011017800680051008008780092
:100be0005001be004000be00050037001180e90042
:100bf00080087800100078008000eb006011b800d9
:100c0000009cbe000294be002862900085c6b3001e
:100c1000854f52000d00320025c6b300854f5200ab
:100c200004003a000080fb008000eb006011b80077
:100c30000800370045c7b300854f5200030032005b
:100c4000e6c24200854f520004003a008000eb00eb
:100c50006011b800009cbe000294be000810900015
:100c60000038a300140032003800be002801be0086
:100c7000e00f5000e08f5800e00f5900e08f59005e
:100c80000d00320080c7b30080cf54000300320053
:100c900080c5b30080cf540007003a007800900070
:100ca00001c3b300017578000000e8000975780001
:100cb0000000e800700498007800900000054500ee
:100cc0006a04980089407800690037002861900024
:100cd000c0c4b300804f510006003a0011017800f3
:100ce00068005100800878005001be004000be003e
:100cf0000500370011017800640051008008780079
:100d00001000be00df050700009cbe000294be007c
:100d1000b8009000780090000100e00002003d0063
:100d2000d1c2b30008003700881090000118a3005a
:100d300002003200b1c2b300030037000108a30073
:100d40000400320001c2b300017578000000e80021
:100d50007004980078009000000545006a0498002f
:100d60008900fb0008007800530007004e003700a0
:100d700028619000c3c6b3001180e900834f510081
:100d8000240032000a003c00e4c15100834f5100ae
:100d90002700320083c1e800834f51001500320064
:100da00020c6b300804f510020003a000a003700ef
:100db00043c7b300834f51001d003200e6c141001c
:100dc000834f51001a00320010c7b300804f51000a
:100dd00016003a00060037001180e900800878000c
:100de00010007800485c9000084878002e0037001a
:100df0001180e9008008780010007800680a9000ef
:100e0000cfa2de00612bb9000498be000690be00a0
:100e100025003700800878001000780068099000ed
:100e2000cf91de000288be001f0037001180e9006c
:100e30008008780010007800680c9000080878009e
:100e4000190037001181e900820878001202780049
:100e5000cfa2de00612bb900049cbe000694be0048
:100e6000f8009000010545006a0498008040780071
:100e700008007800920207000b003700780090000d
:100e800009757800060037007800900000054500dd
:100e90000904e00001003a0059c2b300094d78008e
:100ea0000000e800700498000000eb004f05780097
:100eb0004f04be00000006002f04b000889fbe0053
:100ec0008a9fbe008c9fbe008e1f780000077800ae
:100ed00081f79f003e04be002e05be005e08900014
:100ee0000000e00002003d0060002000500f98006c
:100ef0008e00780020fb2f000f0040004602070004
:100f0000e20f50000a003a0030002000100f980055
:100f1000b1c9b3000ff09700814040008009220062
:100f2000e1cf50000d003e00400922000b003700c9
:100f30000000e0000f00340030002000100f980087
:100f4000b1c9b3000ff1970081404100000a2200af
:100f5000e1cf500001003e00c0092200ee009000e9
:100f6000b0487800b0687800104078009040980051
:100f7000f30037000000e00005003a0022fb2f00dc
:100f80000f014100001978008001eb00e7003700f5
:100f90006022b8006033b8000800be000a01be003d
:100fa000800407000000e00001003d000bf0a200fb
:100fb000705927009f9897000088b900026a28009e
:100fc00013002000db040700640650009c9f9f0074
:100fd00013003b0063061600c0ff2f0000066600ea
:100fe0008c01ea00939f9f004d0a22000800be007a
:100ff0000a01be00070037000c08a30003003200fe
:101000003d02be002d03be00810507000c86d10005
:10101000e88646000c00e000f7ff3c0018003700af
:101020000c00e00018003200c0ff2f000006660030
:101030009c9f9f004d0a22006000b8000200200023
:1010400003ff2300070037000c08a3000300320051
:101050003d02be002d03be006d0507000c86d100c9
:10106000e88646000c00e000f7ff3c000002be00ee
:101070000203be000800be000a01be0053040700c0
:101080000004be000205be00de08900060c6b3008a
:101090000ff29700804f52000400320060002000e1
:1010a00062c4b300824f520002003a009f9a970038
:1010b0006a80420081004000f1b79f000103780080
:1010c000f30f53000200340037012000f7b79f00f0
:1010d00000c3b300c0779f0056fb2f000f034300ef
:1010e0000e007800a0b79f00060778003d0037008b
:1010f0000800be000a01be00010507000006be0090
:101100007fb1970068015100f2b79f004240a900eb
:101110000c003400260507000002be000203be00da
:101120000800be000a01be00ae0507006022b8003c
:1011300046782d0077192400350507000004be000d
:101140000205be00e80047008e0020000802be0035
:101150000a03be00b4b79f00c5b79f00d6b79f0073
:10116000e7b79f000c01be00010478000c003700b7
:10117000a400200005002000c0fd2f000f0040004b
:10118000840107006fa89700ffa897000fb1970090
:101190009fb1970005c3b300056441000001be0084
:1011a000e00f5100e08f5900030034000e07e90002
:1011b000e10f4700eeff3a00880078003fb4970047
:1011c000cfb497005fb59700efb5970002003700e6
:1011d00000c3b300806078000e07e900fcff3b000d
:1011e000688740007fb397000600e00007003400e6
:1011f0006022b8006033b8000800be000a01be00db
:10120000ed0307000000e000b9ff3c000e0378008a
:101210002fb7970051fb2f008f8040000103530030
:101220009f9b970067804300909f9f0002003700bc
:101230000603e9000000e90001017800820078005f
:1012400003c3b300b1cf1100f9ff3200909f9f009c
:10125000de09900061c6b3000ff29700814f520083
:101260000300320061c4b300814f520002003a0013
:101270000000e8000a0037001000200051c6b3004b
:101280008ff2970081cf52000500320005407800b0
:1012900050c4b2000080fb000000e9004f00de00f7
:1012a00083014000868f51000100340086017800e0
:1012b0000300e0001d00350000c3b300868f51001d
:1012c00006003d0062c279006940400041c3b3009e
:1012d000814f520001003c00694050008300e9004a
:1012e0008100410001003700840178000302e90019
:1012f00001037800a142780080cf5200faff32004b
:1013000091c3b300814f500001003a00054be80043
:101310000400e00005003d000201e9008301e8004f
:101320001f9b97000603e800969f9f008ff397008e
:101330008700fb001f9a97000e0078000600070048
:101340004f0778004f06be004f05be004f04be0099
:101350002f04b10000000600f0874700889fbe0000
:101360008a9fbe008c9fbe008e1f7800000478000c
:10137000814478000205be00040678000b00e000fe
:1013800002003c001b002000aa15220060c6b3002a
:1013900080cf54000e00320060c4b30080cf5400f0
:1013a0000b00320070c6b30080cf5400030032003f
:1013b00070c4b30080cf540081003a00e40f4600af
:1013c0007f00350058089000800f56007c003d00db
:1013d0000c06e80060c6b30080cf54001000320055
:1013e00060c4b30080cf54000d003200081090009c
:1013f0000038a30004003a0058089000808f550080
:1014000001003d005b0c9800580890000c00500053
:10141000500c980002003b000000eb00500c9800bc
:1014200018089000e80090000c00e00026003c0046
:1014300002c3b300827078000000e800100c98002e
:10144000d80890000100e00003003c0088109000e4
:101450000138a30005003200e8009000e2c2b300aa
:10146000827078000000e800100c98005808900086
:101470008c00ea00810f500001003d000006ea00e8
:101480008c00ea00210c9800000646005c0c9800d5
:101490008b0f5600010034000b0678003c0c9800be
:1014a000e800900018089000008040000c017800cf
:1014b0008a0078005ffc0700580890000c06500076
:1014c0004c0c9800900037008c8f550018003d00a0
:1014d000008040000b0178008a00780055fc07006e
:1014e0001808900000804500100c98008b055600ed
:1014f0002b0c9800d80890000100e00003003c008d
:10150000881090000138a30006003200e800900027
:10151000e2c2b30082707800380890000000e80052
:10152000300c980058089000400c98007600370066
:10153000008040000c0178008a0078003dfc070024
:101540001808900000004600100c98008c8555008b
:10155000d80890000100e00003003c0088109000d3
:101560000138a30005003200e8009000e2c2b30099
:10157000827078000000e800100c98005808900075
:10158000808f55000100340080057800e80090004d
:1015900018089000008040008c0045000b01780086
:1015a00024fc0700180890000b004000100c980065
:1015b000580890008b0550002b0c98005200370003
:1015c00018089000e80090009a7078000000e80089
:1015d000100c9800d80890000100e00003003c00c7
:1015e000881090000138a30005003200e800900048
:1015f000e2c2b300827078000000e800100c98008e
:10160000580890000000e000100034008b05e9004d
:10161000808f55000100340080057800e8009000bc
:1016200018089000008040008a00e8000b01780054
:1016300000fc0700180890000b004000100c9800f8
:10164000580890008b0550002b0c9800e800900083
:101650001808900000804000095878000007e80052
:101660000c00e00004003500b1c2b300014878006e
:101670008e04780004003700d1c2b300014878001e
:101680008e0478000c06ea007d8557008006eb008a
:1016900009003700a20020008c00780072805700fb
:1016a000310007007fb097008fb89700016d780078
:1016b000000678008d06e8000c00e000f5ff3c0015
:1016c0000d00e00009003a008e04780000c3b3006a
:1016d000805c7800050037008d06e900fc8057002b
:1016e00061c07e0002c3b300825c40000d00e000d8
:1016f000f9ff3c00e80090001808900000804000ce
:1017000080845400390c9800081090007400600028
:10171000f00f50000e003a009808900078009000fa
:1017200000804000a808900001004000b808900028
:1017300001004000c808900001004000f808900037
:10174000810f500002003d0000805000000c980006
:101750004f0778004f06be004f05be004f04be0085
:101760000f01b1000000060080027800010378003c
:10177000110009000203d80080017800830a780074
:101780000299b90002015300920298000500780006
:1017900000000600881f78008a9fbe008c9fbe0054
:1017a000000478000205be000406be000401be006d
:1017b0000a00be00df020700008cbe000c01be0064
:1017c0001d0407000005550081855d002a0498006e
:1017d0003b049800080078004f06be004f05be008d
:1017e0004f04780000000600020037000304e00008
:1017f000060032000001780002007800b041780055
:1018000081cf5100f9ff3a00010037000001eb00e1
:101810000200780000000600889fbe0000047800e7
:10182000e68440001900d0004500de00f27f200071
:10183000820f500010003a00000ceb009904780071
:101840006f816400200020001b003a0021019000fd
:101850000200e00018003a00110190000200e000d0
:1018600015003a00100020001100e00012003200c4
:1018700020002000100037000000e00004003a00c3
:1018800001007800fb0107000000e00008003c00b8
:10189000f20028001901610001fe2300810c710093
:1018a00021c02f00010c40000080eb000200370037
:1018b000000ceb000000eb004f04be00000006002f
:1018c000fc874700889fbe008a9fbe008c9fbe0099
:1018d0008e1f78000006780080c5b30080cf5000ce
:1018e0000a0032007740400080cf50000a003200ea
:1018f0006940400080cf50000b003200d00f220022
:1019000080bf9f00ae0020000a003700c20e2200f8
:1019100082bf9f0006003700d30f220083bf9f00c5
:101920008e00200003003700d40f220084bf9f00e8
:101930000e0120003c02be002c03be000605be00c6
:101940000404be0040c6b30080cf50000300320044
:101950006540400080cf50000b003a00e00f52007d
:10196000e08f5a00e00f5b00e08f5b0006003d0057
:101970006000b8006011b80004045000858458006d
:101980000605590087855900e80f5700040032000a
:1019900040002000f00f570038003a0001003700e7
:1019a00030002000e00f5400e08f5c00e00f5d008d
:1019b000e08f5d0004003a00dc0890008d012000fb
:1019c0000100e000060032008e00e900888060001f
:1019d0008fba9700e5c07800f1ef9f007d012000ed
:1019e000800078008100e900050033008b05d100fc
:1019f0000a85d3008984d3000884d300f9ff370017
:101a0000089ebe000a96be00120037008d06e9004f
:101a10008e00e900848060000fb99700e2c1780071
:101a200082fd2f000f01410003f17e00800078004d
:101a30008100e900050033008783d1000683d300cd
:101a40008582d3000482d300f9ff3700049ebe00d4
:101a50000696be003c02be002c03be00e00f520002
:101a6000e08f5a00e00f5b00e08f5b008b003400da
:101a70000d00e000e5ff3c00880037002c6090007e
:101a800081c6b300814f50000b00320006003c00bd
:101a90000004e00008003200e6c05000814f500012
:101aa0004e003a0004003700c1c6b300814f500019
:101ab0004a003a00210037000800e00004003a0024
:101ac0005c0890008d0120000000e000060032005c
:101ad000110009000e84d8000fb99700e2c0780009
:101ae000f1ef9f007d012000110009000e84d80055
:101af0000a003700110009000e04d8008d06e90025
:101b00000e81b900020454008fb8970061417c0037
:101b100081fd2f008f80400082f07e00000478005d
:101b20000800e000020032000d00e000f1ff3c0080
:101b3000cfc4de00614db90025003700e00f54002e
:101b4000e08f5c0004003a005c0890008d012000ea
:101b50000000e000070032006171b9000800be001b
:101b6000320307008fb99700e3417800f3ef9f003d
:101b70007d0120006171b9000800be001b03070051
:101b80000b0037006171b9000800be00e9010700d1
:101b90008d06e90000f1b900020454000fba970065
:101ba000e4427c0084fd2f000f02420005f27e001b
:101bb0000004be00e00f5000e08f58000200320029
:101bc0000d00e000efff3c004fcdde008a057800fd
:101bd000089ebe000a96be0030003700e00f540099
:101be000e08f5c00e00f5d00e08f5d0004003a00d4
:101bf0005c0890008d0120000000e0000900320028
:101c00006172b900612bb9000800be000a01be0074
:101c1000af0307000fba970064427800f4ef9f000b
:101c20007d0120006172b900612bb9000800be007f
:101c30000a01be009f0307000d0037006172b90062
:101c4000612bb9000800be000a01be00a403070012
:101c50008d06e90000f2b900040454008fba970021
:101c600065427c0085fd2f008f82420084f27e0059
:101c7000009ebe000296be003c04be002c05be00c5
:101c8000e00f5400e08f5c00e00f5d00e08f5d002e
:101c9000020034000d00e000e8ff3c00e80f5700b0
:101ca00010003a000c1090000038a3000d00320024
:101cb000f78f560006003e0085fd2f008f82420000
:101cc000e5c07e0000c3b30080cf500005003200a5
:101cd0008d06e90002c3b30081fd2f008f80400014
:101ce00082f07e0078811600120e98006c00900041
:101cf00083fd2f008f8141008d8041004dfa070048
:101d00001c089000dc089000810f500006003d0088
:101d100000805000000e98000c1090000040a100c0
:101d2000001698000f0037000100e0000d003d0094
:101d30008c109000f4806000f08f500009003a0091
:101d40007c099000fc009000810051000c0990007b
:101d500082805000008050004240a9000100340001
:101d6000000e98004f0778004f06be004f05be00da
:101d70004f04be00cf01b100000006000400fa00cd
:101d8000889fbe008a9fbe008c1f780000047800e8
:101d900001067800f80d90007800900080855500cd
:101da000080890008085550018089000808555002f
:101db00028089000808555003808900080855500df
:101dc00048089000808555000002220090bf9f00c7
:101dd00000032300a0bf9f00081090000028a3006c
:101de00015003a000b00e000130034000b057800ea
:101df0008a047800e20f5500010036002900200017
:101e0000c801900009017800ee805700580090004a
:101e100003000100500498000000e0008c00320034
:101e20006808900009004000600c98000905550002
:101e30004240a900eeff3c00780190000200e00063
:101e40000c003400c80190008c007800580090000d
:101e500003000100500498008080eb000000e000c7
:101e60007c003200e808900078009000008040007c
:101e7000600c9800880c90000900e000110034000c
:101e800009057800e28f5400010036002a00200086
:101e9000c80190000a017800ec80570058009000bb
:101ea00003000100500498000000e00068003200c8
:101eb000680890000a004000600c98008a84540072
:101ec000edff3700180990000200e0000c0034001c
:101ed000c8019000e8009000580090000300010045
:101ee000500498008080eb000000e00059003200b0
:101ef000e80890001808900000804000600c9800ee
:101f0000a80c90000900e0001100340009057800d9
:101f1000e28f5400010036002a002000c801900022
:101f20000a017800ec80570058009000030001007f
:101f3000500498000000e00045003200680890005e
:101f40000a004000600c98008a845400edff3700be
:101f5000380990000200e0000e003400e800900014
:101f60001808900080804000c80190005800900040
:101f700003000100500498008080eb000000e000a6
:101f800034003200e80890003808900000804000db
:101f9000600c9800c80c90000900e00011003400ab
:101fa00009057800e28f5400010036002a00200065
:101fb000c80190000a017800ec805700580090009a
:101fc00003000100500498000000e00020003200ef
:101fd000680890000a004000600c98008a84540051
:101fe000edff3700081090008000eb000028a300f0
:101ff000180032000b00e000160034008b0478005b
:1020000009057800e28f5400010036002a00200004
:10201000c80190000a017800ee8057005800900037
:1020200003000100500498000000e00008003200a6
:10203000680890000a004000600c98008a845400f0
:102040004240a900eeff3c008000eb000100370099
:102050008080eb00010078004f0678004f05be003d
:102060004f04be000080fa0000000600010878005e
:1020700000000600e600400011017800050028007d
:10208000850261006f016100820878000200320061
:102090001200200011003700a00190001200200063
:1020a0000300e0000d003a00900190000300e00002
:1020b0000a003a001000e00008003a00360037003d
:1020c000640340009608780080017800530b780084
:1020d000900978000408780070015100110278001e
:1020e0000400e000f6ff32001300370064024000f5
:1020f000140378004f33de008381410083087300ae
:1021000080017800d3037800cf3bde001403780011
:1021100006034300068a730013027800040242009b
:10212000100378004f33de008609720090017800ba
:10213000038841000201e90091017800ef8f51000e
:10214000eaff360010003700800178005303780062
:102150004f33dd001002d100040873006402400018
:1021600094037800cf3bdd001303d1008689730010
:10217000110378004f33dd009401d100030a73008e
:102180009108d1000201e80091017800ff8f510011
:10219000edff3e00ef886100918872000200780038
:1021a000000006008f1fd100280307008f87e90079
:1021b0000000e00000000600809feb002303070002
:1021c0008f87e9000000e000000006002800fa0008
:1021d000889fbe008a9fbe008c9fbe0003866b0056
:1021e0008f0007006400e100440032006408e10051
:1021f0004a0032006100e100460032006108e1005f
:1022000049003200ec0647006000b8003d02be0005
:102210003d03be00f48657006011b8003d04be00c7
:102220003d05be007d0320000b0037000000a0002c
:102230008d06e900130032000402420085824a0044
:1022400006034b0087834b0000004000818048005c
:1022500002014900838149000802520089825a0024
:102260000a035b008b835b00f0ff3b000802420027
:1022700089824a000a034b008b834b008d06e900dc
:10228000edff3a008482720086827200f707b20086
:102290008782720001003200150020001e049000a9
:1022a0003e0b900006035400e63fb0000368a30015
:1022b000070032000000a7000500a0008301d10044
:1022c0000281d3008180d3000080d3000603e800a0
:1022d0008301d1000281d3008180d3000080d3002c
:1022e0000002eb000482d2002100070003f0a100ed
:1022f0000cf0a70003f0a0005d0037006402470067
:102300006408e100570032003400be003401be0012
:10231000f6ff37006108e100520032006011b8009a
:102320006000b800f1ff370003ff27000200200023
:10233000fbff3700839f68000100e00002003d00c2
:1023400060001000e08018000300e00002003d0083
:1023500060011100e0811900240107004f00e00036
:1023600002003b0060001000e08018000000060042
:102370001800200057002000080453000d003d0005
:102380000600200097fc2f000740e1001e003400eb
:1023900084827200610260008301d1000281d30057
:1023a0008180d3000080d3000804e800f8ff3a00e1
:1023b0004700200061046000050474000404640008
:1023c0000d00320061004000e080480060014900db
:1023d000e081490003b8a500070032000603e800c9
:1023e0006538e10004003a008301d1000281d30086
:1023f0008180d3000080d300f87f20000830e10006
:1024000003003500080378006000b8006011b800d0
:102410004433dd00f300b2008301730000000600c6
:10242000680447000294be000094be00fc0447000c
:102430008694be008494be0009007800cc02070098
:1024400008007800ca02070099007800814f7000e8
:102450000b003b000800be00a50207004f00b100c2
:1024600003003700f3ff2700f2ff2f006110b900cf
:102470004f06be004f05be004f04be000080fa00ac
:1024800000000600810378004c0007000001be0038
:102490006000b8000478a30013003a006220e10055
:1024a00015003e000d0039008301d1000281d300e8
:1024b0008180d3008301d1000281d3008180d300c9
:1024c0008301d1000281d3008180d3000538b000a0
:1024d000c42add00f300b2008381720007f0a70078
:1024e00003f0a00000000600f3ff2700f2ff2f001a
:1024f0006110b900fbff370003ff2700f7ff37002b
:102500001400fa00889fbe008a9fbe008c9fbe0008
:102510000004be000205be00680047000a90be002d
:102520000890be00920207000070a7000bf0a10007
:10253000304320009e02900080825200b0fe2f00a7
:102540000028e10011003d00b0fc2f000028e10050
:10255000150034001e0990008e0890007e00900047
:102560000501b0000201d1008180d3000080d300ba
:102570008502e800fbff3a000b00e000bcff3b00d7
:1025800060001000e0801800b9ff3700f0ff2f0056
:10259000f1ff27000b00e000b5ff3b000100280021
:1025a00000002000b2ff37006000b800b0ff370025
:1025b0004f89de008201780094023700c70ade00ee
:1025c000f107b200f50fb20008003200e1cf42007f
:1025d000020032000170a00024000500810f70008d
:1025e000010032000408050044000500810f70005e
:1025f00002003a00140005008502e90000004000d6
:1026000081c04800fcff3b000170a00024000500d1
:102610002800fa00889fbe008a9fbe008c9fbe00e3
:1026200003866b007eff07000028a30064003a00c9
:102630000128a30067003a000008a30062003a00e6
:102640000108a30065003a001e009000be0890003b
:1026500081064000ed3fb100f4805700ee0190008c
:10266000111ab8008e099000311bb8009e09900025
:10267000311cb800511db800f48557004600070012
:10268000fe0190003a0007008b85e8003e0007003d
:102690008e09900040000700ee0190003400070012
:1026a0008b85e800380007008e0990004000070085
:1026b0009e0990001b18b800890440000a85480054
:1026c000fe019000340007008b85e8003800070009
:1026d000ee019000300007008e0990001b18b80032
:1026e000890440000a8548000a98a30008003a00bf
:1026f0000402420085824a0006034b0087834b0098
:1027000008044c0089844c000a054d008d06e90040
:1027100084827200850273004c3add0085027200eb
:102720000100320015002000443ade001400b2001f
:102730004538de00cb45dd000b007000c540de00f3
:10274000cb4ddd008b8070004549de00cb55dd00b0
:102750000b017100c551de000d03780004ff070076
:1027600003f0a1000cf0a70003f0a00040ff370029
:102770001b18b8008502400006834800e0834b0028
:1027800060044c00070037001b18b8000603400027
:1027900087834800faff37001b18b8008703400002
:1027a00008844800e0844c0060054d0000000600ed
:1027b0001b18b8000804400089844800faff37005d
:1027c0000108a30027ff3a005800be005801be00d0
:1027d000e3ff37000008a30022ff3a000904780055
:1027e000f9ff370007f0a2001b0137006022b80094
:1027f000060220000000d0008180d2000482d200b6
:102800008582d2000000a0000202520083825a009a
:10281000030031000202420083824a000000a1004e
:102820000603e900f3ff3a0000000600efff07008f
:102830000400be0000000600020ab900001bb90037
:102840000200b80081004200810043000000060041
:10285000889fbe008a9fbe0030044200b0844a00b8
:1028600030054b0090854b006000b1000898be0019
:102870000a90be000440e10005c8e10006d0e10076
:1028800007d8e10002003100680040001008e800ad
:102890004f05be004f04be0000000600889fbe002a
:1028a0008a9fbe003004be002005be0004185400fc
:1028b00005985c0006185d0007985d001100200077
:1028c0000440e10005c8e10006d0e10007d8e100be
:1028d000010039008000eb00108810004f05be0099
:1028e0004f04be00000006001200fa00889fbe00e0
:1028f0008a9fbe008c9fbe00e0b79f00f1b79f008b
:1029000082bf9f0093bf9f000605be000404be0067
:102910000000eb00d0b79f00c0b79f00b0b79f008a
:10292000a0b79f0090b79f000006eb005fb1970033
:10293000cfb09700820141003fb097000200e00055
:1029400004003d00370007007e805700c0ff0700ed
:1029500003003700330007007e805700cfff0700d9
:10296000dfb697000d00e0000c0035006fb2970055
:10297000ffb297000fbb97009fbb9700100020008d
:10298000010020006011b800000272008182720014
:1029900002037300838373001b0007000c06e8002a
:1029a00001042000810f5600e0ff3a000d00e00016
:1029b00004003d000802be000a03be007e805700ee
:1029c000a3ff07005fa897000000e00005003a00a1
:1029d0001fb29700afb297003fb39700cfb39700f5
:1029e000090007006fb09700ffb097000fb997007c
:1029f0009fb997004f06be004f05be004f04be00b2
:102a00000080fa0000000600010007000000060038
:102a1000a4b79f00b5b79f00c6b79f00d7b79f0068
:102a2000000006004f09de0082817100b3b79f00ed
:102a30004f01de008180400082807000a1b79f00be
:102a40008fb097004f09de000000400002007000c8
:102a500090b79f007fa897004f01de008180400063
:102a60008280700081b79f000d0007004f3ade00a2
:102a70000000400004007000f0af9f000800070055
:102a80000402420085824a0006034b0087834b0004
:102a9000dfff07000802be000a03be0000000600b8
:102aa0002fb29700bfb297004fb39700dfb39700e4
:102ab00000000600881f780018002000881f78009a
:102ac00089ff07008f87e9004f04780000000600a7
:102ad000801feb0084ff07008f87e90000000600dd
:102ae000889fbe008a9fbe00e00f5000e08f580014
:102af000e00f5900e08f59000c003d006044b80021
:102b00006055b8000000540081805c0002015d0047
:102b100083815d00180020001500070008003d00bb
:102b2000180007000004eb00050037000004eb006c
:102b30000f00070002003d001200070018002000ef
:102b4000dcff07000800e000060032006022b80049
:102b50006033b8000000520081805a0002015b001f
:102b600083815b004f05be004f04be0000000600dd
:102b7000e00f5200e08f5a00e00f5b00e08f5b0037
:102b8000000006006044b8006055b800040254001c
:102b900085825c0006035d0087835d0000000600ff
:102ba000889fbe008a9fbe008c1f7800e00f5000f7
:102bb000e08f5800e00f5900e08f59000d003d00f4
:102bc0006044b8006055b8000000540081805c008b
:102bd00002015d0083815d001c0020000820e100ef
:102be00009a8e1000ab0e1000bb8e1000d003d00ca
:102bf000080037000006eb00e00f5200e08f5a009b
:102c0000e00f5b00e08f5b0006003d006044b80011
:102c10006055b8000402540085825c0006035d0024
:102c200087835d00aaff07000c00e0000600320069
:102c30006022b8006033b8000000520081805a0062
:102c400002015b0083815b004f0678004f05be00e8
:102c50004f04be00000006002800fa00889fbe0056
:102c60008a9fbe008c9fbe00070678008786690099
:102c70000c003b00030478008704780008f0a100f2
:102c800009f0a100840f5000858f5800860f59006d
:102c9000890f5c00030033000cf0a20001003a0031
:102ca0000cf0a100defd07006400e1005f003200cf
:102cb000780147006408e100610032006c014700c0
:102cc000748557003200be001201be003a04be00f7
:102cd0001a05be001e039000be0a90008503530033
:102ce00006003d000004fd008104fd000205fd001a
:102cf0008305fd008703ea00050378000df8a300b3
:102d00000400320060041400e0841c0060051d0013
:102d1000e0851d006022b8007d0320000d38e10031
:102d20008006eb000b0039004433dd00f300b200f5
:102d30008301730039003700848272000d0278002d
:102d4000e10664008b85d1000a85d3008984d30015
:102d50000884d3008703e900f7ff3b000800400028
:102d6000898048000a0149008b81490004003b002a
:102d700060001000e080180060011900e081190077
:102d80000358a300090032008d8272008482720011
:102d9000610260008301d1000281d3008180d300f1
:102da0000080d3000603e8001b0037000348a3009f
:102db00017003a000600e000170034000603e9009f
:102dc0000d00a30000004800818048000201490076
:102dd000838149000348a3000f003a000600e00089
:102de000090034000603e90000004000818048002b
:102df000020149008381490001003a000003eb0011
:102e00000348a300f5ff32006022b800020037003b
:102e1000848272006182660055fd070003f0a10004
:102e20000cf0a70003f0a00091fd370064014700fb
:102e30006408e10002003a000df8a30089fd3a00a1
:102e40003200be001201be0089fd3700889fbe001f
:102e50008a9fbe008c9fbe000404be000605be0013
:102e6000809fbe00829fbe002f00070004067800ee
:102e70000800be000a01be002b000700840678008f
:102e80004f03be004f02be008d4f76007fb097000b
:102e900013003300f0ff2f008b8f6b0006003b0008
:102ea0000d0666000c00a7000a00370007f0a60018
:102eb000100020000a003700880f5200898f5a0046
:102ec0008a0f5b008b8f5b0003003900100020002d
:102ed00001003e000000200007f0a7000000ea000b
:102ee0004f06be004f05be004f04be0000000600a6
:102ef000e48240001078a300070032006402400022
:102f00001178a3003400be001401be00040032009a
:102f10000330a700000006003500be001501be000a
:102f20000330a0000000060005ff270005826100b5
:102f3000070032000428e1000100320024000500ef
:102f40000600070001003a004400050004080500df
:102f500002000700f9ff3a00140005006f826100cb
:102f60008102700085027100850272000000060077
:102f7000800078005002be005003be004439de00dd
:102f8000f700b200f37f2000030161000900320066
:102f90000218e10016003a008501720083017300f7
:102fa000838173000008200015003a0040002000d3
:102fb0001300370085017200830173008381730061
:102fc00005003a0004a8be0006a8be0010002000bc
:102fd0000b0037000201e9000402420085824a002a
:102fe00006034b0087834b000748a300f9ff32001c
:102ff0000740a00004a8be0006a8be0020002000d4
:10300000800098009200980000000600881f780059
:10301000030478000300e00007003d00600010009a
:10302000e080180060011900e081190002003b00f7
:1030300001f02d00030037000400070008f0a7008e
:1030400003f0a0004f04780000000600889fbe0037
:1030500000827000040271000482710024003200ba
:1030600036432000c50020008383cf000a003900ca
:103070000541b1008283cf00070039000541b1004e
:103080008183cf00040039000541b1008083cf0067
:10309000010039000541b10085c353006022b8002a
:1030a000120032000a003b0084827200610260005c
:1030b0008301d1000281d3008180d3000080d3003e
:1030c0000603e8008743e800f7ff3a0007003700ef
:1030d00000004000818048000201490083814900ce
:1030e0000603e9008743e900f9ff3a00a0fc070066
:0830f0004f04be0000000600c1
:020000040000fa
:1030f800256c00006c750000002500002e320000d1
:103108006600000000000000000000000000000051
:10311800005f000000000000000300000003000042
:10312800001400003e1400003e140000242a000091
:103138007f2a000012430000330800006661000087
:103148003649000055220000500000000503000029
:1031580000000000001c00002241000000000000e8
:10316800412200001c000000140800003e08000076
:1031780014080000083e0000080800000050000085
:1031880030000000000800000808000008080000df
:10319800006000006000000000200000100800002f
:1031a800040200003e510000494500003e040000b2
:1031b800027f000000000000426100005149000049
:1031c800462200004149000049360000181400005a
:1031d800127f000010270000454500004539000017
:1031e8003e49000049490000320100000171000019
:1031f800090700003649000049490000362600004a
:1032080049490000493e0000003600003600000031
:1032180000000000563600000000000008140000fe
:1032280022410000001400001414000014140000cf
:1032380000410000221400000802000001510000b3
:10324800090600003e410000595500005e7e00005e
:1032580009090000097e00007f4900004949000073
:10326800363e000041410000412200007f4100003d
:10327800414100003e7f00004949000049410000eb
:103288007f09000009090000013e000041410000db
:10329800493a00007f080000080800007f0000008d
:1032a800417f000041000000304000004040000025
:1032b8003f7f000008140000224100007f4000000a
:1032c80040400000407f0000020c0000027f000028
:1032d8007f020000040800007f3e0000414100001a
:1032e800413e00007f09000009090000061e000099
:1032f80021210000215e00007f090000090900006b
:10330800762600004949000049320000010100000a
:103318007f010000013f000040400000403f0000e6
:103328001f200000402000001f7f00002010000028
:10333800207f0000412200001c22000041070000fd
:1033480008700000080700006151000049450000ae
:10335800430000007f41000000000000020400005c
:103368000810000020040000020100000204000010
:103378004040000040400000400000000102000002
:10338800040000002054000054540000787f00001e
:10339800444400004438000038440000444400001d
:1033a8004438000044440000447f000038540000c2
:1033b8005454000018040000047e000005050000b5
:1033c80008540000545400003c7f0000080400002a
:1033d80004780000004400007d4000000020000048
:1033e800404400003d0000007f1000002844000019
:1033f80000000000417f0000400000007c04000045
:1034080078040000787c00000804000004780000bc
:103418003844000044440000387c000014140000c4
:103428001408000008140000141400007c000000b8
:103438007c080000040400004854000054540000b4
:1034480020040000043f0000444400003c40000009
:10345800402000007c1c000020400000201c0000d0
:103468003c400000304000003c44000028100000b0
:10347800284400000c500000505000003c4400005c
:10348800645400004c44000000080000364100006d
:1034980041000000007f00000000000041410000e2
:1034a80036080000000200000102000004020000cb
:1034b8000000000000000000000000000103000000
:1034c800070f00001f3f00007f00000080c00000c1
:1034d800e0f00000f8fc0000fe0000001111000000
:1034e80022220000333300004444000055550000f8
:1034f80066660000777700008888000099990000c8
:10350800aaaa0000bbbb0000cccc0000dddd000097
:10351800eeee0000cecd0000acab00005461000020
:10352800736b000020310000004300006f7500003d
:103538006e7400003a20000000540000617300001f
:103548006b20000032000000494400004c45000098
:04355800000000006f
:020000040000fa
:10355c0080007800d10190000000eb00620722008f
:10356c00828f510008003a00a1089000c206220088
:10357c00828f50000400320001f0a7008100ea00a5
:10358c000100e9004f00de000000060060408000f2
:10359c001000e00002003a000ea8ef000000060048
:1035ac0060408000300090003000900010009000cf
:1035bc007040880000000600889fbe008a1f7800bb
:1035cc000004780001057800494080000088ec0078
:1035dc000c110700e10f440007003a000a00e0005c
:1035ec0005003200014080008180e8006007220065
:1035fc00e710070012003700090444000040800067
:10360c0018009800890f540005003100014080001b
:10361c00504080008180e800e71007000800370068
:10362c0001408000604080008180e800e2100700cb
:10363c0070408000880f50000100360078408800f0
:10364c004f0578004f04be0000000600d001810039
:10365c00e10f500003003600263d02000000000080
:10366c0000000000b5100700f8ff3700881f780035
:10367c000004eb006a40b900a203220000004100e4
:10368c00b81007000804e800e50f5400f9ff3a00f1
:10369c0000082200b3100700a0082200b110070098
:1036ac00c0062200af10070060072200ad10070013
:1036bc000008220060408800a008220050408800ca
:1036cc004f04780000000600881f78000004780082
:1036dc00201007001428ec000008e20006003a0055
:1036ec0008408800a0408000e10f50000a003a001a
:1036fc00deff0700080037001608e20006003a005b
:10370c0000408000b008900038089000808f500076
:10371c0001003e00084088001a28ec003808900090
:10372c000408e30001003100204088008880e80094
:10373c006a01b900a00322000200400094100700a7
:10374c000c1007001608e200080032000040800050
:10375c00b008900038089000808f500003003100b2
:10376c00263d020000000000000000004f0478001d
:10377c0000000600e4874700889fbe008a9fbe00b9
:10378c008c9fbe008e1f78008004780001047800a6
:10379c000405be000606be00020778000e014700b5
:1037ac004d089000510a2000a6f30700cd099000a7
:1037bc000e07d0000e87e9000e874100fe0e980020
:1037cc000000eb0088007800008146003842780049
:1037dc00245998001104e000030032000000e800b6
:1037ec00e40f5000f7ff3a000040eb00d05e980069
:1037fc00e48f5500010036004b002000bb0e9800f2
:10380c000d80e80083bf9f005e1007006c804600af
:10381c005c100700cd069800e5851500eb069800b6
:10382c009d0e98006000b8008016980091169800c4
:10383c000040eb00c06698000a017800890078000f
:10384c000fb89700840f0700800e78000c00e00082
:10385c00010032000d0e78004f0778004f06be00b5
:10386c004f05be004f04be004f00b1000000060023
:10387c00e4874700889fbe008a9fbe008c9fbe00d5
:10388c008e1f78000005780081047800020678000d
:10389c008305780084067800050778006002200014
:1038ac0091100700000478000080eb0080bf9f009f
:1038bc000800e000070032000c0046008a100700e8
:1038cc00400c98000000e00009003a000800780065
:1038dc00a01007000fb897004f0778004f06be00e6
:1038ec004f05be004f04be004f00b10000000600a3
:1038fc006161b800880378000e0378008d027800af
:10390c000b027800890078000a00780099ff070004
:10391c00080078006cff07001000200080bf9f009b
:10392c00ecff3700889fbe008a1f78008004780067
:10393c0001057800e40f5500010036004a00200014
:10394c00840f07000900e00001003a0009408000e4
:10395c00390890008a0f500030003200800f55005b
:10396c000b0036000004eb0001408000898f5000f2
:10397c000d0032000140800018002000b1089000ba
:10398c00810f5500080031000004eb0006003700e1
:10399c00014080000984680008f0a7000804ea00d0
:1039ac000804e9004f44de00ba0c9800e9009000ce
:1039bc000100e0000200350065051500ea049800de
:1039cc006a00b900a203220000004100d900900057
:1039dc00808f50000c003a000985e8000a0078003e
:1039ec0008100700390890000408e30001003100ba
:1039fc00204088006a00b900a203220000004100a8
:103a0c008a007800e20f07000800e0000300320093
:103a1c00263d02000000000000000000550f0700ca
:103a2c004f0578004f04be0000000600889fbe00c2
:103a3c00000478000800e0001d0032000040800007
:103a4c00880f50001a003200420f0700080078005f
:103a5c00bffe07000000e000140032008884e8007c
:103a6c0009007800e70f0700380890000408e3000d
:103a7c0001003100204088006a00b900a203220036
:103a8c000000410089007800c10f07000040800051
:103a9c00b808900030089000808f50000300390067
:103aac00263d02000000000000000000310f07005e
:103abc004f04be0000000600889fbe008a1f7800dd
:103acc008004780009007800a1fe07000004eb00d8
:103adc000000e0001a0032000208e20014003a0074
:103aec000040800018002000b908900030089000b9
:103afc00808f5000010031000004eb000985e800c4
:103b0c000a007800bf0f0700390890000408e30092
:103b1c0001003100204088006a00b900a203220095
:103b2c00000041008a007800990f0700040037005c
:103b3c00ec804400c0062200950f07000004eb0047
:103b4c00080078004f0578004f04be000000060006
:103b5c00858120000002eb008001eb003207200081
:103b6c0081aa2900c0b2210041ff0700e10f5000db
:103b7c000b003a00f1f12f001202800082806000ed
:103b8c000150a0001102880000000000000000009d
:103b9c000ea8ef00b04088000828ef00d80e0700f0
:103bac0000000600f0f12f004200b6000050a0000b
:103bbc001002880000000000000000001628ef0032
:103bcc00c00e37000228ec0000000600881f7800a9
:103bdc00e00e070048408000e60e07000800780061
:103bec004f047800000006004040800000000600f2
:103bfc00a0408000000006000000e00001003a0038
:103c0c00004080007a00400000000600889fbe0043
:103c1c008a9fbe000208e2003c003a004a40800045
:103c2c000a05e8004a40880006003a00604080001f
:103c3c000a08f8000c08f900504088001028ec0025
:103c4c0052fe07000004eb00704080008a0f500009
:103c5c0026003e0001003700180020006040800064
:103c6c001000e00002003a000ea8ef001f00370021
:103c7c006040800030009000b0049000190090006b
:103c8c00800f55000200310070408800170037008b
:103c9c008985e8000b0078005a0f0700290890006e
:103cac000000e000020032006c804400550f070059
:103cbc00390890000408e30001003100204088001e
:103ccc006a00b900a2032200000041008b007800ba
:103cdc002f0f070000408000b908900030089000ba
:103cec00808f5000dcff3100dcff3700004080008b
:103cfc00300890006a00b900a2032200620078002c
:103d0c00e10f500004003e00040037001228ec00c4
:103d1c000004eb0001003700180020000608e20048
:103d2c000100320018002000080078004f05be008a
:103d3c004f04be0000000600889fbe00850e0700e1
:103d4c000228ed000004eb000208e20032003a0009
:103d5c001408e20018003a002f003700900381008d
:103d6c00300490006c004400260f07008884e800a3
:103d7c0009007800230f0700380890000408e300be
:103d8c0001003100204088006a00b900a203220023
:103d9c000000410089007800fd0e07000040800003
:103dac00b808900030089000808f50000200390055
:103dbc001000200030408800600381000000e0000b
:103dcc00e6ff3a000800e00001003200effd0700ba
:103ddc00984080000800e000080032008bff0700cc
:103dec000000e0000200320010002000304088008b
:103dfc000804e900f9ff3a001228ef000004eb0078
:103e0c000608e20004003200263d0200000000001b
:103e1c000000000018002000560e07000800780073
:103e2c004f04be0000000600881f780000047800d4
:103e3c000800e0000700320062ff07008000eb0082
:103e4c0008007800dcfd0700bbff07000000e00065
:103e5c0003003a00263d02000000000000000000b4
:103e6c004f04780000000600889fbe000004be00ce
:103e7c0054ff070040408000980178008380440084
:103e8c00830f5000050031000001eb00838f5000c0
:103e9c00080031001200200003003700120020003f
:103eac00838f500003003900808f500001003e00ca
:103ebc000001eb00010c78000200e000030032006e
:103ecc00008050008000eb00bbfd07009aff07004c
:103edc000000e00003003a00263d02000000000054
:103eec00000000004f04be00000006000208e200c3
:103efc000300320010002000304088000000060053
:103f0c000628ef00204080006a01b900a1032200be
:103f1c0082804000010037000000e90011017800a8
:103f2c00ea8050000200e000fbff32006a03b90097
:103f3c008680e800a3032200e38078001101900042
:103f4c00868041008228780064024300830142008d
:103f5c00830f510002003a00120190008208780091
:103f6c000683e800a1032200e1007b00b100900071
:103f7c00014088002040880000000600889fbe0099
:103f8c0000047800f30d07000800e00001003a007f
:103f9c00084080008884e80009007800990e07002a
:103fac00280890000000e000020032006c00440081
:103fbc00940e07008900780060072200740e070039
:103fcc00ec0d07001608e20003003200e10d0700bb
:103fdc006efd0700e70d070000408000880f5000c1
:103fec000c003a001608e20004003200263d0200e4
:103ffc00000000000000000006003700b003810044
:10400c001408e30002003a000028ef00010037001a
:10401c00b6ff07004f04be0000000600881f7800a2
:10402c000104780001408000ec804000620e070023
:10403c0011002000080078005ffd07004f04780095
:10404c0000000600881f78000204780002408000ff
:10405c0003002800818071006101980001408000fc
:10406c00ec8040004a0e0700110020000800780088
:10407c0051fd07004f04780000000600889fbe0029
:10408c003000900030049000ec04440009007800eb
:10409c005c0e07000208e2000c003a008884e8007d
:1040ac0009007800570e0700380890000408e30058
:1040bc0001003100204088006a00b900a2032200f0
:1040cc000000410089007800020037008900780068
:1040dc00c00622002e0e0700004080003809900018
:1040ec00b00890000000eb00810f51000200360078
:1040fc0010002000304088004f04be000000060075
:10410c00889fbe00020028000288700030049000d6
:10411c003c0e07008884e80009007800390e07007f
:10412c00380890000408e3000100310020408800aa
:10413c006a00b900a2032200000041008900780047
:10414c00130e07000040800038099000b008900062
:10415c000000eb00810f510002003600100020001f
:10416c00304088004f04be000000060081408000f3
:10417c000108780041408000110098000000060002
:10418c00889fbe008a1f7800000478000105780023
:10419c00700d0700424080001a0078008004eb008c
:1041ac00e10f400010003200814080009801900027
:1041bc00988f50000300320019002000830f51002b
:1041cc00090031008300510019002000808f50003d
:1041dc000500310002815100000d410008007800fb
:1041ec00e2ff07008004eb00620d07000900780075
:1041fc004f0578004f04be000000060010002000a0
:10420c0030408800000006000040800060009000f4
:10421c0001408000024080003209900065011100cd
:10422c00e2009800000006000400fa00889fbe001f
:10423c000004be00470d0700004080009010900065
:10424c0000109000e00f5000e08f58000b003a0077
:10425c000040800011c0b300416098000900e000ec
:10426c00060032001100200009007800d2fc070083
:10427c00263d020000000000000000003d0d07007c
:10428c00340d07000040800090109000001090004a
:10429c00e00f5000e08f58000a0032000800e000e8
:1042ac0003003200024080006022b8000300370097
:1042bc000240800061025000e08258000411980016
:1042cc0015119800024080008041eb00436198007a
:1042dc00c0bf9f00d1bf9f00260d07004fb89700ad
:1042ec00dfb897004f04be000080fa000000060003
:1042fc000800fa00889fbe000404be00a0bf9f0007
:10430c00b1bf9f00c2bf9f00d3bf9f00110d07001c
:10431c0004408000446290002fb89700bfb897000b
:10432c004fb99700dfb99700e24f52001a003200e4
:10433c000640800006129000961290000080ea0061
:10434c008180ea00800362000182620084027800ae
:10435c0007027800041398001513980000408000a1
:10436c0011c0b300416098000900e0000a0032005f
:10437c001100200009007800c2bf9f00d3bf9f002e
:10438c008dfc0700263d020000000000000000002c
:10439c00dfb997004fb99700c2bf9f00d3bf9f00f2
:1043ac00f40c0700eb0c07004fb99700dfb997002e
:1043bc000800e00004003200004080000012900071
:1043cc0090129000048cbe00004080004060900071
:1043dc000004eb00e14f50000c0032000440800060
:1043ec0004109000941090000281ea008381ea008e
:1043fc008202600003816000820178000501780070
:10440c00021298001312980018002000004080003f
:10441c008040eb0041609800d60c07000800780043
:10442c004f04be000080fa00000006000400fa00f1
:10443c00889fbe008a1f78000004be000405780027
:10444c00b2bf9f00c3bf9f00c20c07003fb99700cb
:10445c00cfb997000a00e00003003200081090006a
:10446c0098109000008dbe004860900021c0b300f1
:10447c0041649800e28f54000e00320003003e00ad
:10448c00e18f540015003a0005003700e38f54000b
:10449c0010003200e48f540010003a000a0037007c
:1044ac00081290009812900004017100858171002f
:1044bc00080037000811900098119000610141002c
:1044cc00e0814900030037008004eb00e24f50000c
:1044dc001a003200021498001314980019002000de
:1044ec00e14f500015003a008884e800090078007c
:1044fc00440d0700380890000408e3000100310067
:10450c00204088006a00b900a2032200000041008c
:10451c00890078001e0d070000408000b80890004c
:10452c003008900019002000808f500003003600e6
:10453c00263d020000000000000000008d0c07006a
:10454c00090078004f0578004f04be000080fa0087
:10455c0000000600889fbe008a1f780000047800c7
:10456c00850478000400e00003003200081390007a
:10457c0098139000068abe004862900020c0b300d9
:10458c0040649800e28f50000e00320003003e00a1
:10459c00e18f500017003a0005003700e38f500000
:1045ac0012003200e48f500012003a000c00370069
:1045bc00081090009810900000017100818171002a
:1045cc000a0037000810900098109000610040001d
:1045dc00e080480000149800111498000500370082
:1045ec000000eb00e24f5200210032000214980050
:1045fc001314980010002000e14f52001c003a00e8
:10460c000208e2000c003a000885e8000a00780075
:10461c00fc0c0700380890000408e300010031008e
:10462c00204088006a00b900a2032200000041006b
:10463c008a00780002003700ec004400c00622001b
:10464c00d30c07000040800038099000b00890009f
:10465c0010002000810f5100050036000900e00019
:10466c0002003200800c78000100370030408800d6
:10467c004f0578004f04be0000000600889fbe0066
:10468c008a1f78000004be004860900021c0b3006f
:10469c00416498000811900098119000610141004c
:1046ac00e08149000214980013149800e14f500067
:1046bc001c003a000208e2000c003a000885e800f1
:1046cc000a007800cf0c0700380890000408e300bb
:1046dc0001003100204088006a00b900a2032200ca
:1046ec00000041008a00780002003700ec00440012
:1046fc00c0062200a60c070000408000b8089000fd
:10470c0030089000808f500006003600100020000a
:10471c000900e00002003200800c78000100370034
:10472c00304088004f0578004f04be0000000600a2
:10473c00889fbe000000e00002003a0009408000a3
:10474c000100370080047800020c070049609000db
:10475c000004eb00e24f500002003a00c8649800dd
:10476c0018002000030c0700080078004f04be005e
:10477c0000000600004178008000eb0080c7b30009
:10478c0075063700e0cab300faff070050cdb3003e
:10479c00f8ff070000c8b300f6ff070080cab3009b
:1047ac00f4ff0700f0c3b300f2ff070030cdb300f5
:1047bc00f0ff07000040eb00eeff070000c4b30061
:1047cc00ecff0700d0c8b300eaff0700f0cab30043
:1047dc00e8ff070000c2b300e6ff07000040eb0053
:1047ec00e4ff070010cab300e2ff070080ccb3005f
:1047fc00e0ff0700a0cdb300deff070020c1b3002f
:10480c00dcff070010c8b300daff0700f0c8b300e4
:10481c00d8ff070090cdb300d6ff070010cfb30030
:10482c00d4ff0700b0cdb300d2ff070000c4b30023
:10483c00d0ff070040cab300ceff070060cab30028
:10484c00ccff0700f0cab300caff3700f307200003
:10485c00830f50002b003e000100e00029003500c2
:10486c00f3032000838f500026003c00e10f510021
:10487c00040032000d003900e20f510021003a0013
:10488c0016003700c389de00c719dd000080410027
:10489c00a3c32100e78060000111dd00e340780034
:1048ac0002c1700082717800000006004389de00ae
:1048bc004711dd0000004100a2c32100e780600029
:1048cc00130020008118dd0081c0ea00e24178006d
:1048dc0081c0610001717800000006004389de0090
:1048ec004711dd0000004100a2c32100e7806000f9
:1048fc00130020008118dd00e241780081c06900be
:10490c000171780000000600889fbe0010c2b30041
:10491c0098ff07000040eb0096ff0700f0c7b300bc
:10492c0094ff070020c2b30092ff07000040eb0089
:10493c0090ff070070c0b3008eff07000004eb006f
:10494c00e0050700e002a800e002ab00feff3a0021
:10495c008620a90080c7b300f205070000c4b3008d
:10496c00f00507000908200088844400a0c321003a
:10497c0060407c00eb0507000804e800890f540038
:10498c00faff3a00e042a800e042ab00feff3a001a
:10499c008620a90000402000808f5400e8ff3a00d8
:1049ac004f04be0000000600a0c32100ff03090055
:1049bc000058eb0000000600fa874700889fbe00f5
:1049cc008a9fbe008c9fbe008e1f78000004be0024
:1049dc00a2b79f0003057800a4e79f006550b900bb
:1049ec0000017800c2b79f006750b90080027800c0
:1049fc000500e800b0b79f008041eb000902780089
:104a0c007900370021c5b300814f500004003c00f1
:104a1c000000fb006500b900627e2900130037001e
:104a2c00f1c7b300814f500017003200f1c9b30039
:104a3c00814040000000fb00f9cf500009003e000f
:104a4c006500b900127e290000004100a2fd2f0074
:104a5c000281470004000900305978005000b10071
:104a6c000e0037006500b900627e2900000041008d
:104a7c00a1fd2f008180470004000900b058780088
:104a8c005000b10005003700a2fd2f000281470045
:104a9c006088290004000900305978004fb1970054
:104aac0082004400f0072000808f50000300340087
:104abc003fb09700000242000004eb00880678002b
:104acc008005eb0041003700a1fd2f008f804000d6
:104adc0061c07d000080fb000780de000008a300a1
:104aec00320032000ab8b900800342000046eb00e5
:104afc008bb79f0089457800050378008704780000
:104b0c00840278000802780003447800160037000d
:104b1c00afe097000101fb000d0040008800780019
:104b2c00e3b79f00f4b79f0085bf9f00d6b79f00e7
:104b3c0046ff07000e47e8005fb397008fba970057
:104b4c007fb29700efb197000e80fb008a0f5000e8
:104b5c00efff35000b4478008c457800094678004f
:104b6c00830478000c46e8008c83fb008a8f53008a
:104b7c0008003d00898343000047eb008901780061
:104b8c008c4478000b467800884578000704780040
:104b9c00edff3700884178008b4478008fb5970083
:104bac000404780005027800860278008944e80045
:104bbc008983fb00858f5300c3ff35008a8646002e
:104bcc008b05e800e58f5500020032008044eb00b5
:104bdc00f7ff37008341e8008a00e8004250dd000f
:104bec0000804000000444000380fb002fb19700bc
:104bfc00624078000004e00082ff3a004f07780022
:104c0c004f06be004f05be004f04be00af01b10001
:104c1c0000000600e8874700889fbe008a9fbe0000
:104c2c008c9fbe008e1f7800c4ef9f000087fb0096
:104c3c000284fb000e04540008f0a7000804ea00ec
:104c4c008184fb008386fb00898656000df0a7004b
:104c5c008d06ea008085eb00824f500001003e007b
:104c6c001b0020000085eb0083cf500001003e00ac
:104c7c001a0020008d0f54001a0035008d8146005b
:104c8c000886510008825600040242000e87450037
:104c9c008006eb004fe897000001fb000b0057006b
:104cac0089007800f3b79f0084bf9f00e7fe0700e0
:104cbc00ffb197000fba97000c00e00002003d0016
:104ccc000306460002003700040646008a844400ae
:104cdc008d06e8000b074700888f5600edff340067
:104cec0019003700880144000d8651000d02540054
:104cfc0004024200890445000004eb004fe89700d1
:104d0c000001fb008a8054000e007800f3b79f006e
:104d1c0084bf9f00cdfe0700ffb197000fba97002c
:104d2c000c00e00002003d000306460002003700c4
:104d3c00040646000b0747000804e8008a84440078
:104d4c008d0f5400edff34004f0778004f06be0066
:104d5c004f05be004f04be008f00b10000000600de
:104d6c00f0874700889fbe008a9fbe008c9fbe00c4
:104d7c008e1f78000006780081057800c3e79f003d
:104d8c0004457800e1061100820478000004eb0071
:104d9c004fe097000004e0002d003200084378003b
:104dac008c434400ebe79f00894278008bc14400a0
:104dbc0008405600d0e79f000a427800074178006f
:104dcc0083407800d5b79f00f6b79f0087bf9f0040
:104ddc0090ff0700dfb297006fe09700854150000d
:104dec000a4278008fbb9700074178008340780017
:104dfc005fe0970087ff0700dfb297008cc342008b
:104e0c007fb397006fe09700804143000547560041
:104e1c000a42780007417800834078000e40780001
:104e2c0087bf9f007bff07007fb397006fe0970061
:104e3c00864150000a4278008fbb970007417800ea
:104e4c00834078000e40780072ff07003000370076
:104e5c000a07fb000b8244008c0344000e0178000f
:104e6c008400780007007800c4b79f0087bf9f00bc
:104e7c0076fe07008b0144008c8244000e01780002
:104e8c008300780005007800e3b79f00d5b79f003a
:104e9c006efe070008005600b0b79f000e017800a8
:104eac00cfb0970069fe0700090356000e01780089
:104ebc00efb0970006007800f6b79f0063fe07007e
:104ecc00888155000e017800830078005fb0970050
:104edc00e3b79f005dfe0700098255000e017800c4
:104eec00840078000fb89700c4b79f0057fe0700e6
:104efc000e017800cfb097003fb0970053fe07002b
:104f0c000e017800efb097007fb097004ffe0700be
:104f1c008800e8000d00e00004003d00e386460038
:104f2c00080044008086460005003700e5864600f0
:104f3c000900540000004000808646008904e90006
:104f4c000804e800898f500091ff34004f07780067
:104f5c004f06be004f05be004f04be000f01b1004e
:104f6c0000000600889fbe008a9fbe008c9fbe007a
:104f7c00004578000144780082457800834478002d
:104f8c00054678000404e00011003200894f5400fb
:104f9c0002003100894678000a0037008846780004
:104fac0009447800070037000c42780088417800eb
:104fbc000b417800884078000a40780015ff070004
:104fcc000844e8008d4f5400f7ff360018003700f6
:104fdc000c427800884178000b41780088407800ba
:104fec000a4078000bff07000c42780089417800da
:104ffc000b417800894078000a40780005ff0700d3
:10500c000c427800894178000a4178008840780089
:10501c0002407800fffe07000c42780089417800be
:10502c000b4178008840780002407800f9fe0700b8
:10503c004f06be004f05be004f04be000000060028
:10504c00889fbe008a1f7800004478008144780055
:10505c0004057800054278000504e0000a003a00d7
:10506c0015c0b3008940780008407800bdff0700e8
:10507c008980fb00e88040000880fb006500400050
:10508c0014c0b3000a003700e1cf52000b003a0005
:10509c008940780008407800b2ff07008980fb0047
:1050ac00e88040000880fb00650040000042eb00f7
:1050bc00130020000a0178003ffe07004f0578001e
:1050cc004f04be00000006003200fa00889fbe00ac
:1050dc008a1f7800004478008144780002457800eb
:1050ec00849fbe00869fbe00c0872900801f780069
:1050fc00e0fb2f000f00400060ed07008980fb00f3
:10510c000880fb0014c0b3008a81fb00e2fb2f0077
:10511c000f01410028fe0700ea8757004f05780071
:10512c004f04be000080fa00000006001400fa00d4
:10513c00889fbe008a1f7800004478008144780064
:10514c0004457800829fbe0010882900801f7800db
:10515c0000fe2f000f00400048ed07008980fb0087
:10516c000880fb0014c0b3008a81fb0002fe2f00f4
:10517c000f01410010fe0700e68757004f0578002d
:10518c004f04be000080fa00000006000004e0009e
:10519c000200320070cab3000100370060cab300cd
:1051ac0074fd3700889fbe0000447800814478006d
:1051bc0060c2b3006ffd07000040eb006dfd0700ff
:1051cc00084078006bfd07000040eb0069fd07000c
