:020000040000fa
:080000000002040000000000f2
:020000040000fa
:040008000c030000e5
:020000040000fa
:04000c00320a0000b4
:020000040000fa
:04001000440a00009e
:020000040000fa
:040014003a0a0000a4
:020000040000fa
:040018004c0a00008e
:020000040000fa
:04001c000c030000d1
:020000040000fa
:040020000c030000cd
:020000040000fa
:040024000c030000c9
:020000040000fa
:040028000c030000c5
:020000040000fa
:04002c000c030000c1
:020000040000fa
:040030000c030000bd
:020000040000fa
:040034000c030000b9
:020000040000fa
:040038000c030000b5
:020000040000fa
:04003c000c030000b1
:020000040000fa
:040040000c030000ad
:020000040000fa
:040044000c030000a9
:020000040000fa
:040048000c030000a5
:020000040000fa
:04004c000c030000a1
:020000040000fa
:040050000c0300009d
:020000040000fa
:040054000c03000099
:020000040000fa
:040058000c03000095
:020000040000fa
:04005c000c03000091
:020000040000fa
:040060000c0300008d
:020000040000fa
:040064000c03000089
:020000040000fa
:040068000c03000085
:020000040000fa
:04006c000c03000081
:020000040000fa
:040070000c0300007d
:020000040000fa
:040074000c03000079
:020000040000fa
:040078000c03000075
:020000040000fa
:04007c000c03000071
:020000040000fa
:040080000c0300006d
:020000040000fa
:040084000c03000069
:020000040000fa
:040088000c03000065
:020000040000fa
:04008c000c03000061
:020000040000fa
:040090000c0300005d
:020000040000fa
:040094000c03000059
:020000040000fa
:040098000c03000055
:020000040000fa
:04009c000c03000051
:020000040000fa
:0400a0000c0300004d
:020000040000fa
:0400a4000c03000049
:020000040000fa
:0400a8000c03000045
:020000040000fa
:0400ac000c03000041
:020000040000fa
:0400b0000c0300003d
:020000040000fa
:0400b4000c03000039
:020000040000fa
:0400b8000c03000035
:020000040000fa
:0400bc000c03000031
:020000040000fa
:0400c0000c0300002d
:020000040000fa
:0400c4000c03000029
:020000040000fa
:0400c8000c03000025
:020000040000fa
:0400cc000c03000021
:020000040000fa
:0400d0000c0300001d
:020000040000fa
:0400d4000c03000019
:020000040000fa
:0400d8000c03000015
:020000040000fa
:0400dc000c03000011
:020000040000fa
:0400e0000c0300000d
:020000040000fa
:0400e4000c03000009
:020000040000fa
:0400e8000c03000005
:020000040000fa
:0400ec000c03000001
:020000040000fa
:0400f0000c030000fd
:020000040000fa
:0400f4000c030000f9
:020000040000fa
:0400f8000c030000f5
:020000040000fa
:0400fc000c030000f1
:020000040000fa
:040100000c030000ec
:020000040000fa
:040104000c030000e8
:020000040000fa
:040108000c030000e4
:020000040000fa
:04010c000c030000e0
:020000040000fa
:040110000c030000dc
:020000040000fa
:040114000c030000d8
:020000040000fa
:040118000c030000d4
:020000040000fa
:04011c000c030000d0
:020000040000fa
:040120000c030000cc
:020000040000fa
:040124000c030000c8
:020000040000fa
:040128000c030000c4
:020000040000fa
:04012c000c030000c0
:020000040000fa
:040130000c030000bc
:020000040000fa
:040134000c030000b8
:020000040000fa
:040138000c030000b4
:020000040000fa
:04013c000c030000b0
:020000040000fa
:040140000c030000ac
:020000040000fa
:040144000c030000a8
:020000040000fa
:040148000c030000a4
:020000040000fa
:04014c000c030000a0
:020000040000fa
:040150000c0300009c
:020000040000fa
:040154000c03000098
:020000040000fa
:040158000c03000094
:020000040000fa
:04015c000c03000090
:020000040000fa
:040160000c0300008c
:020000040000fa
:040164000c03000088
:020000040000fa
:040168000c03000084
:020000040000fa
:04016c000c03000080
:020000040000fa
:040170000c0300007c
:020000040000fa
:040174000c03000078
:020000040000fa
:040178000c03000074
:020000040000fa
:04017c000c03000070
:020000040000fa
:040180000c0300006c
:020000040000fa
:040184000c03000068
:020000040000fa
:040188000c03000064
:020000040000fa
:04018c000c03000060
:020000040000fa
:040190000c0300005c
:020000040000fa
:040194000c03000058
:020000040000fa
:040198000c03000054
:020000040000fa
:04019c000c03000050
:020000040000fa
:0401a0000c0300004c
:020000040000fa
:0401a4000c03000048
:020000040000fa
:0401a8000c03000044
:020000040000fa
:0401ac000c03000040
:020000040000fa
:0401b0000c0300003c
:020000040000fa
:0401b4000c03000038
:020000040000fa
:0401b8000c03000034
:020000040000fa
:0401bc000c03000030
:020000040000fa
:0401c0000c0300002c
:020000040000fa
:0401c4000c03000028
:020000040000fa
:0401c8000c03000024
:020000040000fa
:0401cc000c03000020
:020000040000fa
:0401d0000c0300001c
:020000040000fa
:0401d4000c03000018
:020000040000fa
:0401d8000c03000014
:020000040000fa
:0401dc000c03000010
:020000040000fa
:0401e0000c0300000c
:020000040000fa
:0401e4000c03000008
:020000040000fa
:0401e8000c03000004
:020000040000fa
:0401ec000c03000000
:020000040000fa
:0401f0000c030000fc
:020000040000fa
:0401f4000c030000f8
:020000040000fa
:0401f8000c030000f4
:020000040000fa
:0401fc000c030000f0
:020000040000fa
:040208000c030000e3
:020000040000fa
:04020c000c030000df
:020000040000fa
:040210000c030000db
:020000040000fa
:040214000c030000d7
:020000040000fa
:040218000c030000d3
:020000040000fa
:04021c000c030000cf
:020000040000fa
:040220000c030000cb
:020000040000fa
:040224000c030000c7
:020000040000fa
:040228000c030000c3
:020000040000fa
:04022c000c030000bf
:020000040000fa
:040230000c030000bb
:020000040000fa
:040234000c030000b7
:020000040000fa
:040238000c030000b3
:020000040000fa
:04023c000c030000af
:020000040000fa
:040240000c030000ab
:020000040000fa
:040244000c030000a7
:020000040000fa
:040248000c030000a3
:020000040000fa
:04024c000c0300009f
:020000040000fa
:040250000c0300009b
:020000040000fa
:040254000c03000097
:020000040000fa
:040258000c03000093
:020000040000fa
:04025c000c0300008f
:020000040000fa
:040260000c0300008b
:020000040000fa
:040264000c03000087
:020000040000fa
:040268000c03000083
:020000040000fa
:04026c000c0300007f
:020000040000fa
:040270000c0300007b
:020000040000fa
:040274000c03000077
:020000040000fa
:040278000c03000073
:020000040000fa
:04027c000c0300006f
:020000040000fa
:040280000c0300006b
:020000040000fa
:040284000c03000067
:020000040000fa
:040288000c03000063
:020000040000fa
:04028c000c0300005f
:020000040000fa
:040290000c0300005b
:020000040000fa
:040294000c03000057
:020000040000fa
:040298000c03000053
:020000040000fa
:04029c000c0300004f
:020000040000fa
:0402a0000c0300004b
:020000040000fa
:0402a4000c03000047
:020000040000fa
:0402a8000c03000043
:020000040000fa
:0402ac000c0300003f
:020000040000fa
:0402b0000c0300003b
:020000040000fa
:0402b4000c03000037
:020000040000fa
:0402b8000c03000033
:020000040000fa
:0402bc000c0300002f
:020000040000fa
:0402c0000c0300002b
:020000040000fa
:0402c4000c03000027
:020000040000fa
:0402c8000c03000023
:020000040000fa
:0402cc000c0300001f
:020000040000fa
:0402d0000c0300001b
:020000040000fa
:0402d4000c03000017
:020000040000fa
:0402d8000c03000013
:020000040000fa
:0402dc000c0300000f
:020000040000fa
:0402e0000c0300000b
:020000040000fa
:0402e4000c03000007
:020000040000fa
:0402e8000c03000003
:020000040000fa
:0402ec000c030000ff
:020000040000fa
:0402f0000c030000fb
:020000040000fa
:0402f4000c030000f7
:020000040000fa
:0402f8000c030000f3
:020000040000fa
:0402fc000c030000ef
:020000040000fa
:040300000c030000ea
:020000040000fa
:040304000c030000e6
:020000040000fa
:040308000c030000e2
:020000040000fa
:04030c000c030000de
:020000040000fa
:040310000c030000da
:020000040000fa
:040314000c030000d6
:020000040000fa
:040318000c030000d2
:020000040000fa
:04031c000c030000ce
:020000040000fa
:040320000c030000ca
:020000040000fa
:040324000c030000c6
:020000040000fa
:040328000c030000c2
:020000040000fa
:04032c000c030000be
:020000040000fa
:040330000c030000ba
:020000040000fa
:040334000c030000b6
:020000040000fa
:040338000c030000b2
:020000040000fa
:04033c000c030000ae
:020000040000fa
:040340000c030000aa
:020000040000fa
:040344000c030000a6
:020000040000fa
:040348000c030000a2
:020000040000fa
:04034c000c0300009e
:020000040000fa
:040350000c0300009a
:020000040000fa
:040354000c03000096
:020000040000fa
:040358000c03000092
:020000040000fa
:04035c000c0300008e
:020000040000fa
:040360000c0300008a
:020000040000fa
:040364000c03000086
:020000040000fa
:040368000c03000082
:020000040000fa
:04036c000c0300007e
:020000040000fa
:040370000c0300007a
:020000040000fa
:040374000c03000076
:020000040000fa
:040378000c03000072
:020000040000fa
:04037c000c0300006e
:020000040000fa
:040380000c0300006a
:020000040000fa
:040384000c03000066
:020000040000fa
:040388000c03000062
:020000040000fa
:04038c000c0300005e
:020000040000fa
:040390000c0300005a
:020000040000fa
:040394000c03000056
:020000040000fa
:040398000c03000052
:020000040000fa
:04039c000c0300004e
:020000040000fa
:0403a0000c0300004a
:020000040000fa
:0403a4000c03000046
:020000040000fa
:0403a8000c03000042
:020000040000fa
:0403ac000c0300003e
:020000040000fa
:0403b0000c0300003a
:020000040000fa
:0403b4000c03000036
:020000040000fa
:0403b8000c03000032
:020000040000fa
:0403bc000c0300002e
:020000040000fa
:0403c0000c0300002a
:020000040000fa
:0403c4000c03000026
:020000040000fa
:0403c8000c03000022
:020000040000fa
:0403cc000c0300001e
:020000040000fa
:0403d0000c0300001a
:020000040000fa
:0403d4000c03000016
:020000040000fa
:0403d8000c03000012
:020000040000fa
:0403dc000c0300000e
:020000040000fa
:0403e0000c0300000a
:020000040000fa
:0403e4000c03000006
:020000040000fa
:0403e8000c03000002
:020000040000fa
:0403ec000c030000fe
:020000040000fa
:0403f0000c030000fa
:020000040000fa
:0403f4000c030000f6
:020000040000fa
:0403f8000c030000f2
:020000040000fa
:0403fc000c030000ee
:020000040000fa
:100400006f8b20000e7f22000e018800000000008c
:10041000000020000000e000020032000001200087
:100420002002880014000700d10007000000e0004f
:1004300003003a002086200001002000020037005f
:100440000000200001002000810f70000100320038
:1004500014000700000020000000e000020032004d
:100460000000020000000000be09020000000000c1
:100470000040da000000fe004440a9000002200015
:100480000000e000030032000020200090018800fe
:100490004440a800000006008a1f78008b1f7800e7
:1004a00000000600a1028800800478000000eb0034
:1004b0001f003700e284440054a0b4009905ba003c
:1004c000e284440054a0b4009906ba00e2844400d7
:1004d00054a0b4000006eb00476fde00fd07b20039
:1004e000ae018800636ce10003003a00eaff0700f8
:1004f0000000eb000e003700606ce10008003a00dd
:10050000004deb000a05e800020039003420ec0041
:100510000af0a0008b05e900f9ff3e000400370057
:100520006168e100010032000086eb000b0007006b
:1005300019c7ba001905ba000e04e00003003a001a
:100540000a00e000dbff3a0000000600fe07b200f0
:10055000ae0288008a047800f5ff37000cd0a300b3
:10056000e20f4d001c00390089027800354dba00b9
:100570000a05e800020039003420ec000af0a0006f
:100580008b05e9000f003200254dba000a05e8008e
:10059000020039003420ec000af0a0008b05e900cd
:1005a000080032000c00e0000600320015cdba0051
:1005b0000a05e800020039003420ec000af0a0002f
:1005c0008b05e9008984e80054a0b4000b00e0002a
:1005d000e2ff3a00000006009902ba00055d7800cb
:1005e0008b05e900f7ff3200c82ade00055d7800c0
:1005f0008b05e900f3ff32000c00e000f1ff320050
:1006000019ddba00eeff37002e06040000000000de
:1006100000000400000000000040da000000fe00be
:100620000a00fa0011002000b1bf9f00c0bf9f0068
:100630006a8057008f0207004fb897000080fa00c9
:10064000000006000a00fa0051002000b1bf9f0020
:10065000c0bf9f006a805700880207005fb89700fc
:100660000080fa0000000600889fbe008004780029
:10067000a04580000000e00004003a000e000700e2
:100680000084eb000000e00008003500a845800071
:100690000900e000050032000900440006000700e0
:1006a0000000e00001003d000084eb00080078003d
:1006b0004f04be0000000600800078000100e0004a
:1006c00003003a0000002000a0458800000005005b
:1006d0000080eb0002002000828f500002003e00ec
:1006e000a14588000000eb00000006000800fa00a9
:1006f00010079800210798003207980000000000ba
:100700001128800000102000008060000000e00040
:10071000fbff3200be009000010f78000e00370092
:100720000000000011288000001020000080600000
:100730000000e000fbff32002e0090001040780027
:100740000000fb00202888002e0090000000e80038
:10075000200798001e0fe9001e0078000000e0004e
:10076000efff3a003e0090000080fa000000060013
:1007700000000500a18220002f0007008000780003
:100780000080eb000100e00004003500a1822000a1
:10079000a0002000020007004f80de0000000600dd
:1007a000889fbe008a1f78000004be00c900900028
:1007b00069009000808f5000050039000900780022
:1007c000910007008080eb000000e000160035007b
:1007d000084578004900900008587800c004980047
:1007e0001900780000b8a30004003a0000a8a30094
:1007f00007003200ea4f540005003a000900780073
:10080000210107008080eb000000e00006003a00b4
:1008100000c0200019006000020032004900900072
:10082000e00498008a80fb00010078004f05780002
:100830004f04be0000000600889fbe008a9fbe00d5
:100840008c1f780080047800010478002f003700a6
:10085000c800900068009000808f500004003900ac
:1008600008007800680007000000e0003a0035004a
:1008700000402000180060000a003200a1002000a3
:100880000900780050000700000678000c00e00026
:1008900004003200618514000a054600cfd5de0051
:1008a00004003700090078003b0007000005be0087
:1008b0000006eb0048009000680190000001510024
:1008c000cf91de008a0f51008b8f5900020031005a
:1008d0000205be000006eb000a01be008900780098
:1008e00022000700480090000a00400040049800e1
:1008f0000c00e0000400320008007800e20007006d
:100900000000e00014003a008a8444001904e0006a
:10091000cfff3a000080200018006000060032007f
:1009200008007800d8000700800078000080eb0005
:100930000100e00009003a0001c02000988060003a
:100940000000eb00050032004800900060049800b1
:100950000000eb00010037000080eb004f0678003c
:100960004f05be004f04be00000006000202be009c
:100970008001eb000400370061f079006102520051
:10098000e0825a008301e800e00f5200e08f5a0035
:10099000f9ff3a0000000600800078000000eb003c
:1009a000610ab8006101b800040341000000e800da
:1009b000644179000204e000f9ff3a0001005300ad
:1009c000cf80de0000000600889fbe006011b800e6
:1009d0006103b8006112b8000404430085844b0031
:1009e00066427a00814f520001003a008801780087
:1009f0000201e8000404e000f5ff3a00030078007b
:100a00004f04be0000000600889fbe008a1f7800c9
:100a100000047800c8009000680190000000eb001e
:100a2000828f50003d003900180078002200290014
:100a300002016000e20f5100070032000120240093
:100a40000000e00001003d0001202000008c70004b
:100a50000080eb0031003700020026000200600039
:100a6000820f500009003a0038009000808f50003b
:100a70000600390008007800830007008000780035
:100a80000080eb000100e00024003a001805780027
:100a900000c020000000650019003a00a804900082
:100aa0006002200008004000808f540014003a00cb
:100ab00000202000010020002b01070020049800e6
:100ac0000000e00005003a0029049800490498005d
:100ad0008904e80039049800080037000a60a00083
:100ae0000a0c78004004980001202000808040001b
:100af00031049800400c9800500c98000c0007003e
:100b0000280090005004980038009000600498007d
:100b100000002600180c70000000eb004f05780064
:100b20004f04be0000000600e06220009100370084
:100b3000881f7800288b20001804e00003003a008a
:100b4000f9ff070020c0b300004c78004f04780084
:100b500000000600889fbe000004780008007800ae
:100b6000490007008004780000042000180060009d
:100b700002003200280090008a0007000000eb000d
:100b800020049800384090000004e0000500350083
:100b90000000fb00a2fe07000000e00001003200a0
:100ba0008084eb00181090000000e0000800320084
:100bb000a4fe07000000e000010032008084eb008a
:100bc00018109000770007000000eb001014980048
:100bd00000082000180060000f003200818720000c
:100be0000000eb00d10f140005003a0000004000a7
:100bf000a1872000008040000008eb0003003700c0
:100c00000000e800e80f5000f6ff3a000800780006
:100c1000640007000e003700000c780000c0eb00f5
:100c20003044980060022000080040002004980032
:100c30004004980050049800400c9800600498000c
:100c4000500c98007004980076004400000c980046
:100c5000090078004f04be0000000600889fbe0017
:100c6000a8882000f0045400480078000000e0004c
:100c700001003200b7ff0700890f5400faff3a0065
:100c80004f04be0000000600889fbe008a1f780047
:100c9000000478000800e0000d003a00888720007a
:100ca000700544008004eb00580078000000e0006c
:100cb00004003200f4ff07000000e00001003d00e6
:100cc0008084eb008a0f5400f7ff3a0025003700bc
:100cd00000002200180060008004eb0021003200b8
:100ce000a80490000f00370009015100384090001f
:100cf0000000fb00890078007cfe07000000e00097
:100d000007003c0028009000400498006004980010
:100d1000500c98001890a0008084eb001100370060
:100d20008084440048019000828f5400eeff390017
:100d300028009000400498009800780002c020002d
:100d40000281600001003a003800900001e8a30031
:100d5000020032006004980001003700500c980037
:100d60008004eb00090078004f0578004f04be00b6
:100d700000000600010020000100e0000800320031
:100d8000010080000100e000050032008100e90060
:100d900001008800818040000200800000b17800de
:100da000000006000000e000320032004002be00f9
:100db000e50f5200e08f5a002e0036000408a30011
:100dc0002c003a00814580000100e0000200320062
:100dd000810f5000040031002100980080458800f8
:100de0001700370082007800210190000200e00027
:100df00002003200800f5100faff39001103be00db
:100e000086814000830f50001a003900808f510006
:100e100004003a008418430085904b0001007800dc
:100e2000070037000200e000030032000402400027
:100e3000840f51000f00390022009800a000980094
:100e4000a00090000100e0000a0032001001400004
:100e5000828f500007003a00e28a20000009eb0070
:100e60001001be003118410021904900a1009000fe
:100e70002100980000000600889fbe008a9fbe00e7
:100e80000004be00714580000100e0000200320055
:100e9000010078000f00370081458000008b2000a2
:100ea00005003700b10f5400a18f5c002b00360005
:100eb00064804000a10090000100e000f9ff3a00ca
:100ec00012003700b20f5400a28f5c0023003600de
:100ed00064004100100178000200e000f9ff3a00d0
:100ee0001101780081458000008b2000050037004b
:100ef000b10f5400a18f5c001800360064804000e0
:100f0000a1009000828f5000f9ff3a005a458000fe
:100f10006b458000880f5500898f5d00010031000e
:100f20000805be000a00be00460007000000e00001
:100f300006003a00880f5500898f5d0006003200d8
:100f40008b05d1000a85d300f2ff37000a98be0056
:100f500094ff0700cbff37000000eb004f05be00f9
:100f60004f04be0000000600889fbe000002be00c5
:100f700065004000e0804800000378000600a10002
:100f800081017800060178000204be008000eb00b9
:100f9000840f5400858f5c0027003600e50f540055
:100fa000e08f5c0002003e00680020000900200085
:100fb0000800be00b0ff07008000eb000000e0006a
:100fc0001d00320090007800a4ff2f00f5ff2f00d5
:100fd00031014200a1814a00880f5100898f5900d8
:100fe00003003100a10290000508780008003700d6
:100ff0000881400002087800a101900023019800b8
:10100000100178003119140021911c008888be005d
:10101000100178000000eb000200e0000400320044
:10102000a20190000300e0000100320064004100d2
:1010300070458800e4804000010078004f04be0045
:10104000000006000001be008000eb000200e0008e
:10105000060034000200780083fd0700800078005d
:10106000e18f400001003a008000eb0001007800b1
:101070000000060000c0da000000060000c0da0030
:041080000000060066
:020000040000fa
:101084004e6f0000726d0000616c0000204d000086
:101094006f64000065000000456e00007465000088
:1010a400726900006e67000020440000656500005e
:1010b40070200000536c00006565000070000000a3
:020000040000fa
:1010c4008a080000200000008000000000080000e2
:1010d4000200000082000000ffff00000208000080
:1010e40088000000820000000100000000280800c1
:1010f40029082800082808002808280008180800db
:1011040000000000000000000000000000000000db
:1011140000000000000000000000000000020800c1
:101124000101500008510800500850000850080000
:10113400500840000800000000000000000000000b
:10114400000000000000000000000000000000009b
:1011540000000200080202007808790008780800fc
:10116400780878000878080068080000000000008b
:10117400000000000000000000000000000000006b
:10118400000000000000000002082a0008520800c5
:10119400000000000000000000000000000000004b
:1011a400b20800000200000080000000aa0800004d
:1011b400040000008200000006000000000000009f
:1011c400ae0800000400000080000000b408000025
:0c11d4000200000080000000000000008d
:020000040000fa
:1011e0000000fa008421ef0000102000700c88003d
:1011f0009821ef00f0782000000c8800f0ee2e001f
:10120000500c8800f03f2000a00c88005620ef0012
:101210005820ef005a20ef006e20ef007020ef0002
:101220007220ef008621ef009021ef009a21ef005d
:10123000f0002000400c8800c0242e00900c880094
:1012400070002000e00c880001088000f00b2000f6
:101250000081600060042000710520000310200060
:10126000804978008149780082497800811d80009a
:1012700000fc2f00008060007000b300801d88001b
:10128000f11e800000fc2f00008060003000b300e1
:10129000f01e880000088000000178000260a000b5
:1012a00060042000710520000310200080497800b0
:1012b00081497800824978000080fa000000060029
:1012c0000000fa0080002000002888000225ef00be
:1012d000001a2000402888000a25ef000c25ef00a6
:1012e0000e25ef001025ef001225ef001425ef006a
:1012f00001e5a8000345a8000080fa0000000600f0
:101300000000fa000000000010288000610060006a
:101310000000e000fcff3200102880006200600046
:101320000000e000010032000225a9003028800002
:10133000004078000080fa00000006000200fa0079
:10134000004f7800000000001128800000202000dd
:10135000008060000000e000fbff3a001e80fb0000
:10136000202888000080fa00000006000000fa0033
:10137000102880000080fa00000006000000fa003b
:101380000d0007000fe1a90020842800f9fc0700e8
:1013900000c02600c12d20005b000700e08428006b
:1013a000f4fc07000040fe0000402200410f200036
:1013b00055000700f4ff37000000fa003a0007006c
:1013c00001088000f00b2000008160006004200014
:1013d00071052000031020008049780081497800c1
:1013e00082497800811d800000fc2f000080600091
:1013f0007000b300801d8800f11e800000fc2f00eb
:10140000008060003000b300f01e880000088000fb
:10141000000178000260a000600420007105200037
:1014200003102000804978008149780082497800c3
:101430000080fa0000000600000f78009e0078008f
:1014400001408800ffff37000000fa00a08820005c
:1014500080077800208a2000000188000080fa00c0
:10146000000006003600f8008020a9000000eb0014
:10147000f1ff07003600f800f3ff07008040a900e5
:1014800010002000ecff07003600f8008060a90083
:1014900020002000e8ff07003600f8008080a90047
:1014a00030002000e4ff07000000fa004cff0700b6
:1014b000230007000300070081ff07000080fa00f7
:1014c000000006000000fa000001eb0060042000ac
:1014d00071052000031020008049780081497800c0
:1014e0008249780000122300100888000621ef00ce
:1014f0006821ef006a21ef006c21ef000821ef0066
:081500000080fa000000060063
:020000040000fa
:10150800f03fb1000180b10006003500ee0309008c
:1015180000000000403fb1000180b100fbff3d002a
:101528001000b000203fb000020035000080090024
:081538000000000000000600a5
:020000040000fa
:0c1540000000fa000080fa000000060025
:020000040000fa
:020000040002f8
:04aff000ffc300009b
:020000040000fa
:020000040002f8
:04aff400fff7000063
:020000040000fa
:020000040002f8
:04aff800bfb90000dd
:020000040000fa
:020000040002f8
:04affc003f3f0000d3
:00000001FF
