:020000040000fa
:080000000002040000000000f2
:020000040000fa
:0400080010030000e1
:020000040000fa
:04000c00b60f00002b
:020000040000fa
:04001000c80f000015
:020000040000fa
:04001400be0f00001b
:020000040000fa
:04001800d00f000005
:020000040000fa
:04001c0010030000cd
:020000040000fa
:0400200010030000c9
:020000040000fa
:0400240010030000c5
:020000040000fa
:0400280010030000c1
:020000040000fa
:04002c0010030000bd
:020000040000fa
:0400300010030000b9
:020000040000fa
:0400340010030000b5
:020000040000fa
:0400380010030000b1
:020000040000fa
:04003c0010030000ad
:020000040000fa
:0400400010030000a9
:020000040000fa
:04004400580d000053
:020000040000fa
:0400480010030000a1
:020000040000fa
:04004c00100300009d
:020000040000fa
:040050001003000099
:020000040000fa
:040054001003000095
:020000040000fa
:040058001003000091
:020000040000fa
:04005c00100300008d
:020000040000fa
:040060001003000089
:020000040000fa
:040064001003000085
:020000040000fa
:040068001003000081
:020000040000fa
:04006c00100300007d
:020000040000fa
:040070001003000079
:020000040000fa
:040074001003000075
:020000040000fa
:040078001003000071
:020000040000fa
:04007c00100300006d
:020000040000fa
:040080001003000069
:020000040000fa
:040084001003000065
:020000040000fa
:040088001003000061
:020000040000fa
:04008c00100300005d
:020000040000fa
:040090001003000059
:020000040000fa
:040094001003000055
:020000040000fa
:040098001003000051
:020000040000fa
:04009c00100300004d
:020000040000fa
:0400a0001003000049
:020000040000fa
:0400a4001003000045
:020000040000fa
:0400a8001003000041
:020000040000fa
:0400ac00100300003d
:020000040000fa
:0400b0001003000039
:020000040000fa
:0400b4001003000035
:020000040000fa
:0400b8001003000031
:020000040000fa
:0400bc00100300002d
:020000040000fa
:0400c0001003000029
:020000040000fa
:0400c4001003000025
:020000040000fa
:0400c8001003000021
:020000040000fa
:0400cc00100300001d
:020000040000fa
:0400d0001003000019
:020000040000fa
:0400d4001003000015
:020000040000fa
:0400d8001003000011
:020000040000fa
:0400dc00100300000d
:020000040000fa
:0400e0001003000009
:020000040000fa
:0400e4001003000005
:020000040000fa
:0400e8001003000001
:020000040000fa
:0400ec0010030000fd
:020000040000fa
:0400f00010030000f9
:020000040000fa
:0400f40010030000f5
:020000040000fa
:0400f80010030000f1
:020000040000fa
:0400fc0010030000ed
:020000040000fa
:0401000010030000e8
:020000040000fa
:0401040010030000e4
:020000040000fa
:0401080010030000e0
:020000040000fa
:04010c0010030000dc
:020000040000fa
:0401100010030000d8
:020000040000fa
:0401140010030000d4
:020000040000fa
:0401180010030000d0
:020000040000fa
:04011c0010030000cc
:020000040000fa
:0401200010030000c8
:020000040000fa
:0401240010030000c4
:020000040000fa
:0401280010030000c0
:020000040000fa
:04012c0010030000bc
:020000040000fa
:0401300010030000b8
:020000040000fa
:0401340010030000b4
:020000040000fa
:0401380010030000b0
:020000040000fa
:04013c0010030000ac
:020000040000fa
:0401400010030000a8
:020000040000fa
:0401440010030000a4
:020000040000fa
:0401480010030000a0
:020000040000fa
:04014c00100300009c
:020000040000fa
:040150001003000098
:020000040000fa
:040154001003000094
:020000040000fa
:040158001003000090
:020000040000fa
:04015c00100300008c
:020000040000fa
:040160001003000088
:020000040000fa
:040164001003000084
:020000040000fa
:040168001003000080
:020000040000fa
:04016c00100300007c
:020000040000fa
:040170001003000078
:020000040000fa
:040174001003000074
:020000040000fa
:040178001003000070
:020000040000fa
:04017c00100300006c
:020000040000fa
:040180001003000068
:020000040000fa
:040184001003000064
:020000040000fa
:040188001003000060
:020000040000fa
:04018c00100300005c
:020000040000fa
:040190001003000058
:020000040000fa
:040194001003000054
:020000040000fa
:040198001003000050
:020000040000fa
:04019c00100300004c
:020000040000fa
:0401a0001003000048
:020000040000fa
:0401a4001003000044
:020000040000fa
:0401a8001003000040
:020000040000fa
:0401ac00100300003c
:020000040000fa
:0401b0001003000038
:020000040000fa
:0401b4001003000034
:020000040000fa
:0401b8001003000030
:020000040000fa
:0401bc00100300002c
:020000040000fa
:0401c0001003000028
:020000040000fa
:0401c4001003000024
:020000040000fa
:0401c8001003000020
:020000040000fa
:0401cc00100300001c
:020000040000fa
:0401d0001003000018
:020000040000fa
:0401d4001003000014
:020000040000fa
:0401d8001003000010
:020000040000fa
:0401dc00100300000c
:020000040000fa
:0401e0001003000008
:020000040000fa
:0401e4001003000004
:020000040000fa
:0401e8001003000000
:020000040000fa
:0401ec0010030000fc
:020000040000fa
:0401f00010030000f8
:020000040000fa
:0401f40010030000f4
:020000040000fa
:0401f80010030000f0
:020000040000fa
:0401fc0010030000ec
:020000040000fa
:0402080010030000df
:020000040000fa
:04020c0010030000db
:020000040000fa
:0402100010030000d7
:020000040000fa
:0402140010030000d3
:020000040000fa
:0402180010030000cf
:020000040000fa
:04021c0010030000cb
:020000040000fa
:0402200010030000c7
:020000040000fa
:0402240010030000c3
:020000040000fa
:0402280010030000bf
:020000040000fa
:04022c0010030000bb
:020000040000fa
:0402300010030000b7
:020000040000fa
:0402340010030000b3
:020000040000fa
:0402380010030000af
:020000040000fa
:04023c0010030000ab
:020000040000fa
:0402400010030000a7
:020000040000fa
:0402440010030000a3
:020000040000fa
:04024800100300009f
:020000040000fa
:04024c00100300009b
:020000040000fa
:040250001003000097
:020000040000fa
:040254001003000093
:020000040000fa
:04025800100300008f
:020000040000fa
:04025c00100300008b
:020000040000fa
:040260001003000087
:020000040000fa
:040264001003000083
:020000040000fa
:04026800100300007f
:020000040000fa
:04026c00100300007b
:020000040000fa
:040270001003000077
:020000040000fa
:040274001003000073
:020000040000fa
:04027800100300006f
:020000040000fa
:04027c00100300006b
:020000040000fa
:040280001003000067
:020000040000fa
:040284001003000063
:020000040000fa
:04028800100300005f
:020000040000fa
:04028c00100300005b
:020000040000fa
:040290001003000057
:020000040000fa
:040294001003000053
:020000040000fa
:04029800100300004f
:020000040000fa
:04029c00100300004b
:020000040000fa
:0402a0001003000047
:020000040000fa
:0402a4001003000043
:020000040000fa
:0402a800100300003f
:020000040000fa
:0402ac00100300003b
:020000040000fa
:0402b0001003000037
:020000040000fa
:0402b4001003000033
:020000040000fa
:0402b800100300002f
:020000040000fa
:0402bc00100300002b
:020000040000fa
:0402c0001003000027
:020000040000fa
:0402c4001003000023
:020000040000fa
:0402c800100300001f
:020000040000fa
:0402cc00100300001b
:020000040000fa
:0402d0001003000017
:020000040000fa
:0402d4001003000013
:020000040000fa
:0402d800100300000f
:020000040000fa
:0402dc00100300000b
:020000040000fa
:0402e0001003000007
:020000040000fa
:0402e4001003000003
:020000040000fa
:0402e80010030000ff
:020000040000fa
:0402ec0010030000fb
:020000040000fa
:0402f00010030000f7
:020000040000fa
:0402f40010030000f3
:020000040000fa
:0402f80010030000ef
:020000040000fa
:0402fc0010030000eb
:020000040000fa
:0403000010030000e6
:020000040000fa
:0403040010030000e2
:020000040000fa
:0403080010030000de
:020000040000fa
:04030c0010030000da
:020000040000fa
:0403100010030000d6
:020000040000fa
:0403140010030000d2
:020000040000fa
:0403180010030000ce
:020000040000fa
:04031c0010030000ca
:020000040000fa
:0403200010030000c6
:020000040000fa
:0403240010030000c2
:020000040000fa
:0403280010030000be
:020000040000fa
:04032c0010030000ba
:020000040000fa
:0403300010030000b6
:020000040000fa
:0403340010030000b2
:020000040000fa
:0403380010030000ae
:020000040000fa
:04033c0010030000aa
:020000040000fa
:0403400010030000a6
:020000040000fa
:0403440010030000a2
:020000040000fa
:04034800100300009e
:020000040000fa
:04034c00100300009a
:020000040000fa
:040350001003000096
:020000040000fa
:040354001003000092
:020000040000fa
:04035800100300008e
:020000040000fa
:04035c00100300008a
:020000040000fa
:040360001003000086
:020000040000fa
:040364001003000082
:020000040000fa
:04036800100300007e
:020000040000fa
:04036c00100300007a
:020000040000fa
:040370001003000076
:020000040000fa
:040374001003000072
:020000040000fa
:04037800100300006e
:020000040000fa
:04037c00100300006a
:020000040000fa
:040380001003000066
:020000040000fa
:040384001003000062
:020000040000fa
:04038800100300005e
:020000040000fa
:04038c00100300005a
:020000040000fa
:040390001003000056
:020000040000fa
:040394001003000052
:020000040000fa
:04039800100300004e
:020000040000fa
:04039c00100300004a
:020000040000fa
:0403a0001003000046
:020000040000fa
:0403a4001003000042
:020000040000fa
:0403a800100300003e
:020000040000fa
:0403ac00100300003a
:020000040000fa
:0403b0001003000036
:020000040000fa
:0403b4001003000032
:020000040000fa
:0403b800100300002e
:020000040000fa
:0403bc00100300002a
:020000040000fa
:0403c0001003000026
:020000040000fa
:0403c4001003000022
:020000040000fa
:0403c800100300001e
:020000040000fa
:0403cc00100300001a
:020000040000fa
:0403d0001003000016
:020000040000fa
:0403d4001003000012
:020000040000fa
:0403d800100300000e
:020000040000fa
:0403dc00100300000a
:020000040000fa
:0403e0001003000006
:020000040000fa
:0403e4001003000002
:020000040000fa
:0403e80010030000fe
:020000040000fa
:0403ec0010030000fa
:020000040000fa
:0403f00010030000f6
:020000040000fa
:0403f40010030000f2
:020000040000fa
:0403f80010030000ee
:020000040000fa
:0403fc0010030000ea
:020000040000fa
:100400004f8d20000e7f22000e01880000000000aa
:10041000000020000000e000020032000001200087
:100420002002880014000700d30007000000e0004d
:1004300003003a0020e22000010020000200370003
:100440000000200001002000810f70000100320038
:1004500014000700000020000000e000020032004d
:100460000000020000000000261002000000000052
:100470000040da000000fe004440a9008001200096
:100480000000e000030032000020200090018800fe
:100490004440a800000006008a1f78008b1f7800e7
:1004a00000000600a1028800800478000000eb0034
:1004b0001f003700e284440054a0b4009905ba003c
:1004c000e284440054a0b4009906ba00e2844400d7
:1004d00054a0b4000006eb00476fde00fd07b20039
:1004e000ae018800636ce10003003a00eaff0700f8
:1004f0000000eb000e003700606ce10008003a00dd
:10050000004deb000a05e800020039003420ec0041
:100510000af0a0008b05e900f9ff3e000400370057
:100520006168e100010032000086eb000b0007006b
:1005300019c7ba001905ba000e04e00003003a001a
:100540000a00e000dbff3a0000000600fe07b200f0
:10055000ae0288008a047800f5ff37000cd0a300b3
:10056000e20f4d001c00390089027800354dba00b9
:100570000a05e800020039003420ec000af0a0006f
:100580008b05e9000f003200254dba000a05e8008e
:10059000020039003420ec000af0a0008b05e900cd
:1005a000080032000c00e0000600320015cdba0051
:1005b0000a05e800020039003420ec000af0a0002f
:1005c0008b05e9008984e80054a0b4000b00e0002a
:1005d000e2ff3a00000006009902ba00055d7800cb
:1005e0008b05e900f7ff3200c82ade00055d7800c0
:1005f0008b05e900f3ff32000c00e000f1ff320050
:1006000019ddba00eeff3700980504000000000075
:100610004808040000000000000004000000000082
:100620000040da000000fe000a00fa00110020007d
:10063000b1bf9f00c0bf9f006a805700e904070058
:100640004fb897000080fa00000006000a00fa0088
:1006500051002000b1bf9f00c0bf9f006a805700bb
:10066000e20407005fb897000080fa00000006006f
:10067000889fbe0080047800904680000000e00063
:1006800004003a000e0007000084eb000000e000c8
:1006900008003500984680000900e000050032009f
:1006a00009004400060007000000e00001003d00d2
:1006b0000084eb00080078004f04be000000060034
:1006c000800078000100e00003003a0000002000f4
:1006d00090468800000005000080eb00020020002a
:1006e000828f500002003e00914688000000eb001f
:1006f000000006000800fa00100798002107980083
:10070000320798000000000011288000001020002f
:10071000008060000000e000fbff3200be0090009f
:10072000010f78000e003700000000001128800043
:1007300000102000008060000000e000fbff32009d
:100740002e009000104078000000fb002028880058
:100750002e0090000000e800200798001e0fe9001e
:100760001e0078000000e000efff3a003e0090001d
:100770000080fa000000060000000500c182200091
:100780002f000700800078000080eb000100e000ef
:1007900004003500c1822000a000200002000700f4
:1007a0004f80de0000000600889fbe008a1f780090
:1007b0000004be00c900900069009000808f5000c6
:1007c0000500390009007800910007008080eb00e7
:1007d0000000e00016003500084578004900900050
:1007e00008587800c00498001900780000b8a300e9
:1007f00004003a0000a8a30007003200ea4f5400aa
:1008000005003a00090078002c0207008080eb0008
:100810000000e00006003a0000c02000190060005f
:100820000200320049009000e00498008a80fb003a
:10083000010078004f0578004f04be00000006005c
:10084000889fbe008a9fbe008c1f780080047800bd
:10085000010478002f003700c80090006800900065
:10086000808f5000040039000800780068000700fd
:100870000000e0003a003500004020001800600051
:100880000a003200a1002000090078005000070093
:10089000000678000c00e0000400320061851400be
:1008a0000a054600cfd5de000400370009007800b5
:1008b0003b0007000005be000006eb00480090006a
:1008c0006801900000015100cf91de008a0f5100b5
:1008d0008b8f5900020031000205be000006eb00bc
:1008e0000a01be008900780022000700480090003d
:1008f0000a004000400498000c00e00004003200b0
:1009000008007800ed0107000000e00014003a0044
:100910008a8444001904e000cfff3a0000802000e0
:10092000180060000600320008007800e3010700ac
:10093000800078000080eb000100e00009003a0030
:1009400001c02000988060000000eb00050032002c
:1009500048009000600498000000eb0001003700a0
:100960000080eb004f0678004f05be004f04be002c
:10097000000006000202be008001eb000400370008
:1009800061f0790061025200e0825a008301e800c0
:10099000e00f5200e08f5a00f9ff3a000000060015
:1009a000800078000000eb00610ab8006101b80027
:1009b000040341000000e800644179000204e00003
:1009c000f9ff3a0001005300cf80de00000006006e
:1009d000889fbe006011b8006103b8006112b800c2
:1009e0000404430085844b0066427a00814f520024
:1009f00001003a00880178000201e8000404e000e8
:100a0000f5ff3a00030078004f04be000000060026
:100a1000889fbe008a1f780000047800c8009000fc
:100a2000680190000000eb00828f50003d0039000b
:100a3000180078002200290002016000e20f510036
:100a400007003200012024000000e00001003d000a
:100a500001202000008c70000080eb003100370086
:100a60000200260002006000820f500009003a00d8
:100a700038009000808f5000060039000800780090
:100a80008e010700800078000080eb000100e0008c
:100a900024003a001805780000c02000000065001e
:100aa00019003a00a80490006002200008004000ed
:100ab000808f540014003a00002020000100200024
:100ac000ae020700200498000000e00005003a0094
:100ad00029049800490498008904e8003904980022
:100ae000080037000a60a0000a0c78004004980053
:100af000012020008080400031049800400c9800c4
:100b0000500c98001701070028009000500498002e
:100b1000380090006004980000002600180c700057
:100b20000000eb004f0578004f04be0000000600f7
:100b3000881f78008a9fbe000004780001007800ba
:100b40000205be00880078000202be0012002000ec
:100b500003002000e30107008a0f50008b8f58002c
:100b6000010032000004eb00080078004f05be00d1
:100b70004f047800000006000000fa00e8815700ea
:100b80004fb99700c1822000805920000200070061
:100b90000080fa00000006006200fa00889fbe0094
:100ba0008a9fbe0000057800810478000204780066
:100bb0008300780060f92f000f00400092010700c9
:100bc0008a979f0099979f000000eb00a09f9f00cd
:100bd0001885fb008a04fb000a05ea004f55de0079
:100be00050022000808f54000e003200e10f5500ab
:100bf0000c003a001200200003002000880078005a
:100c00001f9097000f9297000400010090979f009b
:100c10000000e0009d0032002f9897000000e800df
:100c2000a09f9f000a04440050022000808f5400bf
:100c3000040032000900e000e5ff3a002f98970019
:100c4000930037000000eb00809f9f00f0979f000b
:100c5000e0979f00d0979f00c0979f00b0979f009c
:100c6000c09f9f008004eb0008003700018c20002b
:100c7000810050008100d000428b20008280400023
:100c80004f98970011007000c09f9f006141b8000d
:100c90006148b80002054000e24578008b00fb0087
:100ca000008c2000400107008904e8000000e000fb
:100cb000eeff3a00a1c2b30081cf55000e003a000a
:100cc000bf8897000180e900b08f9f001000780076
:100cd000b09f9f000000e00005003d000000ea001a
:100ce000b09f9f004f9897000020a000c09f9f00da
:100cf0000a04e80012003700b09f9f006000b800af
:100d000006003700f3ff2700830f50000200320077
:100d10006a02b900040041008100e8006152b80095
:100d20006109b80004044100644179000201fb003c
:100d30000203b100e90f5100f2ff3600b09f9f009f
:100d4000e0c2b300984f1000030032000080eb00b7
:100d5000909f9f002100370008007800a1c2b300d7
:100d6000d0cf100007003a003f8997008280e90049
:100d7000b18f9f0091007800919f9f000004e800d0
:100d8000160037000000eb00909f9f008000eb00f2
:100d900006003700f3ff2700830f500002003200e7
:100da0006a02b900040041008100e8000802e8007e
:100db0008002eb006109b8000203420083834a000d
:100dc000644179000201fb000203b100e90f510008
:100dd000f0ff3600909f9f0006047800984478004a
:100de0008900fb00c08a2000ef0007000000e0003f
:100df000020032000804e800010037008044eb00e4
:100e0000a97f9f0080c6b30080cf540004003a0041
:100e100098cf14000a003a006640500006003700e0
:100e2000c0c6b30080cf540005003a0098cf14002c
:100e300003003a0065404000a07f9f000804e800de
:100e40001801fb00c3fb2f008f81410061f92f00c7
:100e50008f80400080f92f000f0040001000070035
:100e60000000e00009003a00c1fb2f008f80400025
:100e700080f92f000f0040001b0207000000e00077
:100e8000020035000804e80051ff37000080eb0045
:100e90004f05be004f04be000080fa0000000600af
:100ea000889fbe008a1f78000004780030c5b30018
:100eb000804f51000800320030c7b300804f51000e
:100ec0000500320051c2b30078009000814f5100fc
:100ed00017003a00140037001180e90080087800fc
:100ee000100578006a049800d80c90000900e00012
:100ef00004003d000a007800a9fe07008004780085
:100f0000070037006149b9008000eb000a00780053
:100f1000d10107000000e000010032008a04500007
:100f2000190c98000900370082717800050037001d
:100f3000808141000204e00001003a000141780094
:100f4000824978000000e800700498000000eb007f
:100f50004f0578004f04be0000000600808420008a
:100f60009d003700881f7800088d20001804e000dd
:100f700003003a00f9ff070020c0b300004c7800de
:100f80004f04780000000600889fbe00000478002f
:100f90000800780049000700800478000004200061
:100fa000180060000200320028009000980007003e
:100fb0000000eb0020049800384090000004e0009e
:100fc000050035000000fb0097fd07000000e00071
:100fd000010032008084eb00181090000000e00057
:100fe0000800320099fd07000000e0000100320017
:100ff0008084eb0018109000850007000000eb00d3
:101000001014980000082000180060000f00320043
:10101000a18720000000eb00d10f140005003a006a
:1010200000004000c1872000008040000008eb0065
:10103000030037000000e800e80f5000f6ff3a0018
:1010400008007800720007000e003700000c7800de
:1010500000c0eb003044980060022000080040000f
:10106000200498004004980050049800400c980018
:1010700060049800500c98007004980076004400ba
:10108000000c9800090078004f04be000000060024
:10109000889fbe00c8882000f004540048007800f3
:1010a0000000e00001003200b7ff0700890f540084
:1010b000faff3a004f04be0000000600889fbe0001
:1010c0008a1f7800000478000800e0000d003a0054
:1010d000a8872000700544008004eb0058007800c9
:1010e0000000e00004003200f4ff07000000e00010
:1010f00001003d008084eb008a0f5400f7ff3a00a6
:101100002500370000002200180060008004eb007a
:1011100021003200a80490000f003700090151009f
:10112000384090000000fb008900780071fd070046
:101130000000e00007003c002800900040049800f8
:1011400060049800500c98001890a0008084eb0078
:10115000110037008084440048019000828f5400c1
:10116000eeff3900280090004004980098007800b5
:1011700002c020000281600001003a0038009000a7
:1011800001e8a3000200320060049800010037006b
:10119000500c98008004eb00090078004f0578009f
:1011a0004f04be0000000600020037000304e00008
:1011b000060032000001780002007800b04178009b
:1011c00081cf5100f9ff3a00010037000001eb0028
:1011d0000200780000000600010020000100e0008d
:1011e00008003200010080000100e000050032002c
:1011f0008100e90001008800818040000200800039
:1012000000b1780000000600010878000000060028
:101210000000e000320032004002be00e50f520044
:10122000e08f5a002e0036000408a3002c003a007c
:10123000614680000100e00002003200810f500092
:101240000400310021009800604688001700370034
:1012500082007800210190000200e00002003200cc
:10126000800f5100faff39001103be008681400053
:10127000830f50001a003900808f510004003a009b
:101280008418430085904b00010078000700370068
:101290000200e0000300320004024000840f51000d
:1012a0000f00390022009800a0009800a0009000d4
:1012b0000100e0000a00320010014000828f50005f
:1012c00007003a00a28c20000009eb001001be00cc
:1012d0003118410021904900a100900021009800a0
:1012e00000000600ea874700889fbe008a9fbe0074
:1012f0008c9fbe008e1f7800000678000204be009e
:101300000405be00010778000400be00c901070003
:10131000d0b79f00e1b79f00e00f5000e08f58006a
:1013200052003200e00f5400e08f5c0050003200a9
:10133000fcb79f000006be00ce0090006e0090003b
:10134000808f5000040039000e007800b0fd0700c7
:101350000000e00033003500004020001e00600067
:101360000c0032000c01be00a10020007fb09700ed
:10137000b9000700000278000400e0000800320015
:10138000ffb19700618511000a054200cfd5de004c
:10139000040037000c05be000002eb00010037001e
:1013a0000c05be004e0090006e019000000151003f
:1013b000cf91de008a0f51008b8f5900020031005f
:1013c0000205be000002eb000a01be00ffb097005c
:1013d00084bf9f0067fd07000a0656008b865e00eb
:1013e0004e0090000a004000400798000fba970096
:1013f0000400e000040032000e0078002fff070018
:101400000000e00007003a00e00f5600e08f5e00a9
:10141000040032007fb097000a004000f0b79f0040
:10142000c5ff3700008020001e006000020032006f
:101430000e00780021ff070000c020001e006000a1
:1014400002003200ce009000610798005fb1970063
:10145000efb197000c0051008d8059000801be00cb
:10146000640107000005be00010037006055b800a8
:101470000a00be004f0778004f06be004f05be00b1
:101480004f04be00af00b10000000600889fbe0000
:101490008a9fbe000004be00514680000100e000ab
:1014a00002003200010078000f0037006146800022
:1014b000c08c200005003700b10f5400a18f5c00e4
:1014c0002b00360064804000a10090000100e00085
:1014d000f9ff3a0012003700b20f5400a28f5c00ef
:1014e0002300360064004100100178000200e00093
:1014f000f9ff3a001101780061468000c08c20009d
:1015000005003700b10f5400a18f5c0018003600b1
:1015100064804000a1009000828f5000f9ff3a00e3
:101520003a4680004b468000880f5500898f5d0049
:10153000010031000805be000a00be005e00070081
:101540000000e00006003a00880f5500898f5d001a
:10155000060032008b05d1000a85d300f2ff370068
:101560000a98be002aff0700cbff37000000eb00ff
:101570004f05be004f04be0000000600889fbe005d
:101580000002be0065004000e080480000037800d3
:101590000600a10081017800060178000204be0067
:1015a0008000eb00840f5400858f5c00270036001c
:1015b000e50f5400e08f5c0002003e006800200050
:1015c000090020000800be00b0ff07008000eb000b
:1015d0000000e0001d00320090007800a4ff2f0002
:1015e000f5ff2f0031014200a1814a00880f510010
:1015f000898f590003003100a1029000050878008e
:10160000080037000881400002087800a10190001e
:1016100023019800100178003119140021911c0059
:101620008888be00100178000000eb000200e00096
:1016300004003200a20190000300e000010032002b
:101640006400410050468800e480400001007800ba
:101650004f04be0000000600889fbe008a9fbe00a7
:101660000202be008001eb00060037008301e800a3
:1016700066417c00814f51000b0032006102520034
:10168000e0825a006103b800611cb80008054300fd
:1016900089854b00e00f5200e08f5a00f3ff3a00bb
:1016a0000000eb00010037000a0078004f05be0083
:1016b0004f04be00000006000001be008000eb00e9
:1016c0000200e0000600340002007800e8fb07009a
:1016d00080007800e18f400001003a008000eb00bc
:1016e00001007800000006000400fa00889fbe0098
:1016f0008a9fbe008c1f78000004780001067800e5
:10170000f80d900078009000808555000808900042
:1017100080855500180890008085550028089000a5
:101720008085550038089000808555004808900055
:10173000808555000002220090bf9f000003230017
:10174000a0bf9f00081090000028a30015003a00d9
:101750000b00e000130034000b0578008a047800c9
:10176000e20f550001003600290020006149b90050
:1017700048029000ee8057005800900004000100dd
:10178000500498000000e0008f00320068089000cc
:1017900009004000600c9800090555004240a9006e
:1017a000eeff3c00780090000000e0000d003400e7
:1017b0006101b900480290008c0078005800900048
:1017c00004000100500498008080eb000000e0005d
:1017d0007e003200e8089000780090000080400011
:1017e000600c9800880c90000900e00011003400a3
:1017f00009057800e28f5400010036002a0020001d
:101800006151b90048029000ec80570058009000e8
:1018100004000100500498000000e0006a0032005b
:10182000680890000a004000600c98008a84540008
:10183000edff3700180890000000e0000d003400b4
:101840006101b90048029000e80090005800900043
:1018500004000100500498008080eb000000e000cc
:101860005a003200e80890001808900000804000fc
:10187000600c9800a80c90000900e00011003400f2
:1018800009057800e28f5400010036002a0020008c
:101890006151b90048029000ec8057005800900058
:1018a00004000100500498000000e00046003200ef
:1018b000680890000a004000600c98008a84540078
:1018c000edff3700380890000000e0000f00340002
:1018d0006101b90018089000e80090008080400085
:1018e0004802900058009000040001005004980045
:1018f0008080eb000000e00034003200e808900037
:101900003808900000804000600c9800c80c9000df
:101910000900e0001100340009057800e28f54004e
:10192000010036002a0020006151b90048029000f1
:10193000ec8057005800900004000100500498000b
:101940000000e00020003200680890000a0040001b
:10195000600c98008a845400edff37000810900056
:101960008000eb000028a300180032000b00e0000c
:10197000160034008b04780009057800e28f5400cb
:10198000010036002a0020006151b9004802900091
:10199000ee805700580090000400010050049800a9
:1019a0000000e00008003200680890000a004000d3
:1019b000600c98008a8454004240a900eeff3c006d
:1019c0008000eb00010037008080eb000100780010
:1019d0004f0678004f05be004f04be000080fa009d
:1019e0000000060000c0da000000060000c0da00b7
:1019f000000006006022b800060220000000d000af
:101a00008180d2000482d2008582d2000000a00032
:101a10000202520083825a00030031000202420097
:101a200083824a000000a1000603e900f3ff3a00a8
:101a300000000600020ab900001bb9000200b8004d
:0c1a40008100420081004300000006000d
:020000040000fa
:101a4c00467200006f6d000020540000696d0000ac
:101a5c006572000032000000486500006c6c0000ec
:101a6c006f200000576f0000726c000064000000d3
:020000040000fa
:101a7c000000fa005222ef0000922900c0128800e8
:101a8c0000002800e012880084e0a90094e0a8007f
:101a9c00e08c20008040eb00014878000080fa00c8
:101aac00000006003600f800809fbe00829fbe003a
:101abc00849fbe00869fbe000000fa00104080008c
:101acc000000e8001040880011408000f0ff20006a
:101adc00808f5000020036002b0007000228ef0018
:101aec00f08c2000104078008040e800f08c200042
:101afc0001487800e08c200011c0b3000148780048
:101b0c0084e0a9000080fa004f03be004f02be0023
:101b1c004f01be004f00be003600f9000040060029
:101b2c000200fa00000f78009e007800c1128800b5
:101b3c00e08c20008040eb00014878000080fa0027
:101b4c00000006000000fa00c01280000080fa00bd
:101b5c00000006000200fa00000f78009e007800da
:101b6c0091128800e08c20008040eb000148780046
:101b7c000080fa00000006000000fa0090128000bd
:101b8c000080fa00000006000000fa0060d2280075
:101b9c00801f7800f5fb07008f87e9000080fa00b2
:101bac00000006000000fa00e08c20008040eb00f2
:101bbc000148780094e0a8005de2a8000080fa00db
:101bcc00000006000000fa005de2a90094e0a90004
:101bdc000080fa00000006000200fa00e08c2000f1
:101bec00104f78001e4078000004e0000300320023
:101bfc00e08c20008040eb00014878001e4078000b
:101c0c000080fa00000006000000fa00f08c2000b2
:101c1c00104078000080fb000080fa0000000600f5
:101c2c000000fa00f08c20008040eb0001487800a6
:081c3c000080fa000000060020
:020000040000fa
:101c44008c08000020000000800000000008000054
:101c54000200000082000000ffff0000ce08000028
:101c640002000000800000000208000002000000e2
:101c740080000000040800008800000082000000ca
:101c840001000000002a08002b082a00082a080086
:101c94002a082a00081a08000000000000000000ba
:101ca4000000000000000000000000000000000030
:101cb400000000000002080001015200085308005f
:101cc400520852000852080052084200080000005e
:101cd4000000000000000000000000000000000000
:101ce40000000000000000000000020008020200e2
:101cf4007a087b00087a08007a087a00087a0800d3
:101d04006a0800000000000000000000000000005d
:101d140000000000000000000000000000000000bf
:101d240004082c0008540800000000000000000013
:101d34000000000000000000ac0800001a000000d1
:101d440082000000686a6c00747a4c000000010094
:101d54000002000004000800001000000000200041
:101d64002b2d230030000000d008000002000000ea
:101d740080000000c608000004000000820000008b
:101d84000600000000000000ca0800000400000073
:101d940080000000d2080000020000008000000063
:041da400000000003b
:020000040000fa
:101da8000000fa008421ef008e21ef009821ef0057
:101db800f0782000000c8800f0ee2e00500c88000f
:101dc800f03f2000a00c88005620ef005820ef00bc
:101dd8005a20ef006e20ef007020ef007220ef0015
:101de8008621ef009021ef009a21ef00f0002000fb
:101df800400c8800c0242e00900c88007000200041
:101e0800e00c880001088000f00b200000816000d1
:101e1800600420007105200003102000804978002c
:101e28008149780082497800811d800000fc2f00dc
:101e3800008060007000b300801d8800f11e8000e3
:101e480000fc2f00008060003000b300f01e880006
:101e580000088000000178000260a00060042000f3
:101e6800710520000310200080497800814978001e
:101e7800824978000080fa00000006000000fa009d
:101e880080002000002888000225ef00001a2000aa
:101e9800402888000a25ef000c25ef000e25ef00ea
:101ea8001025ef001225ef001425ef0001e5a8002a
:101eb8000345a8000080fa00000006000000fa00b0
:101ec8000000000010288000610060000000e000b1
:101ed800fcff320010288000620060000000e00073
:101ee800010032000225a900302880000040780057
:101ef8000080fa00000006000200fa00004f780097
:101f080000000000112880000020200000806000f0
:101f18000000e000fbff3a001e80fb00202888003c
:101f28000080fa00000006000000fa001028800077
:101f38000080fa0000000600000f78009e0078007c
:101f480001408800ffff37000000fa00c088200029
:101f580080077800408a2000000188000080fa008d
:101f6800000006003600f8008020a9000000eb0001
:101f7800f1ff07003600f800f3ff07008040a900d2
:101f880010002000ecff07003600f8008060a90070
:101f980020002000e8ff07003600f8008080a90034
:101fa80030002000e4ff07000000fa007cff070073
:101fb8003000070004000700aefe0700afff07006f
:101fc8000080fa00000006000000fa000001eb00a3
:101fd800600420007105200003102000804978006b
:101fe800814978008249780000122300100888008f
:101ff8000621ef006821ef006a21ef006c21ef0055
:0c2008000821ef000080fa000000060034
:020000040000fa
:10201400f03fb1000180b10006003500ee03090075
:1020240000000000403fb1000180b100fbff3d0013
:102034001000b000203fb00002003500008009000d
:0820440000000000000006008e
:020000040000fa
:10204c000000fa000600070020d32800c8f907009a
:10205c0000402200410f2000ebff0700faff370081
:10206c000000fa00cfff07000080fa000000060015
:10207c000000fa0031058000f0ff280000806000ad
:10208c0000c0a000300588000080fa0000000600a7
:020000040000fa
:020000040002f8
:04aff000ffc300009b
:020000040000fa
:020000040002f8
:04aff400fff7000063
:020000040000fa
:020000040002f8
:04aff800bfb90000dd
:020000040000fa
:020000040002f8
:04affc003f3f0000d3
:00000001FF
