:020000040000fa
:080000000002040000000000f2
:020000040000fa
:0400080004030000ed
:020000040000fa
:04000c00881a00004e
:020000040000fa
:040010009a1a000038
:020000040000fa
:04001400901a00003e
:020000040000fa
:04001800a21a000028
:020000040000fa
:04001c0004030000d9
:020000040000fa
:0400200004030000d5
:020000040000fa
:0400240004030000d1
:020000040000fa
:0400280004030000cd
:020000040000fa
:04002c0004030000c9
:020000040000fa
:0400300004030000c5
:020000040000fa
:0400340004030000c1
:020000040000fa
:0400380004030000bd
:020000040000fa
:04003c0004030000b9
:020000040000fa
:0400400004030000b5
:020000040000fa
:0400440004030000b1
:020000040000fa
:0400480004030000ad
:020000040000fa
:04004c0004030000a9
:020000040000fa
:0400500004030000a5
:020000040000fa
:0400540004030000a1
:020000040000fa
:04005800040300009d
:020000040000fa
:04005c000403000099
:020000040000fa
:040060000403000095
:020000040000fa
:040064000403000091
:020000040000fa
:04006800040300008d
:020000040000fa
:04006c000403000089
:020000040000fa
:040070000403000085
:020000040000fa
:040074000403000081
:020000040000fa
:04007800040300007d
:020000040000fa
:04007c000403000079
:020000040000fa
:040080000403000075
:020000040000fa
:040084000403000071
:020000040000fa
:04008800040300006d
:020000040000fa
:04008c000403000069
:020000040000fa
:040090000403000065
:020000040000fa
:040094000403000061
:020000040000fa
:04009800040300005d
:020000040000fa
:04009c000403000059
:020000040000fa
:0400a0000403000055
:020000040000fa
:0400a4000403000051
:020000040000fa
:0400a800040300004d
:020000040000fa
:0400ac000403000049
:020000040000fa
:0400b0000403000045
:020000040000fa
:0400b4000403000041
:020000040000fa
:0400b800040300003d
:020000040000fa
:0400bc000403000039
:020000040000fa
:0400c0000403000035
:020000040000fa
:0400c4000403000031
:020000040000fa
:0400c800040300002d
:020000040000fa
:0400cc000403000029
:020000040000fa
:0400d0000403000025
:020000040000fa
:0400d4000403000021
:020000040000fa
:0400d800040300001d
:020000040000fa
:0400dc000403000019
:020000040000fa
:0400e0000403000015
:020000040000fa
:0400e4000403000011
:020000040000fa
:0400e800040300000d
:020000040000fa
:0400ec000403000009
:020000040000fa
:0400f0000403000005
:020000040000fa
:0400f4000403000001
:020000040000fa
:0400f80004030000fd
:020000040000fa
:0400fc0004030000f9
:020000040000fa
:0401000004030000f4
:020000040000fa
:0401040004030000f0
:020000040000fa
:0401080004030000ec
:020000040000fa
:04010c0004030000e8
:020000040000fa
:0401100004030000e4
:020000040000fa
:0401140004030000e0
:020000040000fa
:0401180004030000dc
:020000040000fa
:04011c0004030000d8
:020000040000fa
:0401200004030000d4
:020000040000fa
:0401240004030000d0
:020000040000fa
:0401280004030000cc
:020000040000fa
:04012c0004030000c8
:020000040000fa
:0401300004030000c4
:020000040000fa
:0401340004030000c0
:020000040000fa
:0401380004030000bc
:020000040000fa
:04013c0004030000b8
:020000040000fa
:0401400004030000b4
:020000040000fa
:0401440004030000b0
:020000040000fa
:0401480004030000ac
:020000040000fa
:04014c0004030000a8
:020000040000fa
:0401500004030000a4
:020000040000fa
:0401540004030000a0
:020000040000fa
:04015800040300009c
:020000040000fa
:04015c000403000098
:020000040000fa
:040160000403000094
:020000040000fa
:040164000403000090
:020000040000fa
:04016800040300008c
:020000040000fa
:04016c000403000088
:020000040000fa
:040170000403000084
:020000040000fa
:040174000403000080
:020000040000fa
:04017800040300007c
:020000040000fa
:04017c000403000078
:020000040000fa
:04018000be190000a4
:020000040000fa
:040184000403000070
:020000040000fa
:04018800040300006c
:020000040000fa
:04018c000403000068
:020000040000fa
:040190000403000064
:020000040000fa
:040194000403000060
:020000040000fa
:04019800040300005c
:020000040000fa
:04019c000403000058
:020000040000fa
:0401a0000403000054
:020000040000fa
:0401a4000403000050
:020000040000fa
:0401a800040300004c
:020000040000fa
:0401ac000403000048
:020000040000fa
:0401b0000403000044
:020000040000fa
:0401b4000403000040
:020000040000fa
:0401b800040300003c
:020000040000fa
:0401bc000403000038
:020000040000fa
:0401c0000403000034
:020000040000fa
:0401c4000403000030
:020000040000fa
:0401c800040300002c
:020000040000fa
:0401cc000403000028
:020000040000fa
:0401d0000403000024
:020000040000fa
:0401d4000403000020
:020000040000fa
:0401d800040300001c
:020000040000fa
:0401dc000403000018
:020000040000fa
:0401e0000403000014
:020000040000fa
:0401e4000403000010
:020000040000fa
:0401e800040300000c
:020000040000fa
:0401ec000403000008
:020000040000fa
:0401f0000403000004
:020000040000fa
:0401f4000403000000
:020000040000fa
:0401f80004030000fc
:020000040000fa
:0401fc0004030000f8
:020000040000fa
:0402080004030000eb
:020000040000fa
:04020c0004030000e7
:020000040000fa
:0402100004030000e3
:020000040000fa
:0402140004030000df
:020000040000fa
:0402180004030000db
:020000040000fa
:04021c0004030000d7
:020000040000fa
:0402200004030000d3
:020000040000fa
:0402240004030000cf
:020000040000fa
:0402280004030000cb
:020000040000fa
:04022c0004030000c7
:020000040000fa
:0402300004030000c3
:020000040000fa
:0402340004030000bf
:020000040000fa
:0402380004030000bb
:020000040000fa
:04023c0004030000b7
:020000040000fa
:0402400004030000b3
:020000040000fa
:0402440004030000af
:020000040000fa
:0402480004030000ab
:020000040000fa
:04024c0004030000a7
:020000040000fa
:0402500004030000a3
:020000040000fa
:04025400040300009f
:020000040000fa
:04025800040300009b
:020000040000fa
:04025c000403000097
:020000040000fa
:040260000403000093
:020000040000fa
:04026400040300008f
:020000040000fa
:04026800040300008b
:020000040000fa
:04026c000403000087
:020000040000fa
:040270000403000083
:020000040000fa
:04027400040300007f
:020000040000fa
:04027800040300007b
:020000040000fa
:04027c000403000077
:020000040000fa
:040280000403000073
:020000040000fa
:04028400040300006f
:020000040000fa
:04028800040300006b
:020000040000fa
:04028c000403000067
:020000040000fa
:040290000403000063
:020000040000fa
:04029400040300005f
:020000040000fa
:04029800040300005b
:020000040000fa
:04029c000403000057
:020000040000fa
:0402a0000403000053
:020000040000fa
:0402a400040300004f
:020000040000fa
:0402a800040300004b
:020000040000fa
:0402ac000403000047
:020000040000fa
:0402b0000403000043
:020000040000fa
:0402b400040300003f
:020000040000fa
:0402b800040300003b
:020000040000fa
:0402bc000403000037
:020000040000fa
:0402c0000403000033
:020000040000fa
:0402c400040300002f
:020000040000fa
:0402c800040300002b
:020000040000fa
:0402cc000403000027
:020000040000fa
:0402d0000403000023
:020000040000fa
:0402d400040300001f
:020000040000fa
:0402d800040300001b
:020000040000fa
:0402dc000403000017
:020000040000fa
:0402e0000403000013
:020000040000fa
:0402e400040300000f
:020000040000fa
:0402e800040300000b
:020000040000fa
:0402ec000403000007
:020000040000fa
:0402f0000403000003
:020000040000fa
:0402f40004030000ff
:020000040000fa
:0402f80004030000fb
:020000040000fa
:0402fc0004030000f7
:020000040000fa
:0403000004030000f2
:020000040000fa
:0403040004030000ee
:020000040000fa
:0403080004030000ea
:020000040000fa
:04030c0004030000e6
:020000040000fa
:0403100004030000e2
:020000040000fa
:0403140004030000de
:020000040000fa
:0403180004030000da
:020000040000fa
:04031c0004030000d6
:020000040000fa
:0403200004030000d2
:020000040000fa
:0403240004030000ce
:020000040000fa
:0403280004030000ca
:020000040000fa
:04032c0004030000c6
:020000040000fa
:0403300004030000c2
:020000040000fa
:0403340004030000be
:020000040000fa
:0403380004030000ba
:020000040000fa
:04033c0004030000b6
:020000040000fa
:0403400004030000b2
:020000040000fa
:0403440004030000ae
:020000040000fa
:0403480004030000aa
:020000040000fa
:04034c0004030000a6
:020000040000fa
:0403500004030000a2
:020000040000fa
:04035400040300009e
:020000040000fa
:04035800040300009a
:020000040000fa
:04035c000403000096
:020000040000fa
:040360000403000092
:020000040000fa
:04036400040300008e
:020000040000fa
:04036800040300008a
:020000040000fa
:04036c000403000086
:020000040000fa
:040370000403000082
:020000040000fa
:04037400040300007e
:020000040000fa
:04037800040300007a
:020000040000fa
:04037c000403000076
:020000040000fa
:040380000403000072
:020000040000fa
:04038400040300006e
:020000040000fa
:04038800040300006a
:020000040000fa
:04038c000403000066
:020000040000fa
:040390000403000062
:020000040000fa
:04039400040300005e
:020000040000fa
:04039800040300005a
:020000040000fa
:04039c000403000056
:020000040000fa
:0403a0000403000052
:020000040000fa
:0403a400040300004e
:020000040000fa
:0403a800040300004a
:020000040000fa
:0403ac000403000046
:020000040000fa
:0403b0000403000042
:020000040000fa
:0403b400040300003e
:020000040000fa
:0403b800040300003a
:020000040000fa
:0403bc000403000036
:020000040000fa
:0403c0000403000032
:020000040000fa
:0403c400040300002e
:020000040000fa
:0403c800040300002a
:020000040000fa
:0403cc000403000026
:020000040000fa
:0403d0000403000022
:020000040000fa
:0403d400040300001e
:020000040000fa
:0403d800040300001a
:020000040000fa
:0403dc000403000016
:020000040000fa
:0403e0000403000012
:020000040000fa
:0403e400040300000e
:020000040000fa
:0403e800040300000a
:020000040000fa
:0403ec000403000006
:020000040000fa
:0403f0000403000002
:020000040000fa
:0403f40004030000fe
:020000040000fa
:0403f80004030000fa
:020000040000fa
:0403fc0004030000f6
:020000040000fa
:100400000fa320000e7f22000e01880000000000d4
:10041000000020000000e000020032000001200087
:100420002002880014000700790007000000e000a7
:1004300003003a0080a321000100200002003700e1
:100440000000200001002000810f70000100320038
:1004500014000700000020000000e000020032004d
:100460000000020000000000ea1902000000000085
:100470000040da000000fe004440a900c00c20004b
:100480000000e000030032000020200090018800fe
:100490004440a800000006008a1f78008b1f7800e7
:1004a00000000600a1028800800478000000eb0034
:1004b0001f003700e284440054a0b4009905ba003c
:1004c000e284440054a0b4009906ba00e2844400d7
:1004d00054a0b4000006eb00476fde00fd07b20039
:1004e000ae018800636ce10003003a00eaff0700f8
:1004f0000000eb000e003700606ce10008003a00dd
:10050000004deb000a05e800020039003420ec0041
:100510000af0a0008b05e900f9ff3e000400370057
:100520006168e100010032000086eb000b0007006b
:1005300019c7ba001905ba000e04e00003003a001a
:100540000a00e000dbff3a0000000600fe07b200f0
:10055000ae0288008a047800f5ff37000cd0a300b3
:10056000e20f4d001c00390089027800354dba00b9
:100570000a05e800020039003420ec000af0a0006f
:100580008b05e9000f003200254dba000a05e8008e
:10059000020039003420ec000af0a0008b05e900cd
:1005a000080032000c00e0000600320015cdba0051
:1005b0000a05e800020039003420ec000af0a0002f
:1005c0008b05e9008984e80054a0b4000b00e0002a
:1005d000e2ff3a00000006009902ba00055d7800cb
:1005e0008b05e900f7ff3200c82ade00055d7800c0
:1005f0008b05e900f3ff32000c00e000f1ff320050
:1006000019ddba00eeff37000040da000000fe00fe
:10061000000005008001780002003700b159780021
:100620000201e9000200e000fcff3a0000000600c1
:100630008001780002003700815978000201e9004a
:0c0640000200e000fcff3a000000060091
:020000040000fa
:10064c00120100000002000002000000000800007f
:10065c00d80400000a0000000001000001020000a4
:10066c00000100000902000043000000020100002c
:10067c0000c000003209000004000000000100006e
:10068c000202000001000000052400000010000020
:10069c0001040000240200000205000024060000f2
:1006ac00000100000524000001000000010700000b
:1006bc00058100000308000000020000090400008e
:1006cc0001000000020a000000000000000700000a
:1006dc0005020000024000000000000007050000b9
:1006ec008202000040000000000000000403000033
:1006fc0009040000360300004d00000069000000f2
:10070c0063000000720000006f0000006300000036
:10071c00680000006900000070000000200000006c
:10072c005400000065000000630000006800000039
:10073c006e0000006f0000006c0000006f000000f5
:10074c0067000000790000002c0000002000000071
:10075c00490000006e000000630000002e00000045
:10076c00220300005500000053000000420000006e
:10077c002000000020000000530000006500000075
:10078c007200000069000000610000006c000000b5
:10079c0020000000500000006f00000072000000fc
:1007ac0074000000388300007c830000808300000c
:1007bc00b6830000486500006c6c00006f200000e0
:1007cc00467200006f6d000020550000534200007f
:0807dc000d0a000000000000fe
:020000040000fa
:1007e4000200fa009ec0a9008ac1a8000080eb00a4
:1007f400702088000080eb00502088002a24ef003d
:10080400420020008000eb00c042200087ff070068
:1008140020002000302188002824ef000644a9008d
:10082400f009200080208800f00920006020880062
:1008340002c4a8000804a80000a020004800de00ac
:10084400c02088000040eb00004f7800070037000c
:100854001e80fb00c200dd0000a0200000814000db
:100864006000b8000089be001e4fe8001e407800fa
:10087400eb4f5000f6ff36001424a8001624ef00b6
:1008840014a4a9001424a90080002000502088008a
:10089400608e20008040eb0001487800c08e20006c
:1008a4008040eb0001487800d08e20009040780012
:1008b400e0c0600001487800e08e2000904078009d
:1008c400e0c06000014878005020800068006000ab
:1008d4000000e000ecff3a0010c0b30013e8b700da
:1008e40010c0b30014e8b7001568ef001668ef00f5
:1008f4000d68ef000040eb00004f78001500370052
:100904001e80fb0080004000e08d2000008040003d
:100914008000eb00010878001e80fb00800040008e
:10092400808d2000008040008000eb0001087800ea
:100934001e80fb00118f20000041eb0082707800c4
:100944001e80fb00418f20000041eb008270780084
:100954001e4fe8001e407800e24f5000e8ff3600ca
:1009640080a02000f0468800d0002000502188009c
:10097400708f20001050880000a0200081c0b300b8
:100984000148780010a0200041c0b300014878005d
:1009940010a020009040780000c8b30080c0700010
:1009a40010a02000014878000268ef001828ef002a
:1009b4001a28ef001c68ef000028ef000080fa00fe
:1009c400000006000200fa0000408000e10f500021
:1009d4000b003a00a1208000000420000080600089
:1009e4000000e00006003a000080eb005020880080
:1009f4000c04a8000c84a8002000200000408800fb
:100a040000208000700060000000e0000700320059
:100a140010208000700060000000e000030032003d
:100a24000001200000208800ca0407004020800044
:100a3400620060000000e000020032008ec0a900e5
:100a4400a100370050208000610060000000e00039
:100a54000a00320060208000610060000000e000b5
:100a6400060032005eff07009ec0a8004000200080
:100a74000040880010002000502088005020800092
:100a8400700060000000e00005003200602080007b
:100a9400700060000000e00001003200a0040700c4
:100aa4000120800000042000008060000000e000bd
:100ab4000300320000042000002088000d07070016
:100ac40050208000640060000000e0001400320048
:100ad40060208000640060000000e0000400320038
:100ae400120020008000eb0030072000f809070006
:100af400400020005020880011c8bf000004e0001e
:100b04000300320011c8bf000040e90011e8b7003b
:100b140011c8bf000004e00001003a00a50107006d
:100b24005120800000082000008060000000e000e8
:100b34000600320061208000000820000080600070
:100b44000000e0000100320058040700502080003b
:100b5400620060000000e0000c00320060208000b1
:100b6400620060000000e000080032001200200073
:100b74008000eb00f0ff2700d50907000080eb00a0
:100b84007020880020002000502088000040800051
:100b9400e30f500002003e008ec0a9004a00370057
:100ba40060208000680060000000e0004500320022
:100bb4000040eb00004f78003d00370050208000db
:100bc400680060000000e0003d00320090208000da
:100bd400004078000ee8b7000ec8bf000080fb009c
:100be4004400de00004078000fe8b70080002000d9
:100bf400502088000ec8bf00684060000004e00078
:100c040011003a000fc8bf000081fb008080fb0088
:100c1400408f2000008040009040780061c0600058
:100c24000004a200e1406000408f20000000410069
:100c3400e1c06000104178000204a100814071000d
:100c440001487800100037000fc8bf000081fb0086
:100c54008080fb00108f20000080400090407800ce
:100c640061c060000004a200e1406000108f200019
:100c740000004100e1c06000104178000204a100be
:100c840081407100014878000fc8bf000004e000f3
:100c940002003a003b040700040037000001eb00a7
:100ca400e180200020072000890907001e4fe8008a
:100cb4001e407800e34f5000c0ff360001003700ab
:100cc400000000008ec0a9000080fa0000000600a9
:100cd4000400fa0020479800314798003e409000f5
:100ce4000080fb00680060000000e00003003200a8
:100cf4008040eb002e409000a10107003e40900090
:100d04000080fb00640060000000e000030032008b
:100d140011c0b3002e40900099010700a1422000a9
:100d24002e4090000080fb0000004000008f400037
:100d34001e007800be409000014878000080fa0050
:100d4400000006000800fa00204798003147980088
:100d540022079800634798003e4090000004e0009a
:100d6400070032002e4090000080fb00800040000d
:100d7400e08d200000804000100f7800060037004e
:100d84002e4090000080fb0080004000808d2000f9
:100d940000804000100f78001e0078000000e00082
:100da40002003a000000eb0037003700ae0090006c
:100db4001e007800110098001e007800ee4090009c
:100dc400014878001e0078001040900002c4b3006f
:100dd400824060001e007800114098001e007800d8
:100de40010409000804078000134a0001e0078007c
:100df400114098001e0078009040900000c8b30095
:100e040080c070001e007800114098003e409000a1
:100e14000004e0000e003200e18d20002e4090001e
:100e24000080fb000000400080804000e28d200034
:100e34002e4090000080fb000000400000004100b4
:100e4400104078000024a200804878000d0037008c
:100e5400818d20002e4090000080fb0000004000a7
:100e640080804000828d20002e4090000080fb0096
:100e74000000400000004100104078000024a2005f
:100e8400804878001e0078000080fa000000060008
:100e94000400fa0020479800314798002e40900043
:100ea4000004e00019003a003040800081c0b30023
:100eb4000148780030408000718f200011009800b4
:100ec40030408000c1c0b300114098003040800021
:100ed400314080001141900001c8b300814071008d
:100ee40011409800f046800041c0b30011409800c2
:100ef400f0468000f14680001141900001c8b30023
:100f040081407100114098002e0037002e4090005f
:100f14000080fb0000004000800078003e4090000c
:100f24000080fb00008040004300dd00800078006a
:100f340000a02000008f40001e00780010409000a8
:100f4400804078000124a0001e0078001140980021
:100f54001e0078009040900000c8b30080c070006c
:100f64001e007800114098002e4090000080fb0085
:100f740000004000800078003e4090000080fb00ac
:100f8400008040004300dd00e400400000a0200099
:100f9400008f40001e0078001040900080407800d0
:100fa4000124a0001e007800114098001e00780063
:100fb4009040900000c8b30080c070001e0078000c
:100fc400114098000080fa00000006000200fa00b8
:100fd400004f7800a1208000000220000080600003
:100fe4000000e000510032001e80fb008000400041
:100ff400e08d200000804000100278001e80fb007d
:1010040080004000e08d2000008040001000780047
:101014001001be00000420000100200082027800bc
:101024000301780080017800010078008382620067
:10103400000061008000eb00c000dd000000200023
:101044000001be006128b8000001710081817100b7
:10105400028abe001e80fb0080004000e08d20005c
:1010640000804000100278001e80fb0080004000d9
:10107400e08d200000804000100078001001be00c8
:101084000004200001002000000069008180690044
:10109400008abe00e18d20001e80fb00000040009d
:1010a40080804000e28d20001e80fb000000400094
:1010b40000004100104078000024a200804878001d
:1010c4001e80fb0080004000e08d20000080400076
:1010d400900078001e80fb0000014000e08d20009d
:1010e4000000410010007800104090000044b2005d
:1010f400904098001e80fb0080004000e08d20009e
:1011040000804000900078001e80fb000001400039
:10111400e08d200000004100100078001041900094
:1011240000c4b30000406900904098000080fa00b9
:10113400000006000000fa001424ef000c24ef0065
:101144000028ef000080fa00000006000000fa000a
:10115400004080000000e00014003a001424ef0076
:101164000c24ef0020002000302188002824ef0008
:101174000644a900f009200080208800f00920001e
:101184006020880002c4a8009ec0a80001003700a7
:101194001404a800a0208000610060000000e000aa
:1011a400fbff320010002000004088000080fa009d
:1011b400000006000000fa0013c8bf000004a200eb
:1011c4000004e0003600320010c0b30013e8b7009a
:1011d40014c8bf000004a2000004e0003000320084
:1011e40010c0b30014e8b70009c8bf00e24f5000b4
:1011f4000d003a00f04680008040eb000148780082
:10120400f046800081c4b30011409800f04680008d
:10121400f14680001141900001c8b3008140710083
:10122400114098001e00370009c8bf00e14f50006c
:101234001b003a001068ef002040800081c0b3001a
:101244000148780020408000718f20001100980030
:101254002040800041c0b30011409800204080002d
:10126400214080001141900001c8b3008140710009
:101274001140980010c0b30010e8b700304080005f
:1012840081c0b3000148780030408000718f200095
:10129400110098003040800001c8b300114098004c
:1012a4000080fa00000006000000fa001568ef0054
:1012b4001668ef0009c8bf00e24f500010003a0062
:1012c4003040800081c0b300014878003040800085
:1012d400f18f2000110098003040800081c4b300d9
:1012e400114098003040800031408000114190004e
:1012f40001c8b30081407100114098001e003700fe
:10130400d08f20001080fb00e18f20009180fb0033
:10131400c808dd00010070008000780040478000ac
:10132400808f500007003100d08f20001080fb0018
:10133400e18f20009180fb00c808dd0001007000ef
:10134400404788009b000700f0468000f18f200092
:1013540011009800f046800081c4b3001140980049
:10136400f0468000f14680001141900001c8b300ae
:1013740081407100114098000080fa0000000600ce
:101384000400fa00204798003147980000a020008c
:10139400000f78002e4090000080fb000000400009
:1013a400800078003e4090000080fb0000804000f8
:1013b4004300dd001e0f40001e007800100178007d
:1013c400f1ff270081006100010878003e40900091
:1013d4000004e00007003a002e4090000080fb006b
:1013e40080004000808d2000008040001e087800ae
:1013f400060037002e4090000080fb008000400073
:10140400e08d2000008040001e0878001e00780057
:101414009000780001e0a100010878009e007800a7
:10142400648040009000780001e0a000010878008a
:101434000080fa00000006000000fa0014a4a900cd
:101444003147800000082000008060000000e000b8
:1014540029003a00c08e20009040780000c8b300f4
:1014640000c060000004e0000a00320020c0b300a5
:1014740009e8b70016c8bf000004a2000004e00099
:101484000100320088ff07001468ef001368ef00c2
:10149400460037003040800081c0b3000148780026
:1014a40030408000718f200011009800304080008f
:1014b400c1c0b3001140980030408000314080002a
:1014c4001141900001c8b30081407100114098009f
:1014d400f046800041c0b30011409800f0468000ff
:1014e400f14680001141900001c8b30081407100b1
:1014f400114098002d003700708f20009040780034
:1015040000c8b30000c060000004e0000f00320017
:1015140010c0b30009e8b70015c8bf000004a2005a
:101524000004e000010032005fff07001468ef00d0
:101534001368ef0012c8bf000004a2000004e0001a
:101544001a0032001bff07001800370020c0b30048
:1015540009e8b7003040800081c0b300014878003a
:1015640030408000718f20001100980030408000ce
:1015740041c0b300114098003040800031408000e9
:101584001141900001c8b3008140710011409800de
:101594001468ef001368ef0012c8bf000004a20033
:1015a4000004e0000100320002ff07000080fa009e
:1015b400000006000200fa0080c0b300004f78006b
:1015c40040478000e70f50000d003e004047800078
:1015d400004f780008c8bf000004e00003003a0090
:1015e40010c0b30008e8b7000500370008c8bf0002
:1015f400e14f500002003a0020c0b30008e8b700f1
:10160400414780001e80fb00008050004047880056
:10161400f04680001e487800f08f2000504088007b
:1016240030478000610060000000e00017003a00cd
:1016340009003700514080002047800010417800a5
:10164400824878008100e800514088000000e800ea
:10165400204788001e4fe9001e4078000004e00087
:10166400f4ff3a000c00370051408000204780000e
:1016740010417800824878008100e80051408800d9
:101684000000e800204788001e4fe9001e40780053
:101694000004e000f4ff3a000080fa0000000600b5
:1016a4000200fa0020408000104f78009e80fb006a
:1016b400d08e20001080fb00e28e20001281fb00ff
:1016c4004811dd0002007000808f500007003600d2
:1016d400d08e20001080fb00e18e20009180fb0062
:1016e400c808dd0001007000004f7800d08e200093
:1016f4001080fb00e18e20009180fb00c808dd0013
:1017040001007000800078001e80fb000080500003
:10171400f10f200001016000d18e2000914178007a
:10172400e0c1610002c1710082487800c800de0097
:10173400e08e20001041780060416100814071001a
:10174400014878000040eb00104798001c00370067
:10175400a08e20001080fb00b18e20009180fb0041
:10176400c808dd00010070009e4090008180fb00ed
:10177400f28f2000e2c07800014878000000e80001
:10178400f10f200001016000a18e2000914178003a
:10179400e0c1610002c1710082487800c800de0027
:1017a400b08e2000104178006041610081407100da
:1017b400014878001e4090000040e800104798005f
:1017c4001e4090009e4f5000e1ff3900d08e200053
:1017d4001080fb00e18e20009180fb00c808dd0032
:1017e400010070000000e000200032003040800062
:1017f40081c0b3000148780030408000f18f2000a0
:10180400110098002040800090007800000024001f
:10181400008060000000e0000a003a0030408000d0
:1018240081c4b300114098003040800031408000f2
:101834001141900001c8b30081407100114098002b
:10184400310037003040800081c0b300114098005f
:1018540030408000314080001141900001c8b30045
:10186400814071001140980027003700304080000b
:1018740081c0b3000148780030408000718f20009f
:10188400110098003040800041c0b300114098001e
:1018940030408000314080001141900001c8b30005
:1018a4008140710011409800f08e20001080fb00f0
:1018b400018f20009180fb00c808dd00010070004a
:1018c4000000e00007003200f08e20001080fb00d2
:1018d400018f20009180fb00c808dd00010070002a
:1018e40000000100c08e2000904078000174a10027
:1018f4000148780012c8bf000004a2000004e00000
:10190400010032002bfe07000080fa0000000600f0
:101914000200fa00304780000070a00030478800c1
:10192400420020008000eb00c04220003ffb070083
:10193400020320008000eb0000a020003bfb070016
:101944001424a8000040eb00004f78000900370081
:101954001e80fb00118f20000041eb008270780094
:101964001e80fb00418f20000041eb008270780054
:101974001e4fe8001e407800e24f5000f4ff36008e
:10198400220020008000eb00608d200027fb070070
:101994001424a90080a02000f046880000a02000a4
:1019a400204088002040800030408800908f200034
:1019b4001040780002e8b70002c8bf000004e0004d
:1019c40003003a00000120000040880006003700b0
:1019d4001200200021802000100020003c06070097
:1019e40000022000004088000080fa000000060089
:1019f4000000fa00708f20009040780000c8b30007
:101a040080cf500047003a00608e200001ccb30024
:101a140001487800a08f2000104078000080fb006f
:101a2400e20f500009003200e30f5000230032009f
:101a3400e10f500037003a00603228002047880048
:101a4400200120004047880036003700908f200096
:101a5400104078000004e00014003a00908f200049
:101a6400104078000080fb000000400080007800f7
:101a7400803d280000804000100078002047880046
:101a8400204780000080e80090407800808e20008d
:101a940001487800204780006300400090407800af
:101aa400908e2000014878001e003700608e2000d0
:101ab4008040eb00014878001a003700908f200026
:101ac40010407800e24f50000e003e00908f20003e
:101ad400104078000080fb00000040008000780087
:101ae400a03d2800008040001000780020478800b6
:101af40020478000104078000080fb0040478800a9
:101b040008003700608e20008040eb000148780018
:101b140004003700608e20008040eb00014878000c
:101b2400000000000080fa00000006000200fa0035
:101b3400f08f20008040eb000148780000902000e6
:101b44008040eb0001487800708f200090407800be
:101b54007fc060000080fb00e10f500011003200e4
:101b6400e20f5000130032000000e00040003a0091
:101b7400304780000070a000304788000cc8bf00c8
:101b84000004e00035003200f08f2000104078009f
:101b9400804078000114a000f08f200001487800f4
:101ba40033003700304780000070a00030478800c1
:101bb4002f003700304780000070a00030478800b5
:101bc400b08f20009040780000c8b30000c06000cf
:101bd4000004e00009003a00b08f20009040780033
:101be4006fc060000080fb0080004000808d2000fa
:101bf40000804000100f780008003700b08f2000ec
:101c0400904078006fc060000080fb0080004000be
:101c1400e08d200000804000100f78001e00780046
:101c24009000780000002800008060000000e000c0
:101c34000c0032001e007800900078000040200064
:101c4400008060000000e00008003200f08f2000f7
:101c540011c0b300014878000500370000000000ff
:101c640003003700000000000100370000000000fe
:101c74003147800000082000008060000000e00080
:101c840008003200f08f2000204788003047800091
:101c94000000a00030478800808e200021c0b300df
:101ca400014878000080fa00000006000000fa00f5
:101cb40050218000620060000000e0001400320047
:101cc400204080009040900000c8b30080cf5000b6
:101cd4000e003a00f04680009040900040c8b300e7
:101ce40080cf500009003a0020408000c1c0b300fa
:101cf4001140980020408000214080001141900054
:101d040001c8b30081407100114098002a24a90041
:101d140000082000502088000080fa00000006001f
:101d24000000fa000284a80000012000502088006e
:101d340010c0b3000de8b7001c68ef000001eb0011
:101d44008000eb0050072000610507000080fa00c6
:101d5400000006000000fa000d68ef000001eb002f
:101d64008000eb0040072000590507000284a90009
:101d740000012000002088001c68ef000080fa00a9
:101d8400000006000000fa00d0c2b30011e8b7005a
:101d94000ec8bf000080fb000020a1000000e0008e
:101da40021003a000ec8bf000080fb004200de00a4
:101db400004078000080fb00c200dd0000a020008d
:101dc400008040002040880020408000304088008f
:101dd4006080200061802000914078000124a200ee
:101de40001487800204080009000780000c0230063
:101df4008080600000402300808f500008003a007b
:101e040020408000100090008200200080007800b4
:101e1400708f2000fef907000b0007000800370050
:101e240041000700060037000ec8bf000080fb0019
:101e34000020a100e80f500001003a0058000700fc
:101e44000080fa00000006000000fa000868ef00b5
:101e54001268ef001568ef001668ef001068ef00d5
:101e64000968ef00f0468000f14680009140900040
:101e74000174a10011409800e08d2000e18d200044
:101e8400914078000124a20001487800f0468000c7
:101e9400f1468000914090000174a1001140980027
:101ea400e08d2000e18d2000914078000124a20003
:101eb400014878003040800031408000914090001b
:101ec4000174a10011409800608e20008040eb0056
:101ed400014878000000eb0040478800c08e2000d5
:101ee4008040eb0001487800d08e200090407800bc
:101ef400e0c0600001487800e08e20009040780047
:101f0400e0c0600001487800880007000001eb0091
:101f14008000eb0030002000ed04070046fd0700c0
:101f24000080fa00000006000000fa0009c8bf00a3
:101f3400e24f500002003a00d9fd070016003700b6
:101f44000968ef0010c8bf000004a2000004e0000c
:101f5400100032003040800081c0b3000148780096
:101f640030408000718f20001100980030408000c4
:101f7400c1c0b3001140980030408000314080005f
:101f84001141900001c8b3008140710011409800d4
:101f9400010037001068ef000080fa00000006001e
:101fa4000200fa00f0468000100078004e00de00c7
:101fb40061406000004f7800e08d2000e18d20003a
:101fc400914078000124a20001487800004080007c
:101fd400e80f50000e003a00908f20001040780067
:101fe4008080fb00f007200000806000b0208800a3
:101ff400b02080000000e000030032000001200057
:1020040000408800020037004000200000408800a3
:1020140009c8bf00e14f500028003a00f046800094
:10202400f18f20001100980062fd070008c8bf006e
:10203400e24f50000a003a00f046800041c0b3006d
:1020440011409800f0468000f14680001141900054
:1020540001c8b3008140710011409800310037007d
:102064001e4078000004e0000a003a00f0468000b8
:1020740081c4b30011409800f0468000f14680000e
:102084001141900001c8b3008140710011409800d3
:1020940024003700f046800081c0b300114098004e
:1020a400f0468000f14680001141900001c8b30061
:1020b40081407100114098001a003700c08e200042
:1020c4009040780000c8b30000c060000004e00045
:1020d40013003200f08e20001080fb00018f2000de
:1020e4009180fb00c808dd00010070000000e000e2
:1020f40007003200f08e20001080fb00018f2000ca
:102104009180fb00c808dd000100700000000100a0
:10211400c08e2000904078000174a100014878002e
:102124000968ef000080fa00000006000000fa00d1
:10213400708f2000104078000046b2000004e000d8
:1021440050003a00808f2000104078000080fb008f
:10215400cf80de00b200200003002000820f500078
:10216400838f580049003e000060010021003700c1
:1021740022003700470037002000370045003700b1
:10218400060037000b003700390037000d00370018
:102194000a0037001b0037002a0037003047800050
:1021a4000070a000304788008000200000408800b4
:1021b400390037000efe070037003700d4fd070052
:1021c40035003700208020002047880030478000f9
:1021d4000000a00030478800808e200011c0b300aa
:1021e40001487800304780000070a0003047880024
:1021f400290037004dfe070027003700280007009c
:1022040025003700b08f2000104078008080fb004c
:10221400608d200000804000204788003047800007
:102224000000a00030478800808e200011c0b30059
:1022340001487800304780000070a00030478800d3
:1022440015003700304780000070a0003047880038
:10225400b08f2000104078000080fb00918f200098
:1022640011417800618d2000827078000a003700e7
:102274000001eb008000eb002000200014040700a4
:1022840005003700000000000300370000000000d4
:1022940001003700000000000080fa000000060082
:1022a4000600fa00908f200010407800e14f5000a3
:1022b40010003a00708f2000104078007f406000ca
:1022c4000004e0000b003a00304780000070a000da
:1022d40030478800808f200010407800e34f500082
:1022e40003003a0010c0b3000ce8b7000100370047
:1022f4000c68ef00908f2000104078000004e0008c
:10230400fa003a00708f2000104078007f4060008f
:10231400e24f5000f5003a00b08f200010407800e2
:102324006f4060000004e000f0003200b08f200035
:10233400904078006fc060000080fb00e20f500006
:10234400ea003c000140800000022000808f500021
:10235400e6003a00304780000070a0003047880053
:10236400b08f20009040780000c8b30000c0600027
:102374000004e00011003a00b08f20001041780002
:102384006f4061000080fb0080004000808d2000d1
:10239400008040001000780010079800b08f2000e3
:1023a400904078006fc060000080fb00418f2000e7
:1023b400614078004047980010003700b08f20003b
:1023c400104178006f4061000080fb0080004000f5
:1023d400e08d200000804000100078001007980075
:1023e400b08f2000904078006fc060000080fb0038
:1023f400118f200061407800404798004e409000c3
:10240400614060000004e00006003a000e80e8002d
:102414008e80e800914078000124a10001487800f2
:10242400050037000e80e8008e80e80091407800b7
:102434000124a00001487800b08f2000904078006b
:1024440000c8b30000c060000004e0000a003a00c5
:10245400b08f2000104178006f4061000080fb00c5
:102464009e00900000014000808d2000000041008b
:102474000108780009003700b08f200090407800f0
:102484006fc060000080fb009e00900000014000cf
:10249400e08d20000000410001087800808f2000ba
:1024a40010407800e34f50002b003a001e009000cb
:1024b4009000780000002800008060000000e00028
:1024c40019003200b08f20009040780000c8b3009b
:1024d40000c060000004e0000a003a00b08f200051
:1024e400104178006f4061008080fb00408f200025
:1024f40000804000904078000114a000014878005a
:1025040009003700b08f2000904078006fc0600051
:102514008080fb00108f20000080400090407800f5
:102524000114a000014878001e0090009e00900055
:10253400914090000124a000114098001e009000da
:102544009e0090001141900001c8b30081407100c9
:1025540011409800650037000e80e8008e80e80086
:10256400914078000124a200014878001e009000e8
:102574009000780000002800008060000000e00067
:10258400100032001e0090009e00900091409000c8
:102594000174a100114098001e0090009e0090005c
:1025a400914090000164a000114098001e0090002a
:1025b400220020008000780050002000440307001f
:1025c400050037001e0090009e009000914090008e
:1025d4000164a000114098000e80e8008e80e8009d
:1025e400914078000124a200014878004e409000f8
:1025f400624060000004e00006003a001e00900003
:102604009000780000002800008060000000e000d6
:1026140024003200b08f20009040780000c8b3003e
:1026240000c060000004e0000a003a00b08f2000ff
:10263400104178006f4061008080fb00408f2000d3
:1026440000804000904078000114a1000148780007
:1026540009003700b08f2000904078006fc0600000
:102664008080fb00108f20000080400090407800a4
:102674000114a100014878001e0090009e00900003
:1026840091409000b143b200114098001e009000a8
:102694002200200080007800500020000c03070076
:1026a400050037001e0090009e00900091409000ad
:1026b400b143b20011409800a1422000b08f200025
:1026c400104178006f4061000080fb000000400072
:1026d400008f40001e007800104078008040780091
:1026e4000114a1001e007800014878000080fa005f
:1026f400000006000000fa00c0408000d1408000c5
:1027040061004000e0804800c0408800d14088005b
:102714000dc8bf000004a2000004e000080032005d
:102724001cc8bf000040e8001ce8b7001cc8bf007c
:102734000004e00002003a0000c0eb001ce8b7000f
:102744000080fa00000006000400fa00c240800085
:10275400d3408000028fbe00c0408000d140800082
:102764001e01be00800f5100818f5900f7ff3a000f
:102774001e00be000080fa00000006000000fa00ff
:10278400708f2000104078007f406000e14f5000bf
:1027940079003a00708f20001040780002c6b30020
:1027a4008240600000c2b30080cf500074003a0041
:1027b400b08f2000104078000004e00004003200d4
:1027c400b08f200010407800e14f50006e003a00b6
:1027d400808f2000104078000080fb000102200060
:1027e400810f50002000320001022000810f5000b0
:1027f40005003c000000e0000a003200e10f500038
:10280400130032006100370011022000810f5000d4
:102814004400320021022000810f500049003200a0
:102824005a003700e08c20002047880080002000f8
:1028340040478800304780000000a00030478800ef
:10284400304780000070a000304788004f003700f8
:10285400e08c200020478800304780000070a000f2
:102864003047880049003700d08f20001080fb00db
:10287400e18f20009180fb00c808dd00010070009a
:10288400f10f200001016000d18e200091417800f9
:10289400e0c1610002c1710082487800c800de0016
:1028a400e08e200010417800604161008140710099
:1028b40001487800c08b2000f10f20000101600066
:1028c400a18e200091417800e0c1610002c1710035
:1028d40082487800c800de00b08e200010417800e5
:1028e400604161008140710001487800f08e200051
:1028f40090407800e0c0600001487800008f20001c
:1029040090407800e0c0600001487800c08e20004c
:102914001041780001c8b30081407100014878007b
:102924001a003700c08b2000204788007000200068
:1029340040478800608e200011ccb3000148780025
:1029440012003700908f20001080fb00a18f200020
:102954009180fb00c808dd00010070000040780091
:102964002ae8b700304780000070a0003047880094
:1029740000000000050037000000000003003700dd
:102984000000000001003700000000000080fa0091
:10299400000006000000fa0000b02400010020003e
:1029a400e0458800f1458800008c20008040eb0061
:1029b40001487800108c20008040eb00014878002a
:1029c400208c200081c0b300014878001e68ef000d
:1029d40051c1b30010c0b300bdf80700d1c1b300aa
:1029e40020c0b300baf8070003c4b300c2872000b4
:1029f4008040eb0020c0b300d2f8070030418800cb
:102a04002828ef001f68ef000080fa00000006008d
:102a14000600fa00000f78001107980022079800ba
:102a24001e007800e50f500012003a00304180008b
:102a34009e009000808f500006003a0003c4b3004b
:102a4400c28720008040eb0020c0b300bdf807001f
:102a540030418800404180009e009000808f5000eb
:102a640002003a001f68ef002468ef0010c0b300b2
:102a7400010037000040eb000080fa00000006006f
:102a84000400fa00000f7800214798001e68ef0048
:102a9400304180000000e000060032003041800038
:102aa4009000780000002800008060000000e00032
:102ab40021003a0030418000904078002e40900080
:102ac40080cf5000030031003041800090407800f6
:102ad400214798001e68ef000c0037001ec8bf0095
:102ae4000080fb001e004000e1812000914078003e
:102af4008180fb00c2872000e2c078000148780092
:102b04001ec8bf000040e8001ee8b700e1812000b5
:102b1400914078002e40900080cf5000efff3900a4
:102b240003c4b300c28720008040eb0020c0b30080
:102b340084f80700304188001ec8bf000080fa00f6
:102b4400000006000400fa00000f780021479800f6
:102b54009ec0a9001fc8bf000004e00009003a009d
:102b64009e00780001418800ae409000428220001f
:102b74000149780010c0b30025e8b70010c0b300c5
:102b84001fe8b7009ec0a8000080fa0000000600fd
:102b94000600fa00200798009ec0a9001fc8bf00c5
:102ba4000004e000020032009ec0a8001f003700ad
:102bb4000040eb00004f7800ae0090001107980031
:102bc4001e4fe8001e407800e14f40000c00320028
:102bd4001e009000104078000080fb000000ea0016
:102be4004f00de00004078009e0090008100e80065
:102bf400110798000004e000f1ff3a0001003700db
:102c0400000000002e009000004188009e407800e3
:102c1400428220000149780010c0b30025e8b700c3
:102c240010c0b3001fe8b7009ec0a8000080fa00df
:102c3400000006000600fa00200798009ec0a900c4
:102c44001fc8bf000004e000020032009ec0a800bc
:102c54001e0037000040eb00004f7800ae009000eb
:102c6400110798001e4fe8001e407800e14f400015
:102c74000c0032001e009000104078000080fb0021
:102c84000000ea004f00de00004078009e00900043
:102c94008100e800110798000004e000f1ff3a0009
:102ca40001003700000000002e0090000041880061
:102cb4009e40780042822000014978002568ef0098
:102cc40010c0b3001fe8b7009ec0a8000080fa003f
:102cd400000006000200fa009ec0a90040418000e6
:102ce4000000e000080032004041800090007800bd
:102cf40000002800008060000000e00002003200b4
:102d04009ec0a800620037001fc8bf00e34f5000f8
:102d140001003a001f68ef001fc8bf000004e00074
:102d240002003a009ec0a800590037001fc8bf0027
:102d3400e24f500009003a008041eb000001eb0033
:102d440011c0b30020c0b300fef707004041880063
:102d540030c0b3001fe8b7004c0037001fc8bf00e5
:102d6400e14f500049003a00418220009140780030
:102d740000c4b30080cf50000300360000c4b30089
:102d8400004f780003003700418220009140780012
:102d9400014f780024c8bf001e40500024e8b7004b
:102da400c0832000104188009e407800114798009d
:102db40025c8bf000004e0001f003a000d003700e2
:102dc4001041800001418000914078000148780062
:102dd400104180000000e80010418800004180009c
:102de4000000e800004188001e4090000040e90017
:102df400104798001e4090000004e000f0ff3a00e5
:102e0400100037001041800001418000914078009b
:102e140001487800104180000000e800104188005b
:102e2400004180000000e800004188001e4090003e
:102e34000040e900104798001e4090000004e000a4
:102e4400f0ff3a0024c8bf000004e00009003a0083
:102e540000c4b3009e40780080cf500003003a00c5
:102e640020c0b3001fe8b7000200370030c0b30031
:102e74001fe8b7009e417800c283200011c0b30050
:102e840020c0b300aff70700404188009ec0a800ef
:102e94000080fa00000006000000fa00a600070007
:102ea4000cc8bf000004e000010032000dc8bf00e0
:102eb4000040fe00512080000002200000806000dd
:102ec4000000e00002003a0010c0b3004100070017
:102ed400d200070010c0b3000080fa000000060012
:102ee4000000fa000cc8bf000004e0003600320005
:102ef4000dc8bf000004e000330032004020800011
:102f0400620060000000e000010032000824a90013
:102f14007500070000042000002088000000000065
:102f24000120800000042000008060000000e00018
:102f3400fbff320000042000002088000000000095
:102f44000120800000042000008060000000e000f8
:102f5400fbff320000042000002088000000000075
:102f64000120800000042000008060000000e000d8
:102f7400fbff32001444a800000420000020880055
:102f84000000000001208000000420000080600098
:102f94000000e000fbff3200000420000020880055
:102fa4000000000001208000000420000080600078
:102fb4000000e000fbff32001444a90057000700a2
:102fc40010c0b300010037000040eb000080fa009d
:102fd400000006000400fa0020479800402080000a
:102fe400610060000000e0000b003200402080001f
:102ff400620060000000e00007003a001cc8bf0047
:10300400e34f500004003600202080004300de001f
:1030140061406000320037002e4090000004e00060
:103024001d0032000824a9000804a8002e0007008f
:103034000040eb00004f7800090037000004200036
:10304400002088000000000001208000000420000f
:10305400008060000000e000fbff32001e4fe8002b
:103064001e407800e44f5000f4ff36000040eb00af
:103074001047980020208000680060000000e000f5
:103084000200320010c0b30010479800230007006c
:103094001e40900012003700402080006100600054
:1030a4000000e00002003a0000c0eb000c00370012
:1030b40040208000620060000000e00002003a004e
:1030c400e0cfb300060037001cc8bf00e34f500038
:1030d40002003e00d0cfb30001003700c0cfb300e0
:1030e4000080fa00000006000000fa003868ef00d3
:1030f4001000fc00f1048000000420000080600047
:103104000000e0000200320010c0b30038e8b7004d
:103114009ec0a9000080fa00000006000000fa002a
:1031240038c8bf000004e000010032009ec0a800bf
:103134000080fa00000006000400fa001e00fc00f3
:1031440011028000000e2000008060008041880091
:1031540011028000000e200001007000100288009f
:1031640040092000100798000000eb00000f7800d1
:103174000e0037001e009000900078001e007800ba
:103184000001400080922000000041000108780006
:103194001e0090008000eb00010878001e009000e3
:1031a4000080e800100798001e0fe8001e00780059
:1031b400e70f5000efff3600602080009041880048
:1031c4000c24ef0010208000a04188000224ef00ae
:1031d400700680004800de00674060000080fb004d
:1031e400b041880000012000002088000002200077
:1031f400502088008ec0a9000284a80071068000b7
:10320400f08f2f000080600000a0a00070068800ee
:103214009ec0a8000080fa00000006000400fa0026
:1032240040092000100798000000eb00000f780010
:103234000b0037001e0078008000400080922000c0
:1032440000804000900078001e0090000108780083
:103254001e0090000080e800100798001e0fe80090
:103264001e007800e70f5000f2ff36009041800006
:1032740060208800a041800010208800b0418000b8
:1032840000407800674060000080fb006700600039
:103294004800dd0072068000f18f2f00810061007c
:1032a400010070007006880011028000f0f12f0008
:1032b40080806000804180000100700080418800af
:1032c40080418000100288000080fa00000006009f
:1032d4000600fa00000f78001107980022079800f2
:1032e4001e00780021072000810f500018003200d2
:1032f40021072000810f50000a003c00e20f50001b
:1033040015003200e20f500003003c00e10f5000b2
:103314000b00320015003700e30f50000a003200a2
:103324001200370041072000810f50000c003200ca
:1033340041072000810f50000b0035000b003700bf
:1033440094fd0700090037000cfd07000700370053
:1033540000000000050037000000000003003700f3
:1033640000000000010037000000000010c0b3009e
:103374000080fa00000006003600f800809fbe00be
:10338400829fbe00849fbe00869fbe003200f8006c
:103394003400f80010002000a00188000020200064
:1033a400900188000000fa0086f507000080fa000a
:1033b4003400f9003200f9004f03be004f02be0092
:1033c4004f01be004f00be003600f9000040060069
:1033d4000000fa001400070000408000ff0f5000b6
:1033e40001003e000f0037004020800062006000b2
:1033f4000000e000010032000a0037001fc8bf00cf
:103404000004e00005003a00003e280009fe070021
:1034140000402200410f2000820007002dfe07001b
:10342400edff3700ecff37000000fa0063000700ef
:10343400008c20008040eb0001487800208c2000a4
:1034440081c0b30001487800108c20008040eb005c
:10345400014878000058220001002000e04588005f
:0c346400f14588000080fa00000006001e
:020000040000fa
:103470000809000020000000800000003a08000059
:103480000200000082000000ffff0000d6080000dc
:103490003200000080000000000800001e00000054
:1034a00080000000000a00003000000080000000e2
:1034b0003c0800009a000000800000001e08000088
:1034c0001200000080000000280900001000000029
:1034d00080000000300800000a00000080000000aa
:0434e00000000000e8
:020000040000fa
:1034e400000f78009e007800d1418800ffff37006c
:1034f4000000fa00809020008007780000922000ed
:10350400000188000080fa00000006003600f80080
:103514008020a9000000eb00f1ff07003600f8004e
:10352400f3ff07008040a90010002000ecff070013
:103534003600f8008060a90020002000e8ff0700a2
:103544003600f8008080a90030002000e4ff070066
:103554000000fa008421ef008e21ef009821ef0093
:1035640070782000000c8800f0fe2e00500c8800bb
:10357400f03f2000a00c88005620ef005820ef00f8
:103584005a20ef006e20ef007020ef007220ef0051
:103594008621ef009021ef009a21ef00b000200077
:1035a400400c8800c0242e00900c8800700020007d
:1035b400e00c88000080fa00000006000000fa0019
:1035c400e3ff0700250007000400070084f4070058
:1035d400def607000080fa00000006000000fa0092
:1035e4000001eb006004200071052000031020009e
:1035f40080497800814978008249780000222300bc
:103604001008880000002900300888006821ef00b5
:103614006a21ef006c21ef000821ef000080fa001e
:04362400000006009c
:020000040000fa
:10362800f03fb1000180b10006003500ee0309004b
:1036380000000000403fb1000180b100fbff3d00e9
:103648001000b000203fb0000200350000800900e3
:08365800000000000000060064
:020000040000fa
:103660000000fa0071068000f08f2f0000806000db
:103670000080a000700688000080fa0000000600ac
:020000040000fa
:020000040002f8
:04aff000ffc300009b
:020000040000fa
:020000040002f8
:04aff400ffff00005b
:020000040000fa
:020000040002f8
:04aff8009dbb0000fd
:020000040000fa
:020000040002f8
:04affc003f3f0000d3
:00000001FF
