:020000040000fa
:080000000002040000000000f2
:020000040000fa
:0400080004030000ed
:020000040000fa
:04000c0004030000e9
:020000040000fa
:0400100004030000e5
:020000040000fa
:0400140004030000e1
:020000040000fa
:0400180004030000dd
:020000040000fa
:04001c0004030000d9
:020000040000fa
:0400200004030000d5
:020000040000fa
:0400240004030000d1
:020000040000fa
:0400280004030000cd
:020000040000fa
:04002c0004030000c9
:020000040000fa
:0400300004030000c5
:020000040000fa
:0400340004030000c1
:020000040000fa
:0400380004030000bd
:020000040000fa
:04003c0004030000b9
:020000040000fa
:0400400004030000b5
:020000040000fa
:0400440004030000b1
:020000040000fa
:0400480004030000ad
:020000040000fa
:04004c0004030000a9
:020000040000fa
:0400500004030000a5
:020000040000fa
:0400540004030000a1
:020000040000fa
:04005800040300009d
:020000040000fa
:04005c000403000099
:020000040000fa
:040060000403000095
:020000040000fa
:040064000403000091
:020000040000fa
:04006800040300008d
:020000040000fa
:04006c000403000089
:020000040000fa
:040070000403000085
:020000040000fa
:040074000403000081
:020000040000fa
:04007800040300007d
:020000040000fa
:04007c000403000079
:020000040000fa
:040080000403000075
:020000040000fa
:040084000403000071
:020000040000fa
:04008800040300006d
:020000040000fa
:04008c000403000069
:020000040000fa
:040090000403000065
:020000040000fa
:040094000403000061
:020000040000fa
:04009800040300005d
:020000040000fa
:04009c000403000059
:020000040000fa
:0400a0000403000055
:020000040000fa
:0400a4000403000051
:020000040000fa
:0400a800040300004d
:020000040000fa
:0400ac000403000049
:020000040000fa
:0400b0000403000045
:020000040000fa
:0400b4000403000041
:020000040000fa
:0400b800040300003d
:020000040000fa
:0400bc000403000039
:020000040000fa
:0400c0000403000035
:020000040000fa
:0400c4000403000031
:020000040000fa
:0400c800040300002d
:020000040000fa
:0400cc000403000029
:020000040000fa
:0400d0000403000025
:020000040000fa
:0400d4000403000021
:020000040000fa
:0400d800040300001d
:020000040000fa
:0400dc000403000019
:020000040000fa
:0400e0000403000015
:020000040000fa
:0400e4000403000011
:020000040000fa
:0400e800040300000d
:020000040000fa
:0400ec000403000009
:020000040000fa
:0400f0000403000005
:020000040000fa
:0400f4000403000001
:020000040000fa
:0400f80004030000fd
:020000040000fa
:0400fc0004030000f9
:020000040000fa
:0401000004030000f4
:020000040000fa
:0401040004030000f0
:020000040000fa
:0401080004030000ec
:020000040000fa
:04010c0004030000e8
:020000040000fa
:0401100004030000e4
:020000040000fa
:0401140004030000e0
:020000040000fa
:0401180004030000dc
:020000040000fa
:04011c0004030000d8
:020000040000fa
:0401200004030000d4
:020000040000fa
:0401240004030000d0
:020000040000fa
:0401280004030000cc
:020000040000fa
:04012c0004030000c8
:020000040000fa
:0401300004030000c4
:020000040000fa
:0401340004030000c0
:020000040000fa
:0401380004030000bc
:020000040000fa
:04013c0004030000b8
:020000040000fa
:0401400004030000b4
:020000040000fa
:0401440004030000b0
:020000040000fa
:0401480004030000ac
:020000040000fa
:04014c0004030000a8
:020000040000fa
:0401500004030000a4
:020000040000fa
:0401540004030000a0
:020000040000fa
:04015800040300009c
:020000040000fa
:04015c000403000098
:020000040000fa
:040160000403000094
:020000040000fa
:040164000403000090
:020000040000fa
:04016800040300008c
:020000040000fa
:04016c000403000088
:020000040000fa
:040170000403000084
:020000040000fa
:040174000403000080
:020000040000fa
:04017800040300007c
:020000040000fa
:04017c000403000078
:020000040000fa
:040180000403000074
:020000040000fa
:040184000403000070
:020000040000fa
:04018800040300006c
:020000040000fa
:04018c000403000068
:020000040000fa
:040190000403000064
:020000040000fa
:040194000403000060
:020000040000fa
:04019800040300005c
:020000040000fa
:04019c000403000058
:020000040000fa
:0401a0000403000054
:020000040000fa
:0401a4000403000050
:020000040000fa
:0401a800040300004c
:020000040000fa
:0401ac000403000048
:020000040000fa
:0401b0000403000044
:020000040000fa
:0401b4000403000040
:020000040000fa
:0401b800040300003c
:020000040000fa
:0401bc000403000038
:020000040000fa
:0401c0000403000034
:020000040000fa
:0401c4000403000030
:020000040000fa
:0401c800040300002c
:020000040000fa
:0401cc000403000028
:020000040000fa
:0401d0000403000024
:020000040000fa
:0401d4000403000020
:020000040000fa
:0401d800040300001c
:020000040000fa
:0401dc000403000018
:020000040000fa
:0401e0000403000014
:020000040000fa
:0401e4000403000010
:020000040000fa
:0401e800040300000c
:020000040000fa
:0401ec000403000008
:020000040000fa
:0401f0000403000004
:020000040000fa
:0401f4000403000000
:020000040000fa
:0401f80004030000fc
:020000040000fa
:0401fc0004030000f8
:020000040000fa
:0402080004030000eb
:020000040000fa
:04020c0004030000e7
:020000040000fa
:0402100004030000e3
:020000040000fa
:0402140004030000df
:020000040000fa
:0402180004030000db
:020000040000fa
:04021c0004030000d7
:020000040000fa
:0402200004030000d3
:020000040000fa
:0402240004030000cf
:020000040000fa
:0402280004030000cb
:020000040000fa
:04022c0004030000c7
:020000040000fa
:0402300004030000c3
:020000040000fa
:0402340004030000bf
:020000040000fa
:0402380004030000bb
:020000040000fa
:04023c0004030000b7
:020000040000fa
:0402400004030000b3
:020000040000fa
:0402440004030000af
:020000040000fa
:0402480004030000ab
:020000040000fa
:04024c0004030000a7
:020000040000fa
:0402500004030000a3
:020000040000fa
:04025400040300009f
:020000040000fa
:04025800040300009b
:020000040000fa
:04025c000403000097
:020000040000fa
:040260000403000093
:020000040000fa
:04026400040300008f
:020000040000fa
:04026800040300008b
:020000040000fa
:04026c000403000087
:020000040000fa
:040270000403000083
:020000040000fa
:04027400040300007f
:020000040000fa
:04027800040300007b
:020000040000fa
:04027c000403000077
:020000040000fa
:040280000403000073
:020000040000fa
:04028400040300006f
:020000040000fa
:04028800040300006b
:020000040000fa
:04028c000403000067
:020000040000fa
:040290000403000063
:020000040000fa
:04029400040300005f
:020000040000fa
:04029800040300005b
:020000040000fa
:04029c000403000057
:020000040000fa
:0402a0000403000053
:020000040000fa
:0402a400040300004f
:020000040000fa
:0402a800040300004b
:020000040000fa
:0402ac000403000047
:020000040000fa
:0402b0000403000043
:020000040000fa
:0402b400040300003f
:020000040000fa
:0402b800040300003b
:020000040000fa
:0402bc000403000037
:020000040000fa
:0402c0000403000033
:020000040000fa
:0402c400040300002f
:020000040000fa
:0402c800040300002b
:020000040000fa
:0402cc000403000027
:020000040000fa
:0402d0000403000023
:020000040000fa
:0402d400040300001f
:020000040000fa
:0402d800040300001b
:020000040000fa
:0402dc000403000017
:020000040000fa
:0402e0000403000013
:020000040000fa
:0402e400040300000f
:020000040000fa
:0402e800040300000b
:020000040000fa
:0402ec000403000007
:020000040000fa
:0402f0000403000003
:020000040000fa
:0402f40004030000ff
:020000040000fa
:0402f80004030000fb
:020000040000fa
:0402fc0004030000f7
:020000040000fa
:0403000004030000f2
:020000040000fa
:0403040004030000ee
:020000040000fa
:0403080004030000ea
:020000040000fa
:04030c0004030000e6
:020000040000fa
:0403100004030000e2
:020000040000fa
:0403140004030000de
:020000040000fa
:0403180004030000da
:020000040000fa
:04031c0004030000d6
:020000040000fa
:0403200004030000d2
:020000040000fa
:0403240004030000ce
:020000040000fa
:0403280004030000ca
:020000040000fa
:04032c0004030000c6
:020000040000fa
:0403300004030000c2
:020000040000fa
:0403340004030000be
:020000040000fa
:0403380004030000ba
:020000040000fa
:04033c0004030000b6
:020000040000fa
:0403400004030000b2
:020000040000fa
:0403440004030000ae
:020000040000fa
:0403480004030000aa
:020000040000fa
:04034c0004030000a6
:020000040000fa
:0403500004030000a2
:020000040000fa
:04035400040300009e
:020000040000fa
:04035800040300009a
:020000040000fa
:04035c000403000096
:020000040000fa
:040360000403000092
:020000040000fa
:04036400040300008e
:020000040000fa
:04036800040300008a
:020000040000fa
:04036c000403000086
:020000040000fa
:040370000403000082
:020000040000fa
:04037400040300007e
:020000040000fa
:04037800040300007a
:020000040000fa
:04037c000403000076
:020000040000fa
:040380000403000072
:020000040000fa
:04038400040300006e
:020000040000fa
:04038800040300006a
:020000040000fa
:04038c000403000066
:020000040000fa
:040390000403000062
:020000040000fa
:04039400040300005e
:020000040000fa
:04039800040300005a
:020000040000fa
:04039c000403000056
:020000040000fa
:0403a0000403000052
:020000040000fa
:0403a400040300004e
:020000040000fa
:0403a800040300004a
:020000040000fa
:0403ac000403000046
:020000040000fa
:0403b0000403000042
:020000040000fa
:0403b400040300003e
:020000040000fa
:0403b800040300003a
:020000040000fa
:0403bc000403000036
:020000040000fa
:0403c0000403000032
:020000040000fa
:0403c400040300002e
:020000040000fa
:0403c800040300002a
:020000040000fa
:0403cc000403000026
:020000040000fa
:0403d0000403000022
:020000040000fa
:0403d400040300001e
:020000040000fa
:0403d800040300001a
:020000040000fa
:0403dc000403000016
:020000040000fa
:0403e0000403000012
:020000040000fa
:0403e400040300000e
:020000040000fa
:0403e800040300000a
:020000040000fa
:0403ec000403000006
:020000040000fa
:0403f0000403000002
:020000040000fa
:0403f40004030000fe
:020000040000fa
:0403f80004030000fa
:020000040000fa
:0403fc0004030000f6
:020000040000fa
:100400000fa220000e7f22000e01880000000000d5
:10041000000020000000e000020032000001200087
:100420002002880014000700790007000000e000a7
:1004300003003a00e03721000100200002003700ed
:100440000000200001002000810f70000100320038
:1004500014000700000020000000e000020032004d
:100460000000020000000000b613020000000000bf
:100470000040da000000fe004440a900a00d20006a
:100480000000e000030032000020200090018800fe
:100490004440a800000006008a1f78008b1f7800e7
:1004a00000000600a1028800800478000000eb0034
:1004b0001f003700e284440054a0b4009905ba003c
:1004c000e284440054a0b4009906ba00e2844400d7
:1004d00054a0b4000006eb00476fde00fd07b20039
:1004e000ae018800636ce10003003a00eaff0700f8
:1004f0000000eb000e003700606ce10008003a00dd
:10050000004deb000a05e800020039003420ec0041
:100510000af0a0008b05e900f9ff3e000400370057
:100520006168e100010032000086eb000b0007006b
:1005300019c7ba001905ba000e04e00003003a001a
:100540000a00e000dbff3a0000000600fe07b200f0
:10055000ae0288008a047800f5ff37000cd0a300b3
:10056000e20f4d001c00390089027800354dba00b9
:100570000a05e800020039003420ec000af0a0006f
:100580008b05e9000f003200254dba000a05e8008e
:10059000020039003420ec000af0a0008b05e900cd
:1005a000080032000c00e0000600320015cdba0051
:1005b0000a05e800020039003420ec000af0a0002f
:1005c0008b05e9008984e80054a0b4000b00e0002a
:1005d000e2ff3a00000006009902ba00055d7800cb
:1005e0008b05e900f7ff3200c82ade00055d7800c0
:1005f0008b05e900f3ff32000c00e000f1ff320050
:1006000019ddba00eeff37000040da000000fe00fe
:100610000000050080017800020037008159780051
:100620000201e9000200e000fcff3a0000000600c1
:020000040000fa
:10063000120100000002000000000000000800009d
:10064000d80400005e00000001000000010200006c
:10065000000100000902000022000000010100006a
:1006600000c000003209000004000000000100008a
:10067000030000000000000009210000110100003b
:1006800000010000224a0000000700000581000070
:100690000340000000010000040300000904000002
:1006a000340300004d0000006900000063000000fa
:1006b000720000006f00000063000000680000008e
:1006c00069000000700000002000000054000000dd
:1006d0006500000063000000680000006e0000007c
:1006e0006f0000006c0000006f0000006700000059
:1006f0007900000020000000490000006e000000aa
:10070000630000002e0000001c0300004a000000ef
:100710006f0000007900000073000000740000000a
:1007200069000000630000006b0000002000000072
:1007300044000000650000006d0000006f00000034
:100740002a8300004c830000508300008483000053
:100750000501000009050000a101000015000000ce
:100760002501000035000000450100007501000072
:10077000950d00000509000019010000290d000079
:1007800081020000950300008101000005010000c6
:1007900025070000463b000001750000049500009d
:1007a0000165000014090000398100004265000065
:1007b000009500000181000001260000ff000000fc
:1007c00046ff000000090000300900003109000068
:1007d0003209000035750000089500000481000012
:0407e00002c0000053
:020000040000fa
:1007e400d0418000e70f500020003e000041780017
:1007f40081812000914078000104e00034003a0037
:1008040011c0b30083812000814978008080fb00ff
:10081400a3832000810950007040800002487800c2
:10082400f0842000d04088008380e90091007800a3
:10083400e1806000190032000204e0002d00320063
:10084400b14180000241e9000281fb0003852000e0
:100854000281410031587800d0408800b1418800bd
:10086400820f5000fbff3a000000060081002000c8
:1008740001417800a383200081095000704080006a
:1008840002487800f0842000d04088008380e9008a
:1008940091007800e1806000e7ff3a000204e00084
:1008a400f1ff3200b14180000241e9000281fb0006
:1008b400038520000281410031587800d04088002f
:1008c400b1418800820f5000fbff3a00000006008f
:1008d400e1cf5000020032008280fb00ccff3700e1
:1008e40021c0b30083812000814978008280fb000d
:1008f400c7ff3700000006009ec0a9008ac1a800f7
:100904000ea4ef000aa4ef002a24ef002c24ef0029
:1009140020002000302188002824ef000644a9008c
:10092400f0092000802088006020880002c4a8000c
:100934000804a80002a020004810de00c02088009f
:100944000009eb0032117800640041000008eb005c
:1009540030107800e80141008009eb00b311780001
:100964006c0041000008eb00301078006400400087
:100974000008eb0030107800640040000008eb0031
:1009840030107800640040000008eb00301078005c
:10099400640040000008eb00301078001424a80024
:1009a4001624ef0014a4a9001424a9008100200037
:1009b400512088005020800068006000fcff3a004d
:1009c4008183200080487800e08320000048eb0009
:1009d4000000e8000048eb000000e8000048eb00dd
:1009e40010c0b30020e8b70021e8b7000268ef00a8
:1009f4000068ef000468ef000a28ef00308420004c
:100a04000048eb00508420000048eb001028ef0061
:100a14000c28ef00408420000048eb006084200094
:100a24000048eb0073408800d0002000502188006b
:100a34007084200010508800800020000049780055
:100a440010a0200041c0b300014878001074a00039
:100a54000868ef002228ef002428ef000968ef005f
:100a64000628ef00000006008181fb000338a30084
:100a740012003a000080fb000328a3000b003200a0
:100a8400800140000301e8004311dd0004a02000c0
:100a94000401410012f0a100e480200002b27900b8
:100aa40012e0a1006401410012e0a0000000400037
:100ab400a242200001717800000006000080fb00c3
:100ac40000024000c322dd0002a020000281420097
:100ad40012f0a100a580200082327a0012e0a10069
:100ae4006401410012e0a000e3ff37000104e000cc
:100af4001a0032008082fb0005804200e48020005e
:100b0400640278000000eb000400e00012003200f0
:100b140012029800034a7800144090000044b20086
:100b240010429800144090000034a0001042980035
:100b3400144090000074a000104298000104e000ea
:100b44000b003a0085824200a0802000850240000c
:100b54001520a20004007800000006008082fb003b
:100b640005804200a480200064027800e5ff37007d
:100b740085824200e0802000850240001520a2000a
:100b840004007800000006000004e00011003200b8
:100b94008180fb000080fb000000400000804000da
:100ba4004300dd0002a020008201400013429000b7
:100bb40041c8b300014272009441980064004000af
:100bc40002004000104190008140710011409800e3
:100bd4000000060081c0b300b040800001487800e6
:100be400b04080007184200011009800c1c0b3009f
:100bf40011409800b1408000114090000074a000a2
:100c04009040980041c0b3007040800011409800ab
:100c140071408000114090000074a0009040980042
:100c24000000060014a4ab00180032000080fb0092
:100c340000004000e1802000008040009000780027
:100c44001101be0004042000020162008001eb00d7
:100c54008288be00900078001101be000260a200ec
:100c64008288be00900078000120a200010878006c
:100c7400114190000244b2009240980010007800a4
:100c84009040900004c268001440980000000600e0
:100c94002048e2000a003a0010c0b30020e8b70080
:100ca4002148e20006003a0021e8b70019c8bf0055
:100cb400e24f500018003200e14f500001003200b2
:100cc400000006001e68ef0083c0b300a14080004e
:100cd40083487800a140800072842000920098002c
:100ce40044c0b30094409800a44080009440900015
:100cf4000174a000114298001ee8b700b0408000c3
:100d040003487800b04080001200980001c8b30086
:100d14001140980000000600704080000048eb007d
:100d240081c4b3007040800011409800714080007d
:100d3400114090000074a00090409800000006004c
:100d44000268ef000068ef0019c8bf00e24f5000ce
:100d54001a003200d18420001181fb000100e80058
:100d64009081fb00c819dd0083017100a28320007b
:100d7400928f5100050031009180fb001080fb0030
:100d84004800dd0000807000d041880094fe070018
:100d9400f1842000704080001100980081c4b300e9
:100da4007040800011409800714080001140900014
:100db4000074a000904098000000060081c0b300b9
:100dc400b040800001487800b0408000f1842000e9
:100dd4001100980081c4b30011409800b140800014
:100de400114090000074a00090409800000006009c
:100df400104180002141800061004000e0804800f3
:100e040010418800214188000448e20004003a00af
:100e14000948ec0009e8b70001003a0009e8ef00ce
:100e240000000600e6874700889fbe008a9fbe0038
:100e34008c9fbe008e1f7800304080000000e000d0
:100e44004c003a001424ef000c24ef002000200092
:100e5400302188002824ef000644a900f00920006e
:100e6400802088006020880002c4a8001404ab001d
:100e740003003a001404a8001404ab00fdff320080
:100e8400100020003040880014c4ab009d003200e4
:100e94000084ab00020032000284ab008e003a00f2
:100ea4000824ab002c003a000a04ab000200320014
:100eb4000c04ab009a003a000a84ab000200320032
:100ec4000c84ab00a9003a0000c4ab0078003a00df
:100ed4000a44ab00090032000c44ab00b0003a00f5
:100ee40040002000502088001fc8bf007600320058
:100ef4000040e9001fe8b700730032000ae4ab00c9
:100f04000c0032000ce4ab000a0032002a24ab00cf
:100f140006003200a14080001140900002c8b300d6
:100f2400824f5000d70032002a24a9000008200074
:100f3400502088000a24ab00020032000c24ab00cd
:100f44007f003a0030408000e30f5000020036007a
:100f54000c64ab000c003a008ec0a9004f07780067
:100f64004f06be004f05be004f04be006f00b10027
:100f740000000600e10f5000c5ff3a0014c4ab00a6
:100f8400c3ff3a005f00370048c0b3003a84200032
:100f940059842000eb832000e386450064864500e5
:100fa4000a64ab00ecff320090208000804078009f
:100fb4001ce8b7008081fb004419de000240780081
:100fc400d4812000024a7800820020005220880048
:100fd4000138a3007b003a000081fb0069427900dc
:100fe400e14062000104a2000404a10081407200f7
:100ff400817479000004e0007b003a00d0c2b300a1
:101004001fe8b700030078000020a1000000e00002
:101014007c003a00c30fb2000ea0200083014700f9
:10102400a3408800830078000120a200b14088001a
:1010340004c023001302620002402300820f520006
:10104400a600320019c8bf00e24f5000d0013200a0
:101054001968ef001e48e20086003a0080c0b30021
:1010640080487800b040800071842000110098000e
:10107400c1c0b30011409800b140800011409000fd
:101084000074a000904098000844e900c4ff3a00ae
:101094008ec0a9004f0778004f06be004f05be0062
:1010a4004f04be006f00b10000000600b1ff37001e
:1010b40000042000002088004dff07000a44ab0014
:1010c4008eff320084ff3700f1fe07000ae4ab0014
:1010d40098ff32008bff37000801200008208800a9
:1010e4000468ef000001eb008000eb0040072000e3
:1010f4005f0507000284a900082088000968ef0042
:1011040067ff37000aa4ef000c24ef000c04a800ca
:101114000c84a80020002000304088005cff3700c9
:10112400f5fd07004000200030408800100020003a
:10113400502088000a84ab0063ff320060ff370050
:10114400120020008000eb00f0ff27004805070094
:101154000ea4ef00200020005020880030408000c2
:10116400e30f50007aff3e007bff37000284a800a3
:10117400000120005020880010c0b30004e8b7002c
:101184000968ef000001eb008000eb00500720002d
:101194003705070000c4ab004dff3200c4ff370021
:1011a400120020008000eb0030072000300507000b
:1011b40040002000502088001fc8bf00c2ff32003a
:1011c4004bff37000081fb006a427900e140620076
:1011d4000104a2000404a100814072000175790099
:1011e4000004e00085ff32000001eb00c181200013
:1011f400200720001e0507000844e90068ff3a00a4
:10120400a3ff3700e80f50009fff3a0070408000b2
:1012140090007800ce08de0061c760000020a200c4
:101224007040880031408000e88f50002200320076
:101234009181200091407800e1cf5000ba01320042
:101244001b04e00007003d001d80fb009c80fb00a8
:10125400c808dd0001007000010032000000010038
:101264001b74a1001968ef000844e9004cff3a0020
:1012740087ff37001e68ef000844e90048ff3a0082
:1012840083ff3700724080009241900042c8b3004f
:1012940082cf510024ff3a00c2c0b30092409800ac
:1012a400a1408000114190000040710090409800de
:1012b4002a24a9001dff3700918420009180fb009f
:1012c400f107b200b12088001604e2009301320055
:1012d4000101200031408800d5ff370093009000c1
:1012e4007284200007000900315978008100b100a0
:1012f4001868ef000168ef000268ef000068ef0073
:101304001e68ef001968ef00724080009240900060
:101314000174a10011419800714080000120a200d5
:1013240071408800114190000274a100924098001d
:101334000e48aa00b2408000924090000174a100bf
:101344001141980084832000004aeb00d0418800ba
:10135400804deb00f08320000048eb000000e80023
:101364000048eb0001c6b3007584200015c060007e
:1013740078003a000500e8001081fb008001eb00d2
:10138400eb0f5100e08f590072003e000260010033
:10139400df0037000a0037006e003700080037000e
:1013a4006c003700d4003700c2003700bc0037009f
:1013b400b200370094003700870037007d00370003
:1013c4009284200092417800e1cf51000b003a0052
:1013d4000282e90014427800ff40620007003a00ec
:1013e400c14180000170a000c141880035c0b30034
:1013f40090cf1200c10132000368ef001204e00034
:1014040054003a007584200095427800ffc06200c1
:10141400e2cf50004f003a00b3842000134178001b
:10142400ef4061004b00320013427800ef4062004d
:101434008180fb00e18f500046003c000102200047
:1014440035408000818f520042003a00c141800043
:101454000170a000c14188001304e000de013500e2
:1014640013417800ef4061008180fb0081804000df
:10147400a28020006287780013427800ef40620067
:101484008180fb0069c278000408a300d0013a00ff
:101494000e20a100b18420001304e000d90135001e
:1014a40091407800efc060008180fb0081804000a3
:1014b400a28020000eb1780035c0b30090cf120096
:1014c400b30132008e0078000120a2001100e00078
:1014d40063013500114090000064a0009040980022
:1014e4000418a30002003a001e00e00086013d003b
:1014f400b08420001304e0004b0135001040780054
:10150400ef4060008180fb0069c078000014a100f6
:1015140080f478001e409000b043b2001047980059
:10152400220020008e0078005000200083bf9f001e
:101534004f0407008fb99700934178006fc0610092
:101544000080fb0000004000a14220000100400098
:101554001014a1000001eb008000eb00300020001b
:101564004304070014a4a90000082000818320007c
:1015740011006000bc003a001b04e00011013d00b2
:1015840020c0b30019e8b7000048e20005003200ab
:101594002168ef002068ef000844e90080fe3a006b
:1015a400bbfe3700e6fd07002168ef002068ef006e
:1015b400f9ff3700c04180000070a000c0418800de
:1015c400b08420009080fb002081200092842000c1
:1015d40092707800dfff3700b08420001081fb0098
:1015e400218120006083200001084100c041800067
:1015f40012c0b300a1832000824878001008b30011
:10160400c0418800d3ff3700c04180000070a000b3
:10161400c04188002c24ef00020220008000eb006f
:1016240000a02000fafb07001424a800004deb00e2
:10163400804ceb00408420000048eb0060842000d4
:101644000048eb001268ef001424a90080a02000d9
:1016540070408800ae408800be408800908420001e
:101664001040780008e8b7000004e000f5003a00f4
:101674000001200030408800b6ff37008080200041
:10168400b0418800c041800012c0b300a183200093
:10169400824878001008b300c0418800adff3700cd
:1016a4000001eb008000eb0020002000f0030700a5
:1016b400a8ff370000c8b30072842000924f1000c6
:1016c400a4ff3a008083200001ccb30001487800d5
:1016d400e300410091407800e2cf5000f80032006e
:1016e400e3cf5000ea003200e1cf5000c9003200dd
:1016f4000048eb0097ff3700c04180000070a00055
:10170400c0418800800020003040880091ff3700ed
:10171400f38420008049eb000300e8000048eb005c
:1017240071842000914078007fc060000080fb003d
:10173400e10f50000b013200e20f5000f6003200be
:101744000000e00006003a00c04180000070a000e4
:10175400c04188000348e200010032001314a000d5
:1017640000082000828320001200600079ff32000c
:10177400b3418800c04180000000a000c04188003f
:1017840021c0b3000280e8000148780071ff3700ef
:10179400134278000480fb00fe8320009e80fb003f
:1017a4008e03e8001781fb004811dd008280700081
:1017b400810f500002003600014278000180fb00d6
:1017c40000805000004f78004800de00804b780015
:1017d4000404e0000f003200c68320001680fb00e2
:1017e4008602e8009580fb00c808dd0081007000d7
:1017f4000000eb00f3842000e3587800014b7800ec
:101804004809de00824a78000000e800804f520058
:10181400f9ff3e001e80fb009780fb00c808dd0036
:10182400010070002500320081c0b300b040800088
:1018340001487800b0408000f38420001300980031
:10184400a240800012e8a3000afe3a0081c4b3005b
:1018540011409800b1408000114090000074a00035
:101864009040980008fe3700748420001404e000bf
:1018740041003d0010c0b30019e8b7000248e2007f
:10188400080032002168ef002068ef000148e20000
:10189400fdfd3a00fefc07000844e900c0fd3a00e3
:1018a400fbfd370026fd07002168ef002068ef00ec
:1018b4000148e200f4fd3a00f6ff370081c0b300ae
:1018c400b040800001487800b0408000718420005e
:1018d4001100980041c0b30011409800b14080004d
:1018e400114090000074a000904098001d80fb00ff
:1018f4009c80fb00c808dd0001007000010032007c
:10190400000001001b74a1000148e200e1ff320065
:101914000844e900a2fd3a00ddfd37004100200043
:101924003140880042fe3700f38420001300980001
:10193400abfb070018c8bf0041c0b300e24f500022
:101944000400320081c4b3000e04e0000100320040
:1019540081c0b30070408000114098007140800045
:10196400114090000074a000904098000844e900e1
:101974008bfd3a00c6fd370020c0b30019e8b7005c
:1019840081c0b300b040800001487800b0408000be
:10199400718420001100980041c0b30011409800e8
:1019a400b1408000114090000074a0009040980065
:1019b4002168ef002068ef000148e200b2fd3a0020
:1019c400b4ff370081c0b300b04080000148780004
:1019d400b04080007284200012009800c1c0b3009f
:1019e40011409800b1408000114090000074a000a4
:1019f4009040980041c0b3007040800011409800ae
:101a040071408000114090000074a0009040980044
:101a1400d6ff370080312800b04188002001200023
:101a2400d0418800cbfe370010407800ef406000c2
:101a34008180fb006ac078000014a10000f57800e2
:101a4400b4fe370012002000818020001000200026
:101a5400070307000002200030408800bdfe370065
:101a6400114090000074a1000064a0009040980010
:101a7400220020005000200083bf9f00f4b79f0085
:101a8400fb0207008fb997007fb2970094fe3700de
:101a94009184200025c0b30091cf120014ff3e00b2
:101aa4001180fb0000004000213a2800610078000a
:101ab400b04188001080fb00d0418800a5fe3700ab
:101ac400918420001104e00009ff3a001180fb001a
:101ad40000004000013a280061007800b04188000d
:101ae400a183200020429000844878008100e8000f
:101af400304090008048780096fe37003180200006
:101b0400834878003dfe37001e409000b043b20089
:101b14001047980088fe3700c04180000070a00084
:101b2400c0418800b08420001004e000110035009a
:101b3400104078006f4060000080fb00000040000f
:101b4400a1802000e100780000402800910060009e
:101b5400808f500002ff3a0010c0b3008049780023
:101b6400fffe3700c04180000070a000c041880023
:101b7400fbfe3700104078006f4060000080fb00df
:101b840000004000e1802000e1007800eeff370013
:101b94001e00e00009003d00b08420001304e000b2
:101ba4001f00350010407800ef4060008180fb008a
:101bb40069c078000014a00080f478009e40900072
:101bc40040c8b30000c070001047980061fe3700a1
:101bd4000e20a0002ffe370093427800efc0620071
:101be4008180fb0081804000e280200062877800d1
:101bf40013417800ef4061008180fb006ac27800e5
:101c040021fe370091407800efc060008180fb0026
:101c140081804000e28020000eb1780026fe37006b
:101c240010407800ef4060008180fb006ac07800bb
:101c34000014a00000f57800e0ff37001041800098
:101c44002141800000000600e40f50001c00320017
:101c540008003600e60f5000130032000e00390071
:101c6400e70f500012003200e80f50000c00320061
:101c740000000600e20f50000f00320002003600a0
:101c84008e61a80000000600e10f5000f8ff3a0042
:101c94008541a800000006008521a8000000060078
:101ca40098c1a800000006008501a80000000600f5
:101cb40098a1a8000000060084e1a8000000060026
:101cc4008e41a80000000600e40f50001c00320002
:101cd40008003600e60f5000130032000e003900f1
:101ce400e70f500012003200e80f50000c003200e1
:101cf40000000600e20f50000f0032000200360020
:101d04008e61a90000000600e10f5000f8ff3a00c0
:101d14008541a900000006008521a90000000600f5
:101d240098c1a900000006008501a9000000060072
:101d340098a1a9000000060084e1a90000000600a3
:101d44008e41a90000000600e40f50005400320048
:101d540008003600e60f5000330032001e00390040
:101d6400e70f50003a003200e80f50002400320020
:101d740000000600e20f50003f0032000a00360067
:101d8400710c8000c308de008180ea00e1806000fd
:101d9400c308dd00700c80000030a10000807000da
:101da400700c880000000600e10f5000f0ff3a00bc
:101db400210c8000ca08de008180ea00e180600016
:101dc400ca08dd00200c800000a0a1000080700083
:101dd400200c880000000600210c8000c908de00e9
:101de4008180ea00e1806000c908dd00200c8000e9
:101df4000090a10000807000200c88000000060004
:101e0400c10c8000c608de008180ea00e180600029
:101e1400c608dd00c00c80000060a10000807000d6
:101e2400c00c880000000600210c8000c808de00f9
:101e34008180ea00e1806000c808dd00200c800099
:101e44000080a10000807000200c880000000600c3
:101e5400c10c8000c508de008180ea00e1806000da
:101e6400c508dd00c00c80000050a1000080700097
:101e7400c00c880000000600210c8000c708de00aa
:101e84008180ea00e1806000c708dd00200c80004a
:101e94000070a10000807000200c88000000060083
:101ea400710c8000c208de008180ea00e1806000dd
:101eb400c208dd00700c80000020a10000807000ca
:101ec400700c880000000600e40f50002b00320064
:101ed40008003600e60f50001c00320013003900e1
:101ee400e70f50001d003200e80f500013003200cd
:101ef40000000500e20f50001c0032000400360010
:101f0400700c80004300de006140600000000600a9
:101f1400e10f5000f6ff3a00004020008401b600b3
:101f24000000ea004f00de0000000600200c8000e4
:101f34004900de006140600000000600c00c800023
:101f44004600de006140600000000600200c8000b6
:101f54004800de006140600000000600c00c800004
:101f64004500de006140600000000600200c800097
:101f74004700de006140600000000600700c800035
:101f84004200de006140600000000600e40f5000e3
:101f94001c00320008003600e60f50001300320027
:101fa4000e003900e70f500012003200e80f500015
:101fb4000c00320000000600e20f50000f00320057
:101fc400020036008a61a90000000600e10f5000fb
:101fd400f8ff3a008141a900000006008121a90010
:101fe4000000060094c1a900000006008101a900b8
:101ff4000000060094a1a9000000060080e1a900e9
:10200400000006008a41a900000006002668ef00cf
:102014001000fc009ec0ab000200320010c0b300f0
:1020240026e8b7009ec0a900000006000804ab0023
:10203400020032000824ab00200032000004e0005b
:10204400110032000824a9000804a800efff0700cb
:1020540050c0b300010420000120880000c4ab007c
:10206400feff32000040e900fbff3a002020800020
:102074004300de00614060002648e2000e003200aa
:102084009ec0a8000000060000c0eb000804ab00de
:1020940009003200e0cfb3000824ab000600320090
:1020a400c0cfb3009180200091407800e3cf50006e
:1020b40001003e00d0cfb300000006009180200054
:1020c40091407800e3cf5000dcff360020208000f0
:1020d4004300de006140600000000600889fbe00ef
:1020e4001e00fc00010e20001002800001006000b0
:1020f40040418800010078004220b7006885200034
:10210400490a2000880078004009200090287800bf
:102114000018eb00890f5000fcff3a000c04f80093
:102124002a08f9000c24ef000204f8002c08f90036
:102134000224ef00700680004800de0067006000a3
:102144007041880000012000002088000000400049
:10215400502088008ec0a9000284a800f08f2f00b0
:10216400ce00b60000a0a000700688009ec0a800a3
:102174000040fe000aa4ab00180032004009200011
:1021840058187800890f5000fdff3a002a08f8001b
:102194000c04f9002c08f8000204f9002ec8bf0052
:1021a400670060004800dd00f18f2f007206800098
:1021b400828060008100700071068800f0f12f00b9
:1021c4004200b6002808b700404188001002880089
:1021d40010c0b3004f04be000000060010c0b300de
:1021e40092ff070040092000e5ff37000040eb00a4
:1021f4000348e200200032000448e2001e003200de
:102204000824ab00010032000824a9007fff070066
:10221400000420000020880000c4ab00feff320050
:10222400000420000020880000c4ab00feff320040
:10223400000420000020880000c4ab00feff320030
:102244001444a800000420000020880000c4ab004f
:10225400feff3200000420000020880000c4ab0010
:10226400feff32001444a90010c0b3002648e20067
:10227400010032009ec0a800000006002648e200cb
:10228400010032009ec0a8000000060070842000f7
:1022940010417800ff406100e1cf5000010032009e
:1022a40000000600e40040001104e000fcff3a00d6
:1022b4008000e80063c0b30091cf11001500320024
:1022c40003c6b30010c1610000c2b300804f5100c7
:1022d400f3ff3a0011407800e34f50003d00320014
:1022e40021003600ea4f500042003200eb4f50000c
:1022f400ebff3a0001c8b300808320000148780056
:102304009084200090407800138320008149780055
:10231400000006006301400012417800fbc1410047
:10232400834f51001a0032008341e800834f51006b
:10233400e3ff3a00823a2800b2418800a204200058
:10234400d241880003ccb300828320000349780083
:1023540003c6b30010c1610000c2b300804f510036
:10236400cfff3a00dbff3700e24f5000ccff3a00ca
:1023740000832000b041880010002000d041880074
:1023840011ccb300808320000148780000000600cf
:102394008280200012417800e14f5100c8ff3a00ca
:1023a400c2332800b241880092002000d241880044
:1023b40003ccb300828320000349780003c6b30032
:1023c40010c1610000c2b300804f5100b4ff3a0055
:1023d400c0ff370010832000b041880010002000a7
:1023e400d041880011c8b3008083200001487800e0
:1023f4000000060001c8b300808320000148780073
:10240400a0842000104178000183200082487800d5
:10241400000006003228ef0051c1b30010c0b30021
:1024240091f9370030408000ff0f50002000360043
:102434000824ab001e003a00904180000000e00038
:10244400020032001000e0001900350010002000e6
:102454002d0007000004e00016003a0082862000e8
:10246400004978008200e8008048780081c0b30009
:102474000280e8000148780000c8b300e30041008e
:1024840080487800e4004100804878008100e8003a
:10249400804878008100e8008048780073c0b30069
:1024a40011c0b3000140780090f907009041880002
:1024b400000006008286200020c0b3000049780096
:1024c4000200e80001ceb30010c860000000e8007c
:1024d40001cfb30090c060000114a000014878004f
:1024e4000000e8000048eb000000e8000048eb00b2
:1024f40073c0b30011c0b300014078007bf907003a
:102504009041880000000600e20f500012003200e3
:1025140005003600e30f500014003200e40f5000b1
:102524000800320000000500e10f5000fdff3a00f2
:10253400004020008201b6000000e9004f00de00e8
:1025440000000600100c80000008b2000000e90042
:102554004f00de0000000600100c80000020b200d6
:102564000000e9004f00de0000000600b00c80000f
:102574000004b2000000e9004f00de000000060085
:10258400e20f50000c00320005003600e30f50004b
:102594000b003200e40f500005003200000006007a
:1025a400e10f5000fdff3a008141a8000000060041
:1025b40080e1a800000006008121a80000000600b8
:1025c40094c1a800000006000824ab001c003a00d7
:1025d400000220000608e3000c003200a141800044
:1025e400e18f50001800320020032000808f50003b
:1025f4001a00320010002000623b2000828f50003d
:102604000c003600a041880000000600a1418000b3
:10261400e18f50000c003200b0042000808f500085
:102624000e0032001000200062092000828f50004a
:10263400f4ff3e0000804000a04188000000060036
:1026440020002000a0fd3700200020007efd0700b0
:102654003408ec00a041880000000600200020009f
:1026640099fd07003408ec00a04188000000060032
:1026740031072000810f50001c0032000700340095
:1026840041072000810f5000100032008100e80053
:10269400810f50000800320010000500e10f5000c7
:1026a4000f003200e30f5000fbff3a00f7fe070073
:1026b40010000500f9ff3700c3ff070010002000d9
:1026c4003400070010000500f4ff3700beff0700c8
:1026d400200020002f00070010000500efff370046
:1026e4004cff070010000500ecff3700b6ff0700a1
:0826f40010000500e9ff3700aa
:020000040000fa
:1026fc0030080000020000008000000068080000a4
:10270c0008000000800000003208000002000000f9
:10271c00800000003408000002000000800000006f
:10272c0036080000220000008000000000080000b5
:10273c002600000080000000000a000020000000bd
:10274c00800000005808000010000000800000000d
:10275c00260800000a0000008000000000000000b5
:020000040000fa
:10276c000000eb000900070061f80700abf9070057
:10277c0030408000ff0f5000fcff36000824ab00f7
:10278c00faff3a0025ff0700f8ff37000000e000d1
:10279c0005003a008ac1a80020002000f9fd0700be
:1027ac001000200074ff3700e10f500001003200d0
:0827bc000000060047fe370093
:020000040000fa
:020000040002f8
:04aff000ffc300009b
:020000040000fa
:020000040002f8
:04aff400ffff00005b
:020000040000fa
:020000040002f8
:04aff8009dbb0000fd
:020000040000fa
:020000040002f8
:04affc003f3f0000d3
:00000001FF
