:020000040000fa
:080000000002040000000000f2
:020000040000fa
:0400080004030000ed
:020000040000fa
:04000c0004030000e9
:020000040000fa
:0400100004030000e5
:020000040000fa
:0400140004030000e1
:020000040000fa
:0400180004030000dd
:020000040000fa
:04001c0004030000d9
:020000040000fa
:0400200004030000d5
:020000040000fa
:0400240004030000d1
:020000040000fa
:0400280004030000cd
:020000040000fa
:04002c0004030000c9
:020000040000fa
:0400300004030000c5
:020000040000fa
:0400340004030000c1
:020000040000fa
:0400380004030000bd
:020000040000fa
:04003c0004030000b9
:020000040000fa
:0400400004030000b5
:020000040000fa
:0400440004030000b1
:020000040000fa
:0400480004030000ad
:020000040000fa
:04004c0004030000a9
:020000040000fa
:0400500004030000a5
:020000040000fa
:0400540004030000a1
:020000040000fa
:04005800040300009d
:020000040000fa
:04005c000403000099
:020000040000fa
:040060000403000095
:020000040000fa
:040064000403000091
:020000040000fa
:04006800040300008d
:020000040000fa
:04006c000403000089
:020000040000fa
:040070000403000085
:020000040000fa
:040074000403000081
:020000040000fa
:04007800040300007d
:020000040000fa
:04007c000403000079
:020000040000fa
:040080000403000075
:020000040000fa
:040084000403000071
:020000040000fa
:04008800040300006d
:020000040000fa
:04008c000403000069
:020000040000fa
:040090000403000065
:020000040000fa
:040094000403000061
:020000040000fa
:04009800040300005d
:020000040000fa
:04009c000403000059
:020000040000fa
:0400a0000403000055
:020000040000fa
:0400a4000403000051
:020000040000fa
:0400a800040300004d
:020000040000fa
:0400ac000403000049
:020000040000fa
:0400b0000403000045
:020000040000fa
:0400b4000403000041
:020000040000fa
:0400b800040300003d
:020000040000fa
:0400bc000403000039
:020000040000fa
:0400c0000403000035
:020000040000fa
:0400c4000403000031
:020000040000fa
:0400c800040300002d
:020000040000fa
:0400cc000403000029
:020000040000fa
:0400d0000403000025
:020000040000fa
:0400d4000403000021
:020000040000fa
:0400d800040300001d
:020000040000fa
:0400dc000403000019
:020000040000fa
:0400e0000403000015
:020000040000fa
:0400e4000403000011
:020000040000fa
:0400e800040300000d
:020000040000fa
:0400ec000403000009
:020000040000fa
:0400f0000403000005
:020000040000fa
:0400f4000403000001
:020000040000fa
:0400f80004030000fd
:020000040000fa
:0400fc0004030000f9
:020000040000fa
:0401000004030000f4
:020000040000fa
:0401040004030000f0
:020000040000fa
:0401080004030000ec
:020000040000fa
:04010c0004030000e8
:020000040000fa
:0401100004030000e4
:020000040000fa
:0401140004030000e0
:020000040000fa
:0401180004030000dc
:020000040000fa
:04011c0004030000d8
:020000040000fa
:0401200004030000d4
:020000040000fa
:0401240004030000d0
:020000040000fa
:0401280004030000cc
:020000040000fa
:04012c0004030000c8
:020000040000fa
:0401300004030000c4
:020000040000fa
:0401340004030000c0
:020000040000fa
:0401380004030000bc
:020000040000fa
:04013c0004030000b8
:020000040000fa
:0401400004030000b4
:020000040000fa
:0401440004030000b0
:020000040000fa
:0401480004030000ac
:020000040000fa
:04014c0004030000a8
:020000040000fa
:0401500004030000a4
:020000040000fa
:0401540004030000a0
:020000040000fa
:04015800040300009c
:020000040000fa
:04015c000403000098
:020000040000fa
:040160000403000094
:020000040000fa
:040164000403000090
:020000040000fa
:04016800040300008c
:020000040000fa
:04016c000403000088
:020000040000fa
:040170000403000084
:020000040000fa
:040174000403000080
:020000040000fa
:04017800040300007c
:020000040000fa
:04017c000403000078
:020000040000fa
:040180000403000074
:020000040000fa
:040184000403000070
:020000040000fa
:04018800040300006c
:020000040000fa
:04018c000403000068
:020000040000fa
:040190000403000064
:020000040000fa
:040194000403000060
:020000040000fa
:04019800040300005c
:020000040000fa
:04019c000403000058
:020000040000fa
:0401a0000403000054
:020000040000fa
:0401a4000403000050
:020000040000fa
:0401a800040300004c
:020000040000fa
:0401ac000403000048
:020000040000fa
:0401b0000403000044
:020000040000fa
:0401b4000403000040
:020000040000fa
:0401b800040300003c
:020000040000fa
:0401bc000403000038
:020000040000fa
:0401c0000403000034
:020000040000fa
:0401c4000403000030
:020000040000fa
:0401c800040300002c
:020000040000fa
:0401cc000403000028
:020000040000fa
:0401d0000403000024
:020000040000fa
:0401d4000403000020
:020000040000fa
:0401d800040300001c
:020000040000fa
:0401dc000403000018
:020000040000fa
:0401e0000403000014
:020000040000fa
:0401e4000403000010
:020000040000fa
:0401e800040300000c
:020000040000fa
:0401ec000403000008
:020000040000fa
:0401f0000403000004
:020000040000fa
:0401f4000403000000
:020000040000fa
:0401f80004030000fc
:020000040000fa
:0401fc0004030000f8
:020000040000fa
:0402080004030000eb
:020000040000fa
:04020c0004030000e7
:020000040000fa
:0402100004030000e3
:020000040000fa
:0402140004030000df
:020000040000fa
:0402180004030000db
:020000040000fa
:04021c0004030000d7
:020000040000fa
:0402200004030000d3
:020000040000fa
:0402240004030000cf
:020000040000fa
:0402280004030000cb
:020000040000fa
:04022c0004030000c7
:020000040000fa
:0402300004030000c3
:020000040000fa
:0402340004030000bf
:020000040000fa
:0402380004030000bb
:020000040000fa
:04023c0004030000b7
:020000040000fa
:0402400004030000b3
:020000040000fa
:0402440004030000af
:020000040000fa
:0402480004030000ab
:020000040000fa
:04024c0004030000a7
:020000040000fa
:0402500004030000a3
:020000040000fa
:04025400040300009f
:020000040000fa
:04025800040300009b
:020000040000fa
:04025c000403000097
:020000040000fa
:040260000403000093
:020000040000fa
:04026400040300008f
:020000040000fa
:04026800040300008b
:020000040000fa
:04026c000403000087
:020000040000fa
:040270000403000083
:020000040000fa
:04027400040300007f
:020000040000fa
:04027800040300007b
:020000040000fa
:04027c000403000077
:020000040000fa
:040280000403000073
:020000040000fa
:04028400040300006f
:020000040000fa
:04028800040300006b
:020000040000fa
:04028c000403000067
:020000040000fa
:040290000403000063
:020000040000fa
:04029400040300005f
:020000040000fa
:04029800040300005b
:020000040000fa
:04029c000403000057
:020000040000fa
:0402a0000403000053
:020000040000fa
:0402a400040300004f
:020000040000fa
:0402a800040300004b
:020000040000fa
:0402ac000403000047
:020000040000fa
:0402b0000403000043
:020000040000fa
:0402b400040300003f
:020000040000fa
:0402b800040300003b
:020000040000fa
:0402bc000403000037
:020000040000fa
:0402c0000403000033
:020000040000fa
:0402c400040300002f
:020000040000fa
:0402c800040300002b
:020000040000fa
:0402cc000403000027
:020000040000fa
:0402d0000403000023
:020000040000fa
:0402d400040300001f
:020000040000fa
:0402d800040300001b
:020000040000fa
:0402dc000403000017
:020000040000fa
:0402e0000403000013
:020000040000fa
:0402e400040300000f
:020000040000fa
:0402e800040300000b
:020000040000fa
:0402ec000403000007
:020000040000fa
:0402f0000403000003
:020000040000fa
:0402f40004030000ff
:020000040000fa
:0402f80004030000fb
:020000040000fa
:0402fc0004030000f7
:020000040000fa
:0403000004030000f2
:020000040000fa
:0403040004030000ee
:020000040000fa
:0403080004030000ea
:020000040000fa
:04030c0004030000e6
:020000040000fa
:0403100004030000e2
:020000040000fa
:0403140004030000de
:020000040000fa
:0403180004030000da
:020000040000fa
:04031c0004030000d6
:020000040000fa
:0403200004030000d2
:020000040000fa
:0403240004030000ce
:020000040000fa
:0403280004030000ca
:020000040000fa
:04032c0004030000c6
:020000040000fa
:0403300004030000c2
:020000040000fa
:0403340004030000be
:020000040000fa
:0403380004030000ba
:020000040000fa
:04033c0004030000b6
:020000040000fa
:0403400004030000b2
:020000040000fa
:0403440004030000ae
:020000040000fa
:0403480004030000aa
:020000040000fa
:04034c0004030000a6
:020000040000fa
:0403500004030000a2
:020000040000fa
:04035400040300009e
:020000040000fa
:04035800040300009a
:020000040000fa
:04035c000403000096
:020000040000fa
:040360000403000092
:020000040000fa
:04036400040300008e
:020000040000fa
:04036800040300008a
:020000040000fa
:04036c000403000086
:020000040000fa
:040370000403000082
:020000040000fa
:04037400040300007e
:020000040000fa
:04037800040300007a
:020000040000fa
:04037c000403000076
:020000040000fa
:040380000403000072
:020000040000fa
:04038400040300006e
:020000040000fa
:04038800040300006a
:020000040000fa
:04038c000403000066
:020000040000fa
:040390000403000062
:020000040000fa
:04039400040300005e
:020000040000fa
:04039800040300005a
:020000040000fa
:04039c000403000056
:020000040000fa
:0403a0000403000052
:020000040000fa
:0403a400040300004e
:020000040000fa
:0403a800040300004a
:020000040000fa
:0403ac000403000046
:020000040000fa
:0403b0000403000042
:020000040000fa
:0403b400040300003e
:020000040000fa
:0403b800040300003a
:020000040000fa
:0403bc000403000036
:020000040000fa
:0403c0000403000032
:020000040000fa
:0403c400040300002e
:020000040000fa
:0403c800040300002a
:020000040000fa
:0403cc000403000026
:020000040000fa
:0403d0000403000022
:020000040000fa
:0403d400040300001e
:020000040000fa
:0403d800040300001a
:020000040000fa
:0403dc000403000016
:020000040000fa
:0403e0000403000012
:020000040000fa
:0403e400040300000e
:020000040000fa
:0403e800040300000a
:020000040000fa
:0403ec000403000006
:020000040000fa
:0403f0000403000002
:020000040000fa
:0403f40004030000fe
:020000040000fa
:0403f80004030000fa
:020000040000fa
:0403fc0004030000f6
:020000040000fa
:100400000fa220000e7f22000e01880000000000d5
:10041000000020000000e000020032000001200087
:100420002002880014000700790007000000e000a7
:1004300003003a00208e2100010020000200370056
:100440000000200001002000810f70000100320038
:1004500014000700000020000000e000020032004d
:1004600000000200000000002c1902000000000043
:100470000040da000000fe004440a900200d2000ea
:100480000000e000030032000020200090018800fe
:100490004440a800000006008a1f78008b1f7800e7
:1004a00000000600a1028800800478000000eb0034
:1004b0001f003700e284440054a0b4009905ba003c
:1004c000e284440054a0b4009906ba00e2844400d7
:1004d00054a0b4000006eb00476fde00fd07b20039
:1004e000ae018800636ce10003003a00eaff0700f8
:1004f0000000eb000e003700606ce10008003a00dd
:10050000004deb000a05e800020039003420ec0041
:100510000af0a0008b05e900f9ff3e000400370057
:100520006168e100010032000086eb000b0007006b
:1005300019c7ba001905ba000e04e00003003a001a
:100540000a00e000dbff3a0000000600fe07b200f0
:10055000ae0288008a047800f5ff37000cd0a300b3
:10056000e20f4d001c00390089027800354dba00b9
:100570000a05e800020039003420ec000af0a0006f
:100580008b05e9000f003200254dba000a05e8008e
:10059000020039003420ec000af0a0008b05e900cd
:1005a000080032000c00e0000600320015cdba0051
:1005b0000a05e800020039003420ec000af0a0002f
:1005c0008b05e9008984e80054a0b4000b00e0002a
:1005d000e2ff3a00000006009902ba00055d7800cb
:1005e0008b05e900f7ff3200c82ade00055d7800c0
:1005f0008b05e900f3ff32000c00e000f1ff320050
:1006000019ddba00eeff37000040da000000fe00fe
:10061000000005008001780002003700b159780021
:100620000201e9000200e000fcff3a0000000600c1
:100630008001780002003700815978000201e9004a
:0c0640000200e000fcff3a000000060091
:020000040000fa
:10064c001201000000020000000000000008000081
:10065c00d804000059000000020000000102000054
:10066c00000100000902000065000000020100000a
:10067c0000c000003209000004000000000000006f
:10068c00010100000000000009240000010000002e
:10069c000109000000010000010900000401000034
:1006ac00000200000103000000000000072400000d
:1006bc0001000000014100000006000024020000bf
:1006cc0001010000000600002402000002020000ec
:1006dc0000090000240300000103000001020000d7
:1006ec0001000000092400000302000004010000c6
:1006fc00010100000009000005010000024000009b
:10070c0000000000000000000525000001010000b1
:10071c0001090000058100000240000000000000fb
:10072c00000000000525000001010000030000008e
:10073c000403000009040000340300004d00000015
:10074c006900000063000000720000006f000000f0
:10075c0063000000680000006900000070000000e9
:10076c002000000054000000650000006300000041
:10077c00680000006e0000006f0000006c000000bc
:10078c006f000000670000007900000020000000ee
:10079c00490000006e000000630000002e00000005
:1007ac001a0300004d000000490000004400000046
:1007bc004900000020000000450000007800000007
:1007cc00610000006d000000700000006c00000073
:1007dc0065000000388300009e830000a2830000a7
:0407ec00d6830000b0
:020000040000fa
:1007f0000200fa009ec0a9008ac1a8000080eb0098
:10080000702088000080eb00502088002a24ef0030
:10081000220020008000eb00c042200084ff07007f
:1008200020002000302188002824ef000644a90081
:10083000f009200080208800f00920006020880056
:1008400002c4a8000804a80000a020004800de00a0
:10085000c02088000040eb00004f78000700370000
:100860001e80fb00c200dd0000a0200000814000cf
:100870006000b8000089be001e4fe8001e407800ee
:10088000e74f5000f6ff36001424a8001624ef00ae
:1008900014a4a9001424a90080002000502088007e
:1008a000608720008040eb0001487800c08720006e
:1008b0008040eb0001487800d0872000904078000d
:1008c000e0c0600001487800e08720009040780098
:1008d000e0c060000148780050208000680060009f
:1008e0000000e000ecff3a0010c0b3001be8b700c6
:1008f00010c0b3001ce8b7001d68ef001e68ef00d1
:100900001568ef000040eb00004f7800150037003d
:100910001e80fb0080004000c0802000008040005e
:100920008000eb00010878001e80fb008000400082
:1009300080802000008040008000eb0001087800eb
:100940001e80fb00118820000041eb0082707800bf
:100950001e80fb00318820000041eb00827078008f
:100960001e4fe8001e407800e14f5000e8ff3600bf
:1009700080a0200060408800d00020005021880026
:10098000508820001050880000a0200081c0b300d3
:100990000148780010a0200041c0b3000148780051
:1009a00010a020009040780000c8b30080c0700004
:1009b00010a02000014878000268ef002028ef0016
:1009c0002228ef002468ef000028ef000080fa00e2
:1009d000000006000200fa00004080000000e00075
:1009e00013003a001424ef000c24ef002000200034
:1009f000302188002824ef000644a900f0092000d7
:100a000080208800f00920006020880002c4a8002f
:100a1000010037001404a800a020800061006000dd
:100a20000000e000fbff32001000200000408800c2
:100a300000408000e10f50000c003a00a12080002f
:100a400000042000008060000000e00007003a0081
:100a50000080eb00502088000c24ef000c04a8005c
:100a60000c84a800200020000040880000208000a6
:100a7000700060000000e0000700320010208000dd
:100a8000700060000000e000030032000001200060
:100a900000208800ab040700402080006200600056
:100aa0000000e000020032008ec0a900a200370062
:100ab00050208000610060000000e000090032006a
:100ac00060208000610060000000e000050032004e
:100ad00047ff070040002000004088001000200071
:100ae0005020880050208000700060000000e0006e
:100af0000500320060208000700060000000e0000f
:100b00000100320082040700012080000004200060
:100b1000008060000000e0000300320000042000bc
:100b200000208800e3060700502080006400600079
:100b30000000e000140032006020800064006000cb
:100b40000000e00004003200120020008000eb00f2
:100b5000300720006e090700400020005020880068
:100b600019c8bf000004e0000300320019c8bf002c
:100b70000040e90019e8b70019c8bf000004e00010
:100b800001003a0087010700512080000008200082
:100b9000008060000000e00006003200612080005c
:100ba00000082000008060000000e000010032002a
:100bb0003a04070050208000620060000000e0005e
:100bc0000c00320060208000620060000000e00045
:100bd00008003200120020008000eb00f0ff270028
:100be0004b0907000080eb007020880020002000e7
:100bf0005020880000408000e30f500002003e00bb
:100c00008ec0a9004c0037006020800068006000a2
:100c10000000e000470032000040eb00004f780089
:100c20003f00370050208000680060000000e000b6
:100c30003f003200902080000040780016e8b700a6
:100c400016c8bf000080fb004400de0000407800b2
:100c500017e8b700800020005020880016c8bf00a9
:100c6000684060000004e00012003a0017c8bf00ae
:100c70000081fb0017c8bf008080fb003088200087
:100c8000008040009040780061c060000004a20035
:100c9000e14060003088200000004100e1c06000b9
:100ca000104178000204a1008140710001487800e1
:100cb0001100370017c8bf000081fb0017c8bf0034
:100cc0008080fb0010882000008040009040780069
:100cd00061c060000004a200e140600010882000b4
:100ce00000004100e1c06000104178000204a10052
:100cf000814071000148780017c8bf000004e0007f
:100d000002003a001b040700040037000001eb005a
:100d10006181200020072000fd0807001e4fe80029
:100d20001e407800e34f5000beff36000100370040
:100d3000000000008ec0a9000080fa00000006003c
:100d40000400fa0020479800314798003e40900088
:100d50000080fb00680060000000e000030032003b
:100d60008040eb002e409000810107003e40900043
:100d70000080fb00640060000000e000030032001f
:100d800011c0b3002e40900079010700a14220005d
:100d90002e4090000080fb0000004000008f4000cb
:100da0001e007800be409000014878000080fa00e4
:100db000000006000800fa0020479800314798001c
:100dc00022079800634798003e4090000004e0002e
:100dd000070032002e4090000080fb0080004000a1
:100de000c080200000804000100f7800060037000f
:100df0002e4090000080fb0080004000808020009a
:100e000000804000100f78001e0078000000e00015
:100e100002003a000000eb0037003700ae009000ff
:100e20001e007800110098001e007800ee4090002f
:100e3000014878001e0078001040900002c4b30002
:100e4000824060001e007800114098001e0078006b
:100e500010409000804078000134a0001e0078000f
:100e6000114098001e0078009040900000c8b30028
:100e700080c070001e007800114098003e40900035
:100e80000004e0000e0032002e4090000080fb00c5
:100e9000ae4090008180fb0001814000c1802000b5
:100ea00081004100910078000120a2000001400073
:100eb000c080200000004100010878000d003700cc
:100ec0002e4090000080fb00ae4090008180fb002f
:100ed0000181400081802000810041009100780064
:100ee0000120a2000001400080802000000041009d
:100ef000010878001e0078000080fa00000006005b
:100f00000400fa0020479800314798002e409000d6
:100f10000004e00019003a003040800081c0b300b6
:100f2000014878003040800051882000110098006e
:100f300030408000c1c0b3001140980030408000b4
:100f4000314080001141900001c8b3008140710020
:100f5000114098006040800041c0b30011409800eb
:100f600060408000614080001141900001c8b300e2
:100f700081407100114098002e0037002e409000f3
:100f80000080fb0000004000800078003e409000a0
:100f90000080fb00008040004300dd0080007800fe
:100fa00000a02000008f40001e007800104090003c
:100fb000804078000124a0001e00780011409800b5
:100fc0001e0078009040900000c8b30080c0700000
:100fd0001e007800114098002e4090000080fb0019
:100fe00000004000800078003e4090000080fb0040
:100ff000008040004300dd00e400400000a020002d
:10100000008f40001e007800104090008040780063
:101010000124a0001e007800114098001e007800f6
:101020009040900000c8b30080c070001e0078009f
:10103000114098000080fa00000006000200fa004b
:10104000004f7800a1208000000220000080600096
:101050000000e000510032001e80fb0080004000d4
:10106000c080200000804000100278001e80fb003d
:1010700080004000c0802000008040001000780008
:101080001001be0000042000010020008202780050
:1010900003017800800178000100780083826200fb
:1010a000000061008000eb00c000dd0000002000b7
:1010b0000001be006128b80000017100818171004b
:1010c000028abe001e80fb0080004000c08020001d
:1010d00000804000100278001e80fb00800040006d
:1010e000c080200000804000100078001001be0089
:1010f00000042000010020000000690081806900d8
:10110000008abe001e80fb009e80fb000181400023
:10111000c180200081004100910078000120a200e0
:1011200000014000c080200000004100010878005c
:101130001e80fb0080004000c08020000080400036
:10114000900078001e80fb0000014000c08020005d
:101150000000410010007800104090000044b200f0
:10116000904098001e80fb0080004000c08020005e
:1011700000804000900078001e80fb0000014000cd
:10118000c080200000004100100078001041900055
:1011900000c4b30000406900904098000080fa004d
:1011a000000006000000fa001bc8bf000004a200f7
:1011b0000004e0003600320010c0b3001be8b700a6
:1011c0001cc8bf000004a2000004e0003000320090
:1011d00010c0b3001ce8b70011c8bf00e24f5000b8
:1011e0000d003a00604080008040eb00014878002c
:1011f0006040800081c4b3001140980060408000ce
:10120000614080001141900001c8b300814071002d
:10121000114098001e00370011c8bf00e14f500078
:101220001b003a001868ef002040800081c0b30026
:10123000014878002040800051882000110098006b
:101240002040800041c0b300114098002040800041
:10125000214080001141900001c8b300814071001d
:101260001140980010c0b30018e8b700304080006b
:1012700081c0b300014878003040800051882000d0
:10128000110098003040800001c8b3001140980060
:101290000080fa00000006000000fa001d68ef0060
:1012a0001e68ef0011c8bf00e24f500010003a0066
:1012b0003040800081c0b300014878003040800099
:1012c000d1882000110098003040800081c4b30014
:1012d0001140980030408000314080001141900062
:1012e00001c8b30081407100114098001e00370012
:1012f000b08820001080fb00c18820009180fb0096
:10130000c808dd000100700080007800c043800044
:10131000808f500007003100b08820001080fb0053
:10132000c18820009180fb00c808dd00010070002a
:10133000c04388009b00070060408000d1882000e7
:10134000110098006040800081c4b30011409800f3
:1013500060408000614080001141900001c8b300ee
:1013600081407100114098000080fa0000000600e2
:101370000400fa00204798003147980000a02000a0
:10138000000f78002e4090000080fb00000040001d
:10139000800078003e4090000080fb00008040000c
:1013a0004300dd001e0f40001e0078001001780091
:1013b000f1ff270081006100010878003e409000a5
:1013c0000004e00007003a002e4090000080fb007f
:1013d0008000400080802000008040001e087800cf
:1013e000060037002e4090000080fb008000400087
:1013f000c0802000008040001e0878001e00780099
:101400009000780001e0a100010878009e007800bb
:10141000648040009000780001e0a000010878009e
:101420000080fa00000006000000fa0014a4a900e1
:10143000b143800000082000008060000000e00050
:1014400029003a00c08720009040780000c8b3000f
:1014500000c060000004e0000a00320020c0b300b9
:1014600011e8b7001ec8bf000004a2000004e0009d
:101470000100320088ff07001c68ef001b68ef00c6
:10148000460037003040800081c0b300014878003a
:1014900030408000518820001100980030408000ca
:1014a000c1c0b3001140980030408000314080003e
:1014b0001141900001c8b3008140710011409800b3
:1014c0006040800041c0b30011409800604080003f
:1014d000614080001141900001c8b300814071005b
:1014e000114098002d00370050882000904078006f
:1014f00000c8b30000c060000004e0000f0032002c
:1015000010c0b30011e8b7001dc8bf000004a2005e
:101510000004e000010032005fff07001c68ef00dc
:101520001b68ef001ac8bf000004a2000004e0001e
:101530001a0032001bff07001800370020c0b3005c
:1015400011e8b7003040800081c0b3000148780046
:101550003040800051882000110098003040800009
:1015600041c0b300114098003040800031408000fd
:101570001141900001c8b3008140710011409800f2
:101580001c68ef001b68ef001ac8bf000004a2002f
:101590000004e0000100320002ff07000080fa00b2
:1015a000000006000200fa0080c0b300004f78007f
:1015b000c0438000e70f50000d003e00c043800094
:1015c000004f780010c8bf000004e00003003a009c
:1015d00010c0b30010e8b7000500370010c8bf0006
:1015e000e14f500002003a0020c0b30010e8b700fd
:1015f000c14380001e80fb0000805000c043880073
:10160000604080001e487800d0882000904088000c
:10161000b0438000610060000000e00017003a0065
:101620000900370091408000a043800010417800fd
:10163000824878008100e800914088000000e800be
:10164000a04388001e4fe9001e4078000004e0001f
:10165000f4ff3a000c00370091408000a043800066
:1016600010417800824878008100e80091408800ad
:101670000000e800a04388001e4fe9001e407800eb
:101680000004e000f4ff3a000080fa0000000600c9
:101690000200fa0020408000104f78009e80fb007e
:1016a000d08720001080fb00e28720001281fb0021
:1016b0004811dd0002007000808f500007003600e6
:1016c000d08720001080fb00e18720009180fb0084
:1016d000c808dd0001007000004f7800d0872000ae
:1016e0001080fb00e18720009180fb00c808dd002e
:1016f00001007000800078001e80fb000080500018
:10170000f10f200001016000d18720009141780095
:10171000e0c1610002c1710082487800c800de00ab
:10172000e087200010417800604161008140710035
:10173000014878000040eb00104798001c0037007b
:10174000a08720001080fb00b18720009180fb0063
:10175000c808dd00010070009e4090008180fb0001
:10176000d2882000e2c07800014878000000e8003c
:10177000f10f200001016000a18720009141780055
:10178000e0c1610002c1710082487800c800de003b
:10179000b0872000104178006041610081407100f5
:1017a000014878001e4090000040e8001047980073
:1017b0001e4090009e4f5000e1ff3900d08720006e
:1017c0001080fb00e18720009180fb00c808dd004d
:1017d000010070000000e000200032003040800076
:1017e00081c0b3000148780030408000d1882000db
:1017f0001100980020408000900078000000240034
:10180000008060000000e0000a003a0030408000e4
:1018100081c4b30011409800304080003140800006
:101820001141900001c8b30081407100114098003f
:10183000310037003040800081c0b3001140980073
:1018400030408000314080001141900001c8b30059
:10185000814071001140980027003700304080001f
:1018600081c0b300014878003040800051882000da
:10187000110098003040800041c0b3001140980032
:1018800030408000314080001141900001c8b30019
:101890008140710011409800f08720001080fb000b
:1018a000018820009180fb00c808dd000100700065
:1018b0000000e00007003200f08720001080fb00ed
:1018c000018820009180fb00c808dd000100700045
:1018d00000000100c0872000904078000174a10042
:1018e000014878001ac8bf000004a2000004e0000c
:1018f000010032002bfe07000080fa000000060005
:101900000200fa00b04380000070a000b0438800dd
:10191000220020008000eb00c042200044fb0700b2
:10192000020220008000eb0000a0200040fb070026
:101930001424a8000040eb00004f78000900370095
:101940001e80fb00118820000041eb0082707800af
:101950001e80fb00318820000041eb00827078007f
:101960001e4fe8001e407800e14f5000f4ff3600a3
:10197000120020008000eb00308020002cfb0700cc
:101980001424a90080a020006040880000a020004e
:10199000204088002040800030408800708820006f
:1019a0001040780002e8b70002c8bf000004e00061
:1019b00003003a00000120000040880006003700c4
:1019c000120020002180200010002000d005070018
:1019d00000022000004088000080fa00000006009d
:1019e0000000fa00508820009040780000c8b30042
:1019f00080cf500047003a006087200001ccb30040
:101a00000148780080882000104078000080fb00aa
:101a1000e20f500009003200e30f500023003200b3
:101a2000e10f500037003a0060322800a0438800e0
:101a300020012000c0438800360037007088200055
:101a4000104078000004e00014003a007088200084
:101a5000104078000080fb0000004000800078000b
:101a6000003f28000080400010007800a04388005c
:101a7000a04380000080e80090407800808720002c
:101a800001487800a0438000630040009040780047
:101a900090872000014878001e00370060872000f2
:101aa0008040eb00014878001a0037007088200061
:101ab00010407800e24f50000e003e007088200079
:101ac000104078000080fb0000004000800078009b
:101ad000203f28000080400010007800a0438800cc
:101ae000a0438000104078000080fb00c0438800c5
:101af00008003700608720008040eb000148780034
:101b000004003700608720008040eb000148780027
:101b1000000000000080fa00000006000200fa0049
:101b2000d08820008040eb0001487800e088200049
:101b30008040eb00014878005088200090407800f9
:101b40007fc060000080fb00e10f500011003200f8
:101b5000e20f5000130032000000e00040003a00a5
:101b6000b04380000070a000b043880014c8bf00dc
:101b70000004e00035003200d088200010407800da
:101b8000804078000114a000d0882000014878002f
:101b900033003700b04380000070a000b0438800dd
:101ba0002f003700b04380000070a000b0438800d1
:101bb000908820009040780000c8b30000c060000a
:101bc0000004e00009003a0090882000904078006e
:101bd0006fc060000080fb0080004000808020001b
:101be00000804000100f7800080037009088200027
:101bf000904078006fc060000080fb0080004000d3
:101c0000c080200000804000100f78001e00780087
:101c10009000780000002800008060000000e000d4
:101c20000c0032001e007800900078000040200078
:101c3000008060000000e00008003200d088200032
:101c400011c0b30001487800050037000000000013
:101c50000300370000000000010037000000000012
:101c6000b143800000082000008060000000e00018
:101c700008003200d0882000a0438800b0438000d4
:101c80000000a000b04388008087200021c0b3007e
:101c9000014878000080fa00000006000000fa0009
:101ca00050218000620060000000e000140032005b
:101cb000204080009040900000c8b30080cf5000ca
:101cc0000e003a00604080009040900040c8b30091
:101cd00080cf500009003a0020408000c1c0b3000e
:101ce0001140980020408000214080001141900068
:101cf00001c8b30081407100114098002a24a90056
:101d000000082000502088000080fa000000060033
:101d10000000fa000284a800000120005020880082
:101d200010c0b30015e8b7002468ef000001eb0015
:101d30008000eb0050072000f50407000080fa0047
:101d4000000006000000fa001568ef000001eb003b
:101d50008000eb0040072000ed0407000284a9008a
:101d600000012000002088002468ef000080fa00b5
:101d7000000006000000fa00d0c2b30019e8b70066
:101d800016c8bf000080fb000020a1000000e0009a
:101d90001f003a0016c8bf000080fb004200de00b2
:101da000004078000080fb00c200dd0000a02000a1
:101db00000804000204088002040800030408800a3
:101dc000304080000020a200304088002040800089
:101dd0009000780000c02300808060000040230055
:101de000808f500008003a002040800010009000d2
:101df00082002000800078005088200005fa07004b
:101e00000b000700080037003d0007000600370000
:101e100016c8bf000080fb000020a100e80f5000a2
:101e200001003a00540007000080fa00000006009c
:101e30000000fa001068ef001a68ef001d68ef005c
:101e40001e68ef001868ef001168ef006040800026
:101e500061408000914090000174a1001140980001
:101e6000604080000020a200604088006040800048
:101e700061408000914090000174a10011409800e1
:101e8000604080000020a200604088003040800058
:101e900031408000914090000174a10011409800f1
:101ea000608720008040eb00014878000000eb00d4
:101eb000c0438800c08720008040eb0001487800c4
:101ec000d087200090407800e0c060000148780092
:101ed000e087200090407800e0c060000148780072
:101ee000860007000001eb008000eb0030002000be
:101ef000870407004cfd07000080fa000000060080
:101f00000000fa0011c8bf00e24f500002003a0082
:101f1000dffd0700160037001168ef0018c8bf008a
:101f20000004a2000004e0001000320030408000f5
:101f300081c0b30001487800304080005188200003
:101f40001100980030408000c1c0b30011409800db
:101f500030408000314080001141900001c8b30042
:101f60008140710011409800010037001868ef00af
:101f70000080fa00000006000200fa0060408000c5
:101f8000100078004e00de0061406000004f7800d5
:101f9000604080000020a200604088000040800077
:101fa000e80f50000e003a007088200010407800c2
:101fb0008080fb00f007200000806000b0208800d7
:101fc000b02080000000e00003003200000120008b
:101fd00000408800020037004000200000408800d8
:101fe00011c8bf00e14f500028003a006040800057
:101ff000d1882000110098006afd070010c8bf00ba
:10200000e24f50000a003a006040800041c0b30037
:1020100011409800604080006140800011419000b4
:1020200001c8b300814071001140980031003700b1
:102030001e4078000004e0000a003a006040800082
:1020400081c4b3001140980060408000614080006e
:102050001141900001c8b300814071001140980007
:10206000240037006040800081c0b3001140980018
:1020700060408000614080001141900001c8b300c1
:1020800081407100114098001a003700c08720007d
:102090009040780000c8b30000c060000004e00079
:1020a00013003200f08720001080fb000188200020
:1020b0009180fb00c808dd00010070000000e00016
:1020c00007003200f08720001080fb00018820000c
:1020d0009180fb00c808dd000100700000000100d5
:1020e000c0872000904078000174a100014878006a
:1020f0001168ef000080fa00000006000000fa00fe
:1021000050882000104078000046b2000004e00033
:1021100051003a0060882000104078000080fb00e9
:10212000cf80de00b200200003002000820f5000ac
:10213000838f58004a003e000060010021003700f4
:1021400022003700480037002000370046003700e3
:10215000060037000b0037003a0037000d0037004b
:102160000a0037001b0037002a003700b043800008
:102170000070a000b043880080002000004088006c
:102180003a00370016fe070038003700dcfd070074
:102190003600370020802000a0438800b043800034
:1021a0000000a000b04388008087200011c0b30069
:1021b00001487800b04380000070a000b043880060
:1021c0002a00370055fe07002800370029000700c5
:1021d0002600370090882000104078008080fb00a7
:1021e0003080200000804000a0438800b043800081
:1021f0000000a000b04388008087200011c0b30019
:1022000001487800b04380000070a000b04388000f
:1022100016003700b04380000070a000b043880073
:1022200090882000104078000081fb00708820001a
:102230009040780030802000000041000148780084
:102240000a0037000001eb008000eb0020002000b6
:10225000af0307000500370000000000030037004f
:102260000000000001003700000000000080fa00bc
:10227000000006000600fa00708820001040780078
:10228000e14f500010003a005088200010407800c4
:102290007f4060000004e0000b003a00b043800083
:1022a0000070a000b04388006088200010407800d3
:1022b000e34f500003003a0010c0b30014e8b70029
:1022c000010037001468ef0070882000104078008b
:1022d0000004e000f5003a0050882000104078002b
:1022e0007f406000e24f5000f0003a0090882000ec
:1022f000104078006f4060000004e000eb00320006
:1023000090882000904078006fc060000080fb0043
:10231000e10f5000e5003c00014080000002200079
:10232000808f5000e1003a00b04380000070a000b0
:10233000b0438800908820009040780000c8b30027
:1023400000c060000004e00010003a009088200007
:10235000104178006f4061000080fb008000400069
:102360008080200000804000100f780090882000be
:10237000904078006fc060000080fb003188200032
:1023800061407800404798000f0037009088200097
:10239000104178006f4061000080fb008000400029
:1023a000c080200000804000100f7800908820003e
:1023b000904078006fc060000080fb001188200012
:1023c00061407800404798004e40900061406000b6
:1023d0000004e00004003a001e0078000020a10084
:1023e000000f7800030037001e0078000020a000d6
:1023f000000f7800908820009040780000c8b3005b
:1024000000c060000004e0000a003a00908820004c
:10241000104178006f4061000080fb009e00780052
:102420000001400080802000000041000108780089
:102430000900370090882000904078006fc060004d
:102440000080fb009e00780000014000c08020005a
:1024500000004100010878006088200010407800ea
:10246000e34f50002c003a001e00780090007800e6
:1024700000002800008060000000e0001900320029
:10248000908820009040780000c8b30000c0600031
:102490000004e0000a003a00908820001041780013
:1024a0006f4061008080fb00308820000080400089
:1024b000904078000114a00001487800090037001e
:1024c00090882000904078006fc060008080fb0002
:1024d0001088200000804000904078000114a00087
:1024e000014878001e00780010409000804078007d
:1024f0000124a0001e007800114098001e00780002
:102500009040900000c8b30080c070001e007800aa
:1025100011409800650037001e0078000020a200de
:10252000000f78001e00780090007800000028005e
:10253000008060000000e000110032001e00780002
:1025400010409000804078000174a1001e007800c7
:10255000114098001e0078001040900080407800e4
:102560000164a0001e0078001140980022002000a5
:102570009e00780050002000e502070006003700aa
:102580001e00780010409000804078000164a00098
:102590001e007800114098001e0078000020a20064
:1025a000000f78004e409000624060000004e000a0
:1025b00006003a001e007800900078000000280015
:1025c000008060000000e0002400320090882000bd
:1025d0009040780000c8b30000c060000004e00034
:1025e0000a003a0090882000104178006f40610096
:1025f0008080fb0030882000008040009040780000
:102600000114a100014878000900370090882000db
:10261000904078006fc060008080fb001088200030
:1026200000804000904078000114a100014878002b
:102630001e00780010409000b2c3b30082406000da
:102640001e00780011409800220020009e007800b3
:1026500050002000ae020700060037001e00780080
:1026600010409000b2c3b300824060001e007800aa
:1026700011409800a142200090882000104178006d
:102680006f4061000080fb000000400000804000bf
:10269000100798001e0090001040780080407800dd
:1026a0000114a1001e009000014878000080fa008b
:1026b000000006000000fa00004180001141800087
:1026c00061004000e080480000418800114188001e
:1026d00015c8bf000004a2000004e000080032009a
:1026e00024c8bf000040e80024e8b70024c8bf00a9
:1026f0000004e00002003a0000c0eb0024e8b7004c
:102700000080fa00000006000000fa00004180008e
:10271000114180000080fa00000006000200fa006b
:10272000000f78001e007800e40f500018003200ff
:10273000e40f500007003e00e20f5000100032008e
:10274000e20f500010003e00e10f50000a0032007e
:1027500019003700e60f500011003200e60f50005c
:102760000d003900e70f50000f003200e80f500055
:102770000f003200100037008541a8000e0037001e
:1027800084e1a8000c0037008e61a8000a00370021
:102790008e41a800080037008521a80006003700f8
:1027a0008501a8000400370098a1a80002003700a6
:1027b00098c1a800000000000080fa000000060098
:1027c0000200fa00000f78001e007800e40f5000ad
:1027d00018003200e40f500007003e00e20f5000e6
:1027e00010003200e20f500010003e00e10f5000d8
:1027f0000a00320019003700e60f500011003200c5
:10280000e60f50000d003900e70f50000f003200b6
:10281000e80f50000f003200100037008541a9007a
:102820000e00370084e1a9000c0037008e61a9007a
:102830000a0037008e41a900080037008521a90051
:10284000060037008501a9000400370098a1a900ff
:102850000200370098c1a900000000000080fa00c3
:10286000000006000200fa00000f78001e00780049
:10287000e40f500039003200e40f500007003e0022
:10288000e20f50001b003200e20f500026003e0015
:10289000e10f50000a00320071003700e60f5000cf
:1028a00048003200e60f500039003900e70f5000b1
:1028b00051003200e80f50005c0032006800370021
:1028c000200c80004a00de00614060000004a2008d
:1028d000614060000080fb00610060004a00dd0094
:1028e000210c800001a0a10001007000200c8800d4
:1028f0005b003700200c80004700de006140600074
:102900000004a200614060000080fb0061006000e4
:102910004700dd00210c80000170a1000100700063
:10292000200c88004e003700700c80004300de0051
:10293000614060000004a200614060000080fb0074
:10294000610060004300dd00710c80000130a100d7
:1029500001007000700c880041003700700c80008e
:102960004200de00614060000004a200614060009f
:102970000080fb00610060004200dd00710c8000ff
:102980000120a10001007000700c880034003700a5
:10299000200c80004900de00614060000004a200bd
:1029a000614060000080fb00610060004900dd00c4
:1029b000210c80000190a10001007000200c880013
:1029c00027003700200c80004800de0061406000d6
:1029d0000004a200614060000080fb006100600014
:1029e0004800dd00210c80000180a1000100700082
:1029f000200c88001a003700c00c80004500de0063
:102a0000614060000004a200614060000080fb00a3
:102a1000610060004500dd00c10c80000150a10094
:102a200001007000c00c88000d003700c00c800051
:102a30004600de00614060000004a20061406000ca
:102a40000080fb00610060004600dd00c10c8000da
:102a50000160a10001007000c00c880000000000af
:102a60000080fa00000006000200fa00000f780063
:102a70001e007800e40f50002c003200e40f5000dc
:102a800007003e00e20f500017003200e20f500036
:102a90001e003e00e10f50000a0032004f003700d8
:102aa000e60f500032003200e60f500027003900d8
:102ab000e70f500037003200e80f50003e003200b0
:102ac00046003700210c800000402000008060009c
:102ad00000f0a7000000ea000000ea004f00de005e
:102ae000004078003e003700210c800000082000e4
:102af0000080600000f0a7000000ea000000ea008b
:102b00004f00de000040780035003700700c800078
:102b10006800600000f0a7000000ea000000ea0082
:102b20004f00de00004078002d003700700c800060
:102b30006400600000f0a7000000ea000000ea0066
:102b40004f00de000040780025003700210c800097
:102b5000002020000080600000f0a7000000ea00d4
:102b60000000ea004f00de00004078001c00370043
:102b7000210c8000001020000080600000f0a70001
:102b80000000ea000000ea004f00de00004078008c
:102b900013003700c10c800000022000008060009c
:102ba00000f0a7000000ea000000ea004f00de008d
:102bb000004078000a003700c10c800000042000ab
:102bc0000080600000f0a7000000ea000000ea00ba
:102bd0004f00de0000407800010037000040eb00ad
:102be0000080fa00000006000200fa00000f7800e2
:102bf0001e007800e40f500018003200e40f50006f
:102c000007003e00e20f500010003200e20f5000bb
:102c100010003e00e10f50000a003200190037009a
:102c2000e60f500011003200e60f50000d00390091
:102c3000e70f50000f003200e80f50000f00320085
:102c4000100037008141a9000e00370080e1a90083
:102c50000c0037008a61a9000a0037008a41a900e8
:102c6000080037008121a900060037008101a90072
:102c70000400370094a1a9000200370094c1a90004
:102c8000000000000080fa00000006000000fa00ca
:102c90002a28ef002c28ef00c0c3b3002ee8b700ad
:102ca00010c0b3002fe8b7003068ef00d1c1b30007
:102cb00010c0b30022f8070003c4b3004283200011
:102cc0008040eb0010c0b3003af807006041880074
:102cd0000080fa00000006000000fa0030c8bf00c3
:102ce0000004e0000300320030c8bf000040e900eb
:102cf00030e8b7000080fa00000006000000fa008b
:102d000000408000ff0f500073003600402080001c
:102d1000620060000000e00071003a006041800045
:102d20000000e00006003200604180009000780062
:102d300000002800008060000000e00006003a006b
:102d400003c4b300428320008040eb0010c0b300f6
:102d500018f8070060418800100020006300070099
:102d60000004e0002900320030c8bf000004e00089
:102d70005c003a002fc8bf000004e0005900320098
:102d8000504180000000e000060032005041800009
:102d90009000780000002800008060000000e00043
:102da00050003a0040c6b30030e8b7002628ef00d4
:102db0002828ef002688a90026a8a90026c8a9006f
:102dc00026e8a9002608a8002628a9002648a90068
:102dd0002668a80000c9b30027e8b7002ec8bf00c6
:102de00028e8b700f0c7b30029e8b70043c0b30034
:102df0006282200011c0b30010c0b300edf70700dd
:102e0000504188002f68ef003600370030c8bf00ff
:102e10000004e00033003a002fc8bf000004a20005
:102e20000004e0002f003200504180000000e0006c
:102e30000600320050418000900078000000280019
:102e4000008060000000e00026003a0040c6b300a9
:102e500030e8b7002628ef002828ef002688a900d0
:102e600026a8a90026c8a90026e8a9002608a800c7
:102e70002628a9002648a9002668a80000c9b30092
:102e800027e8b7002ec8bf0028e8b7000040e800d8
:102e90002ee8b7002968ef00e18220009140780019
:102ea00090c4b30080cf500002003a00c0c3b3000a
:102eb0002ee8b70043c0b3006282200011c0b30007
:102ec00010c0b300bbf707005041880010c0b3002a
:102ed0002fe8b700030037000000000001003700b2
:102ee000000000000080fa00000006000200fa0066
:102ef000000f78001e007800e20f5000130032002f
:102f0000e20f500003003e00e10f500006003200c7
:102f100029003700e30f500015003200e40f500085
:102f20001c00320024003700110c800000402000fb
:102f30000080600000f0a7000000ea000000e90047
:102f40004f00de00004078001c003700110c8000ac
:102f5000002020000080600000f0a7000000ea00d0
:102f60000000e9004f00de00004078001300370049
:102f7000b10c8000000420000080600000f0a70079
:102f80000000ea000000e9004f00de000040780089
:102f90000a003700110c800000082000008060004b
:102fa00000f0a7000000ea000000e9004f00de008a
:102fb00000407800010037000040eb000080fa007c
:102fc000000006000200fa00000f78001e007800e2
:102fd000e20f50000c003200e20f500003003e00f0
:102fe000e10f5000060032000d003700e30f5000e3
:102ff00007003200e40f50000700320008003700dd
:103000008141a800060037008121a8000400370094
:1030100094c1a8000200370080e1a8000000000071
:103020000080fa00000006000000fa004020800046
:10303000620060000000e000030032002000200079
:10304000dffd070030003700014080000002200053
:10305000808f500013003a0090418000e10f500033
:1030600003003a0020002000acfd070023003700d9
:1030700091418000b0042000808f500003003a008e
:1030800020002000cefd07001c0037009141800089
:1030900060092000808f5000150036003228ef00b4
:1030a0001600370090418000e10f500003003a0005
:1030b0002000200099fd070010003700914180009a
:1030c00020032000808f500003003a0020002000e1
:1030d000bbfd07000900370091418000603b2000e4
:1030e000808f5000040036003228ef0003003700c4
:1030f0000000000001003700000000009041800047
:103100000000e800904188000080fa0000000600fe
:103110000600fa00000f78001107980022079800b7
:103120001e00780021072000810f50001d00320092
:1031300021072000810f500007003c00e20f5000e3
:103140001a003200e20f50001a003c00e10f50005c
:10315000120032001800370041072000810f500094
:103160000c00320041072000810f500004003500a0
:1031700051072000810f5000040032000e0037007c
:10318000a9ff0700d4fe07000b003700a6ff0700c9
:1031900009003700a4ff070007003700bbfe070047
:1031a00005003700000000000300370000000000a9
:1031b000010037000000000010c0b3000080fa00da
:0431c0000000060005
:020000040000fa
:1031c40034080000400000008000000026080000d1
:1031d4000c00000080000000320800000200000023
:1031e400800000007408000022000000800000003d
:1031f400000800002600000080000000000a000013
:0c3204002000000080000000000000001e
:020000040000fa
:103210000200fa00000f78001e007800e10f500055
:1032200008003200e10f5000080031008ac1a800f8
:10323000200020006cfe07001000200061ff070046
:10324000030037000000000001003700000000000c
:103250000080fa00000006000000fa000000eb0009
:10326000ebff070062f50700daf50700a3fe070091
:04327000fdff370027
:020000040000fa
:020000040002f8
:04aff000ffc300009b
:020000040000fa
:020000040002f8
:04aff400ffff00005b
:020000040000fa
:020000040002f8
:04aff8009dbb0000fd
:020000040000fa
:020000040002f8
:04affc003f3f0000d3
:00000001FF
